{"contracts/MyGovernor.sol":{"MyGovernor":{"abi":[{"inputs":[{"internalType":"contract IVotes","name":"_token","type":"address"}],"stateMutability":"nonpayable","type":"constructor"},{"inputs":[],"name":"Empty","type":"error"},{"anonymous":false,"inputs":[{"indexed":false,"internalType":"uint256","name":"proposalId","type":"uint256"}],"name":"ProposalCanceled","type":"event"},{"anonymous":false,"inputs":[{"indexed":false,"internalType":"uint256","name":"proposalId","type":"uint256"},{"indexed":false,"internalType":"address","name":"proposer","type":"address"},{"indexed":false,"internalType":"address[]","name":"targets","type":"address[]"},{"indexed":false,"internalType":"uint256[]","name":"values","type":"uint256[]"},{"indexed":false,"internalType":"string[]","name":"signatures","type":"string[]"},{"indexed":false,"internalType":"bytes[]","name":"calldatas","type":"bytes[]"},{"indexed":false,"internalType":"uint256","name":"startBlock","type":"uint256"},{"indexed":false,"internalType":"uint256","name":"endBlock","type":"uint256"},{"indexed":false,"internalType":"string","name":"description","type":"string"}],"name":"ProposalCreated","type":"event"},{"anonymous":false,"inputs":[{"indexed":false,"internalType":"uint256","name":"proposalId","type":"uint256"}],"name":"ProposalExecuted","type":"event"},{"anonymous":false,"inputs":[{"indexed":false,"internalType":"uint256","name":"oldProposalThreshold","type":"uint256"},{"indexed":false,"internalType":"uint256","name":"newProposalThreshold","type":"uint256"}],"name":"ProposalThresholdSet","type":"event"},{"anonymous":false,"inputs":[{"indexed":false,"internalType":"uint256","name":"oldQuorumNumerator","type":"uint256"},{"indexed":false,"internalType":"uint256","name":"newQuorumNumerator","type":"uint256"}],"name":"QuorumNumeratorUpdated","type":"event"},{"anonymous":false,"inputs":[{"indexed":true,"internalType":"address","name":"voter","type":"address"},{"indexed":false,"internalType":"uint256","name":"proposalId","type":"uint256"},{"indexed":false,"internalType":"uint8","name":"support","type":"uint8"},{"indexed":false,"internalType":"uint256","name":"weight","type":"uint256"},{"indexed":false,"internalType":"string","name":"reason","type":"string"}],"name":"VoteCast","type":"event"},{"anonymous":false,"inputs":[{"indexed":true,"internalType":"address","name":"voter","type":"address"},{"indexed":false,"internalType":"uint256","name":"proposalId","type":"uint256"},{"indexed":false,"internalType":"uint8","name":"support","type":"uint8"},{"indexed":false,"internalType":"uint256","name":"weight","type":"uint256"},{"indexed":false,"internalType":"string","name":"reason","type":"string"},{"indexed":false,"internalType":"bytes","name":"params","type":"bytes"}],"name":"VoteCastWithParams","type":"event"},{"anonymous":false,"inputs":[{"indexed":false,"internalType":"uint256","name":"oldVotingDelay","type":"uint256"},{"indexed":false,"internalType":"uint256","name":"newVotingDelay","type":"uint256"}],"name":"VotingDelaySet","type":"event"},{"anonymous":false,"inputs":[{"indexed":false,"internalType":"uint256","name":"oldVotingPeriod","type":"uint256"},{"indexed":false,"internalType":"uint256","name":"newVotingPeriod","type":"uint256"}],"name":"VotingPeriodSet","type":"event"},{"inputs":[],"name":"BALLOT_TYPEHASH","outputs":[{"internalType":"bytes32","name":"","type":"bytes32"}],"stateMutability":"view","type":"function"},{"inputs":[],"name":"COUNTING_MODE","outputs":[{"internalType":"string","name":"","type":"string"}],"stateMutability":"pure","type":"function"},{"inputs":[],"name":"EXTENDED_BALLOT_TYPEHASH","outputs":[{"internalType":"bytes32","name":"","type":"bytes32"}],"stateMutability":"view","type":"function"},{"inputs":[{"internalType":"uint256","name":"proposalId","type":"uint256"},{"internalType":"uint8","name":"support","type":"uint8"}],"name":"castVote","outputs":[{"internalType":"uint256","name":"","type":"uint256"}],"stateMutability":"nonpayable","type":"function"},{"inputs":[{"internalType":"uint256","name":"proposalId","type":"uint256"},{"internalType":"uint8","name":"support","type":"uint8"},{"internalType":"uint8","name":"v","type":"uint8"},{"internalType":"bytes32","name":"r","type":"bytes32"},{"internalType":"bytes32","name":"s","type":"bytes32"}],"name":"castVoteBySig","outputs":[{"internalType":"uint256","name":"","type":"uint256"}],"stateMutability":"nonpayable","type":"function"},{"inputs":[{"internalType":"uint256","name":"proposalId","type":"uint256"},{"internalType":"uint8","name":"support","type":"uint8"},{"internalType":"string","name":"reason","type":"string"}],"name":"castVoteWithReason","outputs":[{"internalType":"uint256","name":"","type":"uint256"}],"stateMutability":"nonpayable","type":"function"},{"inputs":[{"internalType":"uint256","name":"proposalId","type":"uint256"},{"internalType":"uint8","name":"support","type":"uint8"},{"internalType":"string","name":"reason","type":"string"},{"internalType":"bytes","name":"params","type":"bytes"}],"name":"castVoteWithReasonAndParams","outputs":[{"internalType":"uint256","name":"","type":"uint256"}],"stateMutability":"nonpayable","type":"function"},{"inputs":[{"internalType":"uint256","name":"proposalId","type":"uint256"},{"internalType":"uint8","name":"support","type":"uint8"},{"internalType":"string","name":"reason","type":"string"},{"internalType":"bytes","name":"params","type":"bytes"},{"internalType":"uint8","name":"v","type":"uint8"},{"internalType":"bytes32","name":"r","type":"bytes32"},{"internalType":"bytes32","name":"s","type":"bytes32"}],"name":"castVoteWithReasonAndParamsBySig","outputs":[{"internalType":"uint256","name":"","type":"uint256"}],"stateMutability":"nonpayable","type":"function"},{"inputs":[{"internalType":"address[]","name":"targets","type":"address[]"},{"internalType":"uint256[]","name":"values","type":"uint256[]"},{"internalType":"bytes[]","name":"calldatas","type":"bytes[]"},{"internalType":"bytes32","name":"descriptionHash","type":"bytes32"}],"name":"execute","outputs":[{"internalType":"uint256","name":"","type":"uint256"}],"stateMutability":"payable","type":"function"},{"inputs":[{"internalType":"address","name":"account","type":"address"},{"internalType":"uint256","name":"blockNumber","type":"uint256"}],"name":"getVotes","outputs":[{"internalType":"uint256","name":"","type":"uint256"}],"stateMutability":"view","type":"function"},{"inputs":[{"internalType":"address","name":"account","type":"address"},{"internalType":"uint256","name":"blockNumber","type":"uint256"},{"internalType":"bytes","name":"params","type":"bytes"}],"name":"getVotesWithParams","outputs":[{"internalType":"uint256","name":"","type":"uint256"}],"stateMutability":"view","type":"function"},{"inputs":[{"internalType":"uint256","name":"proposalId","type":"uint256"},{"internalType":"address","name":"account","type":"address"}],"name":"hasVoted","outputs":[{"internalType":"bool","name":"","type":"bool"}],"stateMutability":"view","type":"function"},{"inputs":[{"internalType":"address[]","name":"targets","type":"address[]"},{"internalType":"uint256[]","name":"values","type":"uint256[]"},{"internalType":"bytes[]","name":"calldatas","type":"bytes[]"},{"internalType":"bytes32","name":"descriptionHash","type":"bytes32"}],"name":"hashProposal","outputs":[{"internalType":"uint256","name":"","type":"uint256"}],"stateMutability":"pure","type":"function"},{"inputs":[],"name":"name","outputs":[{"internalType":"string","name":"","type":"string"}],"stateMutability":"view","type":"function"},{"inputs":[{"internalType":"address","name":"","type":"address"},{"internalType":"address","name":"","type":"address"},{"internalType":"uint256[]","name":"","type":"uint256[]"},{"internalType":"uint256[]","name":"","type":"uint256[]"},{"internalType":"bytes","name":"","type":"bytes"}],"name":"onERC1155BatchReceived","outputs":[{"internalType":"bytes4","name":"","type":"bytes4"}],"stateMutability":"nonpayable","type":"function"},{"inputs":[{"internalType":"address","name":"","type":"address"},{"internalType":"address","name":"","type":"address"},{"internalType":"uint256","name":"","type":"uint256"},{"internalType":"uint256","name":"","type":"uint256"},{"internalType":"bytes","name":"","type":"bytes"}],"name":"onERC1155Received","outputs":[{"internalType":"bytes4","name":"","type":"bytes4"}],"stateMutability":"nonpayable","type":"function"},{"inputs":[{"internalType":"address","name":"","type":"address"},{"internalType":"address","name":"","type":"address"},{"internalType":"uint256","name":"","type":"uint256"},{"internalType":"bytes","name":"","type":"bytes"}],"name":"onERC721Received","outputs":[{"internalType":"bytes4","name":"","type":"bytes4"}],"stateMutability":"nonpayable","type":"function"},{"inputs":[{"internalType":"uint256","name":"proposalId","type":"uint256"}],"name":"proposalDeadline","outputs":[{"internalType":"uint256","name":"","type":"uint256"}],"stateMutability":"view","type":"function"},{"inputs":[{"internalType":"uint256","name":"proposalId","type":"uint256"}],"name":"proposalSnapshot","outputs":[{"internalType":"uint256","name":"","type":"uint256"}],"stateMutability":"view","type":"function"},{"inputs":[],"name":"proposalThreshold","outputs":[{"internalType":"uint256","name":"","type":"uint256"}],"stateMutability":"view","type":"function"},{"inputs":[{"internalType":"uint256","name":"proposalId","type":"uint256"}],"name":"proposalVotes","outputs":[{"internalType":"uint256","name":"againstVotes","type":"uint256"},{"internalType":"uint256","name":"forVotes","type":"uint256"},{"internalType":"uint256","name":"abstainVotes","type":"uint256"}],"stateMutability":"view","type":"function"},{"inputs":[{"internalType":"address[]","name":"targets","type":"address[]"},{"internalType":"uint256[]","name":"values","type":"uint256[]"},{"internalType":"bytes[]","name":"calldatas","type":"bytes[]"},{"internalType":"string","name":"description","type":"string"}],"name":"propose","outputs":[{"internalType":"uint256","name":"","type":"uint256"}],"stateMutability":"nonpayable","type":"function"},{"inputs":[{"internalType":"uint256","name":"blockNumber","type":"uint256"}],"name":"quorum","outputs":[{"internalType":"uint256","name":"","type":"uint256"}],"stateMutability":"view","type":"function"},{"inputs":[],"name":"quorumDenominator","outputs":[{"internalType":"uint256","name":"","type":"uint256"}],"stateMutability":"view","type":"function"},{"inputs":[{"internalType":"uint256","name":"blockNumber","type":"uint256"}],"name":"quorumNumerator","outputs":[{"internalType":"uint256","name":"","type":"uint256"}],"stateMutability":"view","type":"function"},{"inputs":[],"name":"quorumNumerator","outputs":[{"internalType":"uint256","name":"","type":"uint256"}],"stateMutability":"view","type":"function"},{"inputs":[{"internalType":"address","name":"target","type":"address"},{"internalType":"uint256","name":"value","type":"uint256"},{"internalType":"bytes","name":"data","type":"bytes"}],"name":"relay","outputs":[],"stateMutability":"payable","type":"function"},{"inputs":[{"internalType":"uint256","name":"newProposalThreshold","type":"uint256"}],"name":"setProposalThreshold","outputs":[],"stateMutability":"nonpayable","type":"function"},{"inputs":[{"internalType":"uint256","name":"newVotingDelay","type":"uint256"}],"name":"setVotingDelay","outputs":[],"stateMutability":"nonpayable","type":"function"},{"inputs":[{"internalType":"uint256","name":"newVotingPeriod","type":"uint256"}],"name":"setVotingPeriod","outputs":[],"stateMutability":"nonpayable","type":"function"},{"inputs":[{"internalType":"uint256","name":"proposalId","type":"uint256"}],"name":"state","outputs":[{"internalType":"enum IGovernor.ProposalState","name":"","type":"uint8"}],"stateMutability":"view","type":"function"},{"inputs":[{"internalType":"bytes4","name":"interfaceId","type":"bytes4"}],"name":"supportsInterface","outputs":[{"internalType":"bool","name":"","type":"bool"}],"stateMutability":"view","type":"function"},{"inputs":[],"name":"token","outputs":[{"internalType":"contract IVotes","name":"","type":"address"}],"stateMutability":"view","type":"function"},{"inputs":[{"internalType":"uint256","name":"newQuorumNumerator","type":"uint256"}],"name":"updateQuorumNumerator","outputs":[],"stateMutability":"nonpayable","type":"function"},{"inputs":[],"name":"version","outputs":[{"internalType":"string","name":"","type":"string"}],"stateMutability":"view","type":"function"},{"inputs":[],"name":"votingDelay","outputs":[{"internalType":"uint256","name":"","type":"uint256"}],"stateMutability":"view","type":"function"},{"inputs":[],"name":"votingPeriod","outputs":[{"internalType":"uint256","name":"","type":"uint256"}],"stateMutability":"view","type":"function"},{"stateMutability":"payable","type":"receive"}],"evm":{"bytecode":{"linkReferences":{},"object":"6101606040523480156200001257600080fd5b50604051620072c0380380620072c0833981810160405281019062000038919062000ba3565b600481600161c4e060006040518060400160405280600a81526020017f4d79476f7665726e6f72000000000000000000000000000000000000000000008152508062000089620001d360201b60201c565b60008280519060200120905060008280519060200120905060007f8b73c3c69bb8fe3d512ecc4cf759cc79239f7b179b0ffacaa9a75d522b39400f90508260e081815250508161010081815250504660a08181525050620000f28184846200021060201b60201c565b608081815250503073ffffffffffffffffffffffffffffffffffffffff1660c08173ffffffffffffffffffffffffffffffffffffffff1681525050806101208181525050505050505080600090816200014c919062000e4f565b50506200015f836200024c60201b60201c565b62000170826200029360201b60201c565b62000181816200032060201b60201c565b5050508073ffffffffffffffffffffffffffffffffffffffff166101408173ffffffffffffffffffffffffffffffffffffffff168152505050620001cb816200036760201b60201c565b505062001370565b60606040518060400160405280600181526020017f3100000000000000000000000000000000000000000000000000000000000000815250905090565b600083838346306040516020016200022d95949392919062000f73565b6040516020818303038152906040528051906020012090509392505050565b7fc565b045403dc03c2eea82b81a0465edad9e2e7fc4d97e11421c209da93d7a93600454826040516200028192919062000fd0565b60405180910390a18060048190555050565b60008111620002d9576040517f08c379a0000000000000000000000000000000000000000000000000000000008152600401620002d09062001084565b60405180910390fd5b7f7e3f7f0708a84de9203036abaa450dccc85ad5ff52f78c170f3edb55cf5e8828600554826040516200030e92919062000fd0565b60405180910390a18060058190555050565b7fccb45da8d5717e6c4544694297c4ba5cf151d455c9bb0ed4fc7a38411bc05461600654826040516200035592919062000fd0565b60405180910390a18060068190555050565b620003776200054660201b60201c565b811115620003bc576040517f08c379a0000000000000000000000000000000000000000000000000000000008152600401620003b39062001142565b60405180910390fd5b6000620003ce6200054f60201b60201c565b905060008114158015620003ea57506000600960000180549050145b15620004ea5760096000016040518060400160405280600063ffffffff1681526020016200042384620005a560201b62001e221760201c565b7bffffffffffffffffffffffffffffffffffffffffffffffffffffffff168152509080600181540180825580915050600190039060005260206000200160009091909190915060008201518160000160006101000a81548163ffffffff021916908363ffffffff16021790555060208201518160000160046101000a8154817bffffffffffffffffffffffffffffffffffffffffffffffffffffffff02191690837bffffffffffffffffffffffffffffffffffffffffffffffffffffffff16021790555050505b620005058260096200061360201b62001e8d1790919060201c565b50507f0553476bf02ef2726e8ce5ced78d63e26e602e4a2257b1f559418e24b463399781836040516200053a92919062000fd0565b60405180910390a15050565b60006064905090565b600080600960000180549050146200059c57620005786009620006a360201b62001efb1760201c565b7bffffffffffffffffffffffffffffffffffffffffffffffffffffffff16620005a0565b6008545b905090565b60007bffffffffffffffffffffffffffffffffffffffffffffffffffffffff80168211156200060b576040517f08c379a00000000000000000000000000000000000000000000000000000000081526004016200060290620011da565b60405180910390fd5b819050919050565b600080620006568460000162000634436200071960201b62001f651760201c565b6200064a86620005a560201b62001e221760201c565b6200076f60201b60201c565b817bffffffffffffffffffffffffffffffffffffffffffffffffffffffff169150807bffffffffffffffffffffffffffffffffffffffffffffffffffffffff169050915091509250929050565b60008082600001805490509050600081146200070e57620006dc83600001600183620006d091906200122b565b62000b1060201b60201c565b60000160049054906101000a90047bffffffffffffffffffffffffffffffffffffffffffffffffffffffff1662000711565b60005b915050919050565b600063ffffffff801682111562000767576040517f08c379a00000000000000000000000000000000000000000000000000000000081526004016200075e90620012dc565b60405180910390fd5b819050919050565b600080600085805490509050600081111562000a20576000620007a7876001846200079b91906200122b565b62000b1060201b60201c565b6040518060400160405290816000820160009054906101000a900463ffffffff1663ffffffff1663ffffffff1681526020016000820160049054906101000a90047bffffffffffffffffffffffffffffffffffffffffffffffffffffffff167bffffffffffffffffffffffffffffffffffffffffffffffffffffffff167bffffffffffffffffffffffffffffffffffffffffffffffffffffffff168152505090508563ffffffff16816000015163ffffffff1611156200089e576040517f08c379a000000000000000000000000000000000000000000000000000000000815260040162000895906200134e565b60405180910390fd5b8563ffffffff16816000015163ffffffff16036200092e5784620008d788600185620008cb91906200122b565b62000b1060201b60201c565b60000160046101000a8154817bffffffffffffffffffffffffffffffffffffffffffffffffffffffff02191690837bffffffffffffffffffffffffffffffffffffffffffffffffffffffff16021790555062000a0e565b8660405180604001604052808863ffffffff168152602001877bffffffffffffffffffffffffffffffffffffffffffffffffffffffff168152509080600181540180825580915050600190039060005260206000200160009091909190915060008201518160000160006101000a81548163ffffffff021916908363ffffffff16021790555060208201518160000160046101000a8154817bffffffffffffffffffffffffffffffffffffffffffffffffffffffff02191690837bffffffffffffffffffffffffffffffffffffffffffffffffffffffff16021790555050505b80602001518593509350505062000b08565b8560405180604001604052808763ffffffff168152602001867bffffffffffffffffffffffffffffffffffffffffffffffffffffffff168152509080600181540180825580915050600190039060005260206000200160009091909190915060008201518160000160006101000a81548163ffffffff021916908363ffffffff16021790555060208201518160000160046101000a8154817bffffffffffffffffffffffffffffffffffffffffffffffffffffffff02191690837bffffffffffffffffffffffffffffffffffffffffffffffffffffffff160217905550505060008492509250505b935093915050565b60008260005281602060002001905092915050565b600080fd5b600073ffffffffffffffffffffffffffffffffffffffff82169050919050565b600062000b578262000b2a565b9050919050565b600062000b6b8262000b4a565b9050919050565b62000b7d8162000b5e565b811462000b8957600080fd5b50565b60008151905062000b9d8162000b72565b92915050565b60006020828403121562000bbc5762000bbb62000b25565b5b600062000bcc8482850162000b8c565b91505092915050565b600081519050919050565b7f4e487b7100000000000000000000000000000000000000000000000000000000600052604160045260246000fd5b7f4e487b7100000000000000000000000000000000000000000000000000000000600052602260045260246000fd5b6000600282049050600182168062000c5757607f821691505b60208210810362000c6d5762000c6c62000c0f565b5b50919050565b60008190508160005260206000209050919050565b60006020601f8301049050919050565b600082821b905092915050565b60006008830262000cd77fffffffffffffffffffffffffffffffffffffffffffffffffffffffffffffffff8262000c98565b62000ce3868362000c98565b95508019841693508086168417925050509392505050565b6000819050919050565b6000819050919050565b600062000d3062000d2a62000d248462000cfb565b62000d05565b62000cfb565b9050919050565b6000819050919050565b62000d4c8362000d0f565b62000d6462000d5b8262000d37565b84845462000ca5565b825550505050565b600090565b62000d7b62000d6c565b62000d8881848462000d41565b505050565b5b8181101562000db05762000da460008262000d71565b60018101905062000d8e565b5050565b601f82111562000dff5762000dc98162000c73565b62000dd48462000c88565b8101602085101562000de4578190505b62000dfc62000df38562000c88565b83018262000d8d565b50505b505050565b600082821c905092915050565b600062000e246000198460080262000e04565b1980831691505092915050565b600062000e3f838362000e11565b9150826002028217905092915050565b62000e5a8262000bd5565b67ffffffffffffffff81111562000e765762000e7562000be0565b5b62000e82825462000c3e565b62000e8f82828562000db4565b600060209050601f83116001811462000ec7576000841562000eb2578287015190505b62000ebe858262000e31565b86555062000f2e565b601f19841662000ed78662000c73565b60005b8281101562000f015784890151825560018201915060208501945060208101905062000eda565b8683101562000f21578489015162000f1d601f89168262000e11565b8355505b6001600288020188555050505b505050505050565b6000819050919050565b62000f4b8162000f36565b82525050565b62000f5c8162000cfb565b82525050565b62000f6d8162000b4a565b82525050565b600060a08201905062000f8a600083018862000f40565b62000f99602083018762000f40565b62000fa8604083018662000f40565b62000fb7606083018562000f51565b62000fc6608083018462000f62565b9695505050505050565b600060408201905062000fe7600083018562000f51565b62000ff6602083018462000f51565b9392505050565b600082825260208201905092915050565b7f476f7665726e6f7253657474696e67733a20766f74696e6720706572696f642060008201527f746f6f206c6f7700000000000000000000000000000000000000000000000000602082015250565b60006200106c60278362000ffd565b915062001079826200100e565b604082019050919050565b600060208201905081810360008301526200109f816200105d565b9050919050565b7f476f7665726e6f72566f74657351756f72756d4672616374696f6e3a2071756f60008201527f72756d4e756d657261746f72206f7665722071756f72756d44656e6f6d696e6160208201527f746f720000000000000000000000000000000000000000000000000000000000604082015250565b60006200112a60438362000ffd565b91506200113782620010a6565b606082019050919050565b600060208201905081810360008301526200115d816200111b565b9050919050565b7f53616665436173743a2076616c756520646f65736e27742066697420696e203260008201527f3234206269747300000000000000000000000000000000000000000000000000602082015250565b6000620011c260278362000ffd565b9150620011cf8262001164565b604082019050919050565b60006020820190508181036000830152620011f581620011b3565b9050919050565b7f4e487b7100000000000000000000000000000000000000000000000000000000600052601160045260246000fd5b6000620012388262000cfb565b9150620012458362000cfb565b925082820390508181111562001260576200125f620011fc565b5b92915050565b7f53616665436173743a2076616c756520646f65736e27742066697420696e203360008201527f3220626974730000000000000000000000000000000000000000000000000000602082015250565b6000620012c460268362000ffd565b9150620012d18262001266565b604082019050919050565b60006020820190508181036000830152620012f781620012b5565b9050919050565b7f436865636b706f696e743a20696e76616c6964206b6579000000000000000000600082015250565b60006200133660178362000ffd565b91506200134382620012fe565b602082019050919050565b60006020820190508181036000830152620013698162001327565b9050919050565b60805160a05160c05160e051610100516101205161014051615ee7620013d960003960008181611e00015281816129a10152612b6901526000613065015260006130a70152600061308601526000612fbb015260006130110152600061303a0152615ee76000f3fe60806040526004361061021e5760003560e01c806370b0f66011610123578063c28bc2fa116100ab578063eb9019d41161006f578063eb9019d4146108ed578063ece40cc11461092a578063f23a6e6114610953578063f8ce560a14610990578063fc0c546a146109cd57610264565b8063c28bc2fa14610815578063c59057e414610831578063dd4e2ba51461086e578063deaaa7cc14610899578063ea0217cf146108c457610264565b80639a802a6d116100f25780639a802a6d14610708578063a7713a7014610745578063b58131b014610770578063bc197c811461079b578063c01f9e37146107d857610264565b806370b0f6601461063a5780637b3c71d3146106635780637d5e81e2146106a057806397c3d334146106dd57610264565b80633932abb1116101a6578063544ffc9c11610175578063544ffc9c1461051957806354fd4d501461055857806356781388146105835780635f398a14146105c057806360c4247f146105fd57610264565b80633932abb1146104375780633bccf4fd146104625780633e4f49e61461049f57806343859632146104dc57610264565b806306fdde03116101ed57806306fdde0314610337578063150b7a02146103625780632656227d1461039f5780632d63f693146103cf5780632fe3e2611461040c57610264565b806301ffc9a71461026957806302a251a3146102a657806303420181146102d157806306f3f9e61461030e57610264565b36610264573073ffffffffffffffffffffffffffffffffffffffff166102426109f8565b73ffffffffffffffffffffffffffffffffffffffff161461026257600080fd5b005b600080fd5b34801561027557600080fd5b50610290600480360381019061028b9190613811565b610a00565b60405161029d9190613859565b60405180910390f35b3480156102b257600080fd5b506102bb610b65565b6040516102c8919061388d565b60405180910390f35b3480156102dd57600080fd5b506102f860048036038101906102f39190613ae9565b610b74565b604051610305919061388d565b60405180910390f35b34801561031a57600080fd5b5061033560048036038101906103309190613bc7565b610c59565b005b34801561034357600080fd5b5061034c610d50565b6040516103599190613c73565b60405180910390f35b34801561036e57600080fd5b5061038960048036038101906103849190613cf3565b610de2565b6040516103969190613d85565b60405180910390f35b6103b960048036038101906103b49190614007565b610df6565b6040516103c6919061388d565b60405180910390f35b3480156103db57600080fd5b506103f660048036038101906103f19190613bc7565b610f43565b604051610403919061388d565b60405180910390f35b34801561041857600080fd5b50610421610fb1565b60405161042e91906140d1565b60405180910390f35b34801561044357600080fd5b5061044c610fd5565b604051610459919061388d565b60405180910390f35b34801561046e57600080fd5b50610489600480360381019061048491906140ec565b610fe4565b604051610496919061388d565b60405180910390f35b3480156104ab57600080fd5b506104c660048036038101906104c19190613bc7565b61106e565b6040516104d391906141de565b60405180910390f35b3480156104e857600080fd5b5061050360048036038101906104fe91906141f9565b611182565b6040516105109190613859565b60405180910390f35b34801561052557600080fd5b50610540600480360381019061053b9190613bc7565b6111ed565b60405161054f93929190614239565b60405180910390f35b34801561056457600080fd5b5061056d611225565b60405161057a9190613c73565b60405180910390f35b34801561058f57600080fd5b506105aa60048036038101906105a59190614270565b611262565b6040516105b7919061388d565b60405180910390f35b3480156105cc57600080fd5b506105e760048036038101906105e291906142b0565b611293565b6040516105f4919061388d565b60405180910390f35b34801561060957600080fd5b50610624600480360381019061061f9190613bc7565b6112fd565b604051610631919061388d565b60405180910390f35b34801561064657600080fd5b50610661600480360381019061065c9190613bc7565b611449565b005b34801561066f57600080fd5b5061068a60048036038101906106859190614354565b611540565b604051610697919061388d565b60405180910390f35b3480156106ac57600080fd5b506106c760048036038101906106c29190614469565b6115a8565b6040516106d4919061388d565b60405180910390f35b3480156106e957600080fd5b506106f26118af565b6040516106ff919061388d565b60405180910390f35b34801561071457600080fd5b5061072f600480360381019061072a9190614540565b6118b8565b60405161073c919061388d565b60405180910390f35b34801561075157600080fd5b5061075a6118ce565b604051610767919061388d565b60405180910390f35b34801561077c57600080fd5b50610785611915565b604051610792919061388d565b60405180910390f35b3480156107a757600080fd5b506107c260048036038101906107bd91906145af565b611924565b6040516107cf9190613d85565b60405180910390f35b3480156107e457600080fd5b506107ff60048036038101906107fa9190613bc7565b611939565b60405161080c919061388d565b60405180910390f35b61082f600480360381019061082a91906146d4565b6119a7565b005b34801561083d57600080fd5b5061085860048036038101906108539190614007565b611b30565b604051610865919061388d565b60405180910390f35b34801561087a57600080fd5b50610883611b6c565b6040516108909190613c73565b60405180910390f35b3480156108a557600080fd5b506108ae611ba9565b6040516108bb91906140d1565b60405180910390f35b3480156108d057600080fd5b506108eb60048036038101906108e69190613bc7565b611bcd565b005b3480156108f957600080fd5b50610914600480360381019061090f9190614748565b611cc4565b604051610921919061388d565b60405180910390f35b34801561093657600080fd5b50610951600480360381019061094c9190613bc7565b611ce0565b005b34801561095f57600080fd5b5061097a60048036038101906109759190614788565b611dd7565b6040516109879190613d85565b60405180910390f35b34801561099c57600080fd5b506109b760048036038101906109b29190613bc7565b611dec565b6040516109c4919061388d565b60405180910390f35b3480156109d957600080fd5b506109e2611dfe565b6040516109ef919061487e565b60405180910390f35b600030905090565b6000639a802a6d60e01b630342018160e01b635f398a1460e01b7f79dd796f000000000000000000000000000000000000000000000000000000001818187bffffffffffffffffffffffffffffffffffffffffffffffffffffffff1916827bffffffffffffffffffffffffffffffffffffffffffffffffffffffff19161480610ae657507f79dd796f000000000000000000000000000000000000000000000000000000007bffffffffffffffffffffffffffffffffffffffffffffffffffffffff1916827bffffffffffffffffffffffffffffffffffffffffffffffffffffffff1916145b80610b4e57507f4e2312e0000000000000000000000000000000000000000000000000000000007bffffffffffffffffffffffffffffffffffffffffffffffffffffffff1916827bffffffffffffffffffffffffffffffffffffffffffffffffffffffff1916145b80610b5e5750610b5d82611fb8565b5b9050919050565b6000610b6f612022565b905090565b600080610bf7610bef7fb3b3f3b703cd84ce352197dcff232b1b5d3cfb2025ce47cf04742d0651f1af888c8c8c8c604051610bb09291906148c9565b60405180910390208b80519060200120604051602001610bd49594939291906148f1565b6040516020818303038152906040528051906020012061202c565b868686612046565b9050610c4a8a828b8b8b8080601f016020809104026020016040519081016040528093929190818152602001838380828437600081840152601f19601f820116905080830192505050505050508a612071565b91505098975050505050505050565b610c616109f8565b73ffffffffffffffffffffffffffffffffffffffff16610c7f61222d565b73ffffffffffffffffffffffffffffffffffffffff1614610cd5576040517f08c379a0000000000000000000000000000000000000000000000000000000008152600401610ccc90614990565b60405180910390fd5b3073ffffffffffffffffffffffffffffffffffffffff16610cf46109f8565b73ffffffffffffffffffffffffffffffffffffffff1614610d44576000610d19612235565b604051610d279291906148c9565b604051809103902090505b80610d3d6002612242565b03610d3257505b610d4d8161231e565b50565b606060008054610d5f906149df565b80601f0160208091040260200160405190810160405280929190818152602001828054610d8b906149df565b8015610dd85780601f10610dad57610100808354040283529160200191610dd8565b820191906000526020600020905b815481529060010190602001808311610dbb57829003601f168201915b5050505050905090565b600063150b7a0260e01b9050949350505050565b600080610e0586868686611b30565b90506000610e128261106e565b905060046007811115610e2857610e27614167565b5b816007811115610e3b57610e3a614167565b5b1480610e6b575060056007811115610e5657610e55614167565b5b816007811115610e6957610e68614167565b5b145b610eaa576040517f08c379a0000000000000000000000000000000000000000000000000000000008152600401610ea190614a82565b60405180910390fd5b600180600084815260200190815260200160002060020160006101000a81548160ff0219169083151502179055507f712ae1383f79ac853f8d882153778e0260ef8f03b504e2866e0593e04d2b291f82604051610f07919061388d565b60405180910390a1610f1c82888888886124d2565b610f2982888888886125b5565b610f3682888888886126c4565b8192505050949350505050565b6000610fa0600160008481526020019081526020016000206000016040518060200160405290816000820160009054906101000a900467ffffffffffffffff1667ffffffffffffffff1667ffffffffffffffff168152505061271f565b67ffffffffffffffff169050919050565b7fb3b3f3b703cd84ce352197dcff232b1b5d3cfb2025ce47cf04742d0651f1af8881565b6000610fdf61272d565b905090565b60008061104561103d7f150214d74d59b7d1e90c73fc22ef3d991dd0a76b046543d4d80ab92d2a50328f898960405160200161102293929190614aa2565b6040516020818303038152906040528051906020012061202c565b868686612046565b905061106287828860405180602001604052806000815250612737565b91505095945050505050565b6000806001600084815260200190815260200160002090508060020160009054906101000a900460ff16156110a757600791505061117d565b8060020160019054906101000a900460ff16156110c857600291505061117d565b60006110d384610f43565b905060008103611118576040517f08c379a000000000000000000000000000000000000000000000000000000000815260040161110f90614b25565b60405180910390fd5b43811061112a5760009250505061117d565b600061113585611939565b905043811061114a576001935050505061117d565b61115385612757565b801561116457506111638561279e565b5b15611175576004935050505061117d565b600393505050505b919050565b60006007600084815260200190815260200160002060030160008373ffffffffffffffffffffffffffffffffffffffff1673ffffffffffffffffffffffffffffffffffffffff16815260200190815260200160002060009054906101000a900460ff16905092915050565b600080600080600760008681526020019081526020016000209050806000015481600101548260020154935093509350509193909250565b60606040518060400160405280600181526020017f3100000000000000000000000000000000000000000000000000000000000000815250905090565b60008061126d61222d565b905061128a84828560405180602001604052806000815250612737565b91505092915050565b60008061129e61222d565b90506112f187828888888080601f016020809104026020016040519081016040528093929190818152602001838380828437600081840152601f19601f8201169050808301925050505050505087612071565b91505095945050505050565b60008060096000018054905090506000810361131e57600854915050611444565b600060096000016001836113329190614b74565b8154811061134357611342614ba8565b5b906000526020600020016040518060400160405290816000820160009054906101000a900463ffffffff1663ffffffff1663ffffffff1681526020016000820160049054906101000a90047bffffffffffffffffffffffffffffffffffffffffffffffffffffffff167bffffffffffffffffffffffffffffffffffffffffffffffffffffffff167bffffffffffffffffffffffffffffffffffffffffffffffffffffffff1681525050905083816000015163ffffffff161161142b5780602001517bffffffffffffffffffffffffffffffffffffffffffffffffffffffff1692505050611444565b61143f8460096127c990919063ffffffff16565b925050505b919050565b6114516109f8565b73ffffffffffffffffffffffffffffffffffffffff1661146f61222d565b73ffffffffffffffffffffffffffffffffffffffff16146114c5576040517f08c379a00000000000000000000000000000000000000000000000000000000081526004016114bc90614990565b60405180910390fd5b3073ffffffffffffffffffffffffffffffffffffffff166114e46109f8565b73ffffffffffffffffffffffffffffffffffffffff1614611534576000611509612235565b6040516115179291906148c9565b604051809103902090505b8061152d6002612242565b0361152257505b61153d816128b8565b50565b60008061154b61222d565b905061159d86828787878080601f016020809104026020016040519081016040528093929190818152602001838380828437600081840152601f19601f82011690508083019250505050505050612737565b915050949350505050565b60006115b2611915565b6115cf6115bd61222d565b6001436115ca9190614b74565b611cc4565b1015611610576040517f08c379a000000000000000000000000000000000000000000000000000000000815260040161160790614c49565b60405180910390fd5b60006116258686868680519060200120611b30565b9050845186511461166b576040517f08c379a000000000000000000000000000000000000000000000000000000000815260040161166290614cdb565b60405180910390fd5b83518651146116af576040517f08c379a00000000000000000000000000000000000000000000000000000000081526004016116a690614cdb565b60405180910390fd5b60008651116116f3576040517f08c379a00000000000000000000000000000000000000000000000000000000081526004016116ea90614d47565b60405180910390fd5b6000600160008381526020019081526020016000209050611753816000016040518060200160405290816000820160009054906101000a900467ffffffffffffffff1667ffffffffffffffff1667ffffffffffffffff16815250506128fd565b611792576040517f08c379a000000000000000000000000000000000000000000000000000000000815260040161178990614dd9565b60405180910390fd5b60006117a461179f610fd5565b612917565b6117ad43612917565b6117b79190614e0d565b905060006117cb6117c6610b65565b612917565b826117d69190614e0d565b90506117ee828460000161296e90919063ffffffff16565b611804818460010161296e90919063ffffffff16565b7f7d84a6263ae0d98d3329bd7b46bb4e8d6f98cd35a7adb45c274c8b7fd5ebd5e08461182e61222d565b8b8b8d5167ffffffffffffffff81111561184b5761184a613988565b5b60405190808252806020026020018201604052801561187e57816020015b60608152602001906001900390816118695790505b508c88888e60405161189899989796959493929190615228565b60405180910390a183945050505050949350505050565b60006064905090565b60006118c584848461299d565b90509392505050565b6000806009600001805490501461190c576118e96009611efb565b7bffffffffffffffffffffffffffffffffffffffffffffffffffffffff16611910565b6008545b905090565b600061191f612a44565b905090565b600063bc197c8160e01b905095945050505050565b6000611996600160008481526020019081526020016000206001016040518060200160405290816000820160009054906101000a900467ffffffffffffffff1667ffffffffffffffff1667ffffffffffffffff168152505061271f565b67ffffffffffffffff169050919050565b6119af6109f8565b73ffffffffffffffffffffffffffffffffffffffff166119cd61222d565b73ffffffffffffffffffffffffffffffffffffffff1614611a23576040517f08c379a0000000000000000000000000000000000000000000000000000000008152600401611a1a90614990565b60405180910390fd5b3073ffffffffffffffffffffffffffffffffffffffff16611a426109f8565b73ffffffffffffffffffffffffffffffffffffffff1614611a92576000611a67612235565b604051611a759291906148c9565b604051809103902090505b80611a8b6002612242565b03611a8057505b6000808573ffffffffffffffffffffffffffffffffffffffff16858585604051611abd9291906148c9565b60006040518083038185875af1925050503d8060008114611afa576040519150601f19603f3d011682016040523d82523d6000602084013e611aff565b606091505b5091509150611b278282604051806060016040528060288152602001615e6360289139612a4e565b50505050505050565b600084848484604051602001611b4994939291906152d8565b6040516020818303038152906040528051906020012060001c9050949350505050565b60606040518060400160405280602081526020017f737570706f72743d627261766f2671756f72756d3d666f722c6162737461696e815250905090565b7f150214d74d59b7d1e90c73fc22ef3d991dd0a76b046543d4d80ab92d2a50328f81565b611bd56109f8565b73ffffffffffffffffffffffffffffffffffffffff16611bf361222d565b73ffffffffffffffffffffffffffffffffffffffff1614611c49576040517f08c379a0000000000000000000000000000000000000000000000000000000008152600401611c4090614990565b60405180910390fd5b3073ffffffffffffffffffffffffffffffffffffffff16611c686109f8565b73ffffffffffffffffffffffffffffffffffffffff1614611cb8576000611c8d612235565b604051611c9b9291906148c9565b604051809103902090505b80611cb16002612242565b03611ca657505b611cc181612a70565b50565b6000611cd88383611cd3612af8565b61299d565b905092915050565b611ce86109f8565b73ffffffffffffffffffffffffffffffffffffffff16611d0661222d565b73ffffffffffffffffffffffffffffffffffffffff1614611d5c576040517f08c379a0000000000000000000000000000000000000000000000000000000008152600401611d5390614990565b60405180910390fd5b3073ffffffffffffffffffffffffffffffffffffffff16611d7b6109f8565b73ffffffffffffffffffffffffffffffffffffffff1614611dcb576000611da0612235565b604051611dae9291906148c9565b604051809103902090505b80611dc46002612242565b03611db957505b611dd481612b0f565b50565b600063f23a6e6160e01b905095945050505050565b6000611df782612b54565b9050919050565b7f000000000000000000000000000000000000000000000000000000000000000081565b60007bffffffffffffffffffffffffffffffffffffffffffffffffffffffff8016821115611e85576040517f08c379a0000000000000000000000000000000000000000000000000000000008152600401611e7c906153a4565b60405180910390fd5b819050919050565b600080611eae84600001611ea043611f65565b611ea986611e22565b612c1c565b817bffffffffffffffffffffffffffffffffffffffffffffffffffffffff169150807bffffffffffffffffffffffffffffffffffffffffffffffffffffffff169050915091509250929050565b6000808260000180549050905060008114611f5a57611f2983600001600183611f249190614b74565b612fa2565b60000160049054906101000a90047bffffffffffffffffffffffffffffffffffffffffffffffffffffffff16611f5d565b60005b915050919050565b600063ffffffff8016821115611fb0576040517f08c379a0000000000000000000000000000000000000000000000000000000008152600401611fa790615436565b60405180910390fd5b819050919050565b60007f01ffc9a7000000000000000000000000000000000000000000000000000000007bffffffffffffffffffffffffffffffffffffffffffffffffffffffff1916827bffffffffffffffffffffffffffffffffffffffffffffffffffffffff1916149050919050565b6000600554905090565b600061203f612039612fb7565b836130d1565b9050919050565b600080600061205787878787613104565b91509150612064816131e6565b8192505050949350505050565b6000806001600088815260200190815260200160002090506001600781111561209d5761209c614167565b5b6120a68861106e565b60078111156120b8576120b7614167565b5b146120f8576040517f08c379a00000000000000000000000000000000000000000000000000000000081526004016120ef906154c8565b60405180910390fd5b600061215787612147846000016040518060200160405290816000820160009054906101000a900467ffffffffffffffff1667ffffffffffffffff1667ffffffffffffffff168152505061271f565b67ffffffffffffffff168661299d565b9050612166888888848861334c565b60008451036121c8578673ffffffffffffffffffffffffffffffffffffffff167fb8e138887d0aa13bab447e82de9d5c1777041ecd21ca36ba824ff1e6c07ddda4898884896040516121bb94939291906154e8565b60405180910390a261221f565b8673ffffffffffffffffffffffffffffffffffffffff167fe2babfbac5889a709b63bb7f598b324e08bc5a4fb9ec647fb3cbc9ec07eb8712898884898960405161221695949392919061557e565b60405180910390a25b809250505095945050505050565b600033905090565b3660008036915091509091565b600061224d82613550565b15612284576040517f3db2a12a00000000000000000000000000000000000000000000000000000000815260040160405180910390fd5b60008260000160009054906101000a9004600f0b905082600101600082600f0b600f0b815260200190815260200160002054915082600101600082600f0b600f0b815260200190815260200160002060009055600181018360000160006101000a8154816fffffffffffffffffffffffffffffffff0219169083600f0b6fffffffffffffffffffffffffffffffff16021790555050919050565b6123266118af565b811115612368576040517f08c379a000000000000000000000000000000000000000000000000000000000815260040161235f90615677565b60405180910390fd5b60006123726118ce565b90506000811415801561238d57506000600960000180549050145b1561247f5760096000016040518060400160405280600063ffffffff1681526020016123b884611e22565b7bffffffffffffffffffffffffffffffffffffffffffffffffffffffff168152509080600181540180825580915050600190039060005260206000200160009091909190915060008201518160000160006101000a81548163ffffffff021916908363ffffffff16021790555060208201518160000160046101000a8154817bffffffffffffffffffffffffffffffffffffffffffffffffffffffff02191690837bffffffffffffffffffffffffffffffffffffffffffffffffffffffff16021790555050505b612493826009611e8d90919063ffffffff16565b50507f0553476bf02ef2726e8ce5ced78d63e26e602e4a2257b1f559418e24b463399781836040516124c6929190615697565b60405180910390a15050565b3073ffffffffffffffffffffffffffffffffffffffff166124f16109f8565b73ffffffffffffffffffffffffffffffffffffffff16146125ae5760005b84518110156125ac573073ffffffffffffffffffffffffffffffffffffffff1685828151811061254257612541614ba8565b5b602002602001015173ffffffffffffffffffffffffffffffffffffffff160361259b5761259a83828151811061257b5761257a614ba8565b5b602002602001015180519060200120600261358590919063ffffffff16565b5b806125a5906156c0565b905061250f565b505b5050505050565b6000604051806060016040528060278152602001615e8b60279139905060005b85518110156126bb576000808783815181106125f4576125f3614ba8565b5b602002602001015173ffffffffffffffffffffffffffffffffffffffff1687848151811061262557612624614ba8565b5b60200260200101518785815181106126405761263f614ba8565b5b60200260200101516040516126559190615739565b60006040518083038185875af1925050503d8060008114612692576040519150601f19603f3d011682016040523d82523d6000602084013e612697565b606091505b50915091506126a7828286612a4e565b505050806126b4906156c0565b90506125d5565b50505050505050565b3073ffffffffffffffffffffffffffffffffffffffff166126e36109f8565b73ffffffffffffffffffffffffffffffffffffffff1614612718576127086002613550565b612717576127166002613601565b5b5b5050505050565b600081600001519050919050565b6000600454905090565b600061274d85858585612748612af8565b612071565b9050949350505050565b600080600760008481526020019081526020016000209050806002015481600101546127839190615750565b61279461278f85610f43565b611dec565b1115915050919050565b6000806007600084815260200190815260200160002090508060000154816001015411915050919050565b600043821061280d576040517f08c379a0000000000000000000000000000000000000000000000000000000008152600401612804906157d0565b60405180910390fd5b600061281883611f65565b905060008460000180549050905060006128388660000184600085613682565b90506000811461288c5761285b866000016001836128569190614b74565b612fa2565b60000160049054906101000a90047bffffffffffffffffffffffffffffffffffffffffffffffffffffffff1661288f565b60005b7bffffffffffffffffffffffffffffffffffffffffffffffffffffffff16935050505092915050565b7fc565b045403dc03c2eea82b81a0465edad9e2e7fc4d97e11421c209da93d7a93600454826040516128eb929190615697565b60405180910390a18060048190555050565b600080826000015167ffffffffffffffff16149050919050565b600067ffffffffffffffff8016821115612966576040517f08c379a000000000000000000000000000000000000000000000000000000000815260040161295d90615862565b60405180910390fd5b819050919050565b808260000160006101000a81548167ffffffffffffffff021916908367ffffffffffffffff1602179055505050565b60007f000000000000000000000000000000000000000000000000000000000000000073ffffffffffffffffffffffffffffffffffffffff16633a46b1a885856040518363ffffffff1660e01b81526004016129fa929190615882565b602060405180830381865afa158015612a17573d6000803e3d6000fd5b505050506040513d601f19601f82011682018060405250810190612a3b91906158c0565b90509392505050565b6000600654905090565b60608315612a5e57829050612a69565b612a6883836136f5565b5b9392505050565b60008111612ab3576040517f08c379a0000000000000000000000000000000000000000000000000000000008152600401612aaa9061595f565b60405180910390fd5b7f7e3f7f0708a84de9203036abaa450dccc85ad5ff52f78c170f3edb55cf5e882860055482604051612ae6929190615697565b60405180910390a18060058190555050565b606060405180602001604052806000815250905090565b7fccb45da8d5717e6c4544694297c4ba5cf151d455c9bb0ed4fc7a38411bc0546160065482604051612b42929190615697565b60405180910390a18060068190555050565b6000612b5e6118af565b612b67836112fd565b7f000000000000000000000000000000000000000000000000000000000000000073ffffffffffffffffffffffffffffffffffffffff16638e539e8c856040518263ffffffff1660e01b8152600401612bc0919061388d565b602060405180830381865afa158015612bdd573d6000803e3d6000fd5b505050506040513d601f19601f82011682018060405250810190612c0191906158c0565b612c0b919061597f565b612c1591906159f0565b9050919050565b6000806000858054905090506000811115612eb2576000612c4987600184612c449190614b74565b612fa2565b6040518060400160405290816000820160009054906101000a900463ffffffff1663ffffffff1663ffffffff1681526020016000820160049054906101000a90047bffffffffffffffffffffffffffffffffffffffffffffffffffffffff167bffffffffffffffffffffffffffffffffffffffffffffffffffffffff167bffffffffffffffffffffffffffffffffffffffffffffffffffffffff168152505090508563ffffffff16816000015163ffffffff161115612d3d576040517f08c379a0000000000000000000000000000000000000000000000000000000008152600401612d3490615a6d565b60405180910390fd5b8563ffffffff16816000015163ffffffff1603612dc15784612d6b88600185612d669190614b74565b612fa2565b60000160046101000a8154817bffffffffffffffffffffffffffffffffffffffffffffffffffffffff02191690837bffffffffffffffffffffffffffffffffffffffffffffffffffffffff160217905550612ea1565b8660405180604001604052808863ffffffff168152602001877bffffffffffffffffffffffffffffffffffffffffffffffffffffffff168152509080600181540180825580915050600190039060005260206000200160009091909190915060008201518160000160006101000a81548163ffffffff021916908363ffffffff16021790555060208201518160000160046101000a8154817bffffffffffffffffffffffffffffffffffffffffffffffffffffffff02191690837bffffffffffffffffffffffffffffffffffffffffffffffffffffffff16021790555050505b806020015185935093505050612f9a565b8560405180604001604052808763ffffffff168152602001867bffffffffffffffffffffffffffffffffffffffffffffffffffffffff168152509080600181540180825580915050600190039060005260206000200160009091909190915060008201518160000160006101000a81548163ffffffff021916908363ffffffff16021790555060208201518160000160046101000a8154817bffffffffffffffffffffffffffffffffffffffffffffffffffffffff02191690837bffffffffffffffffffffffffffffffffffffffffffffffffffffffff160217905550505060008492509250505b935093915050565b60008260005281602060002001905092915050565b60007f000000000000000000000000000000000000000000000000000000000000000073ffffffffffffffffffffffffffffffffffffffff163073ffffffffffffffffffffffffffffffffffffffff1614801561303357507f000000000000000000000000000000000000000000000000000000000000000046145b15613060577f000000000000000000000000000000000000000000000000000000000000000090506130ce565b6130cb7f00000000000000000000000000000000000000000000000000000000000000007f00000000000000000000000000000000000000000000000000000000000000007f0000000000000000000000000000000000000000000000000000000000000000613745565b90505b90565b600082826040516020016130e6929190615b05565b60405160208183030381529060405280519060200120905092915050565b6000807f7fffffffffffffffffffffffffffffff5d576e7357a4501ddfe92f46681b20a08360001c111561313f5760006003915091506131dd565b6000600187878787604051600081526020016040526040516131649493929190615b3c565b6020604051602081039080840390855afa158015613186573d6000803e3d6000fd5b505050602060405103519050600073ffffffffffffffffffffffffffffffffffffffff168173ffffffffffffffffffffffffffffffffffffffff16036131d4576000600192509250506131dd565b80600092509250505b94509492505050565b600060048111156131fa576131f9614167565b5b81600481111561320d5761320c614167565b5b0315613349576001600481111561322757613226614167565b5b81600481111561323a57613239614167565b5b0361327a576040517f08c379a000000000000000000000000000000000000000000000000000000000815260040161327190615bcd565b60405180910390fd5b6002600481111561328e5761328d614167565b5b8160048111156132a1576132a0614167565b5b036132e1576040517f08c379a00000000000000000000000000000000000000000000000000000000081526004016132d890615c39565b60405180910390fd5b600360048111156132f5576132f4614167565b5b81600481111561330857613307614167565b5b03613348576040517f08c379a000000000000000000000000000000000000000000000000000000000815260040161333f90615ccb565b60405180910390fd5b5b50565b60006007600087815260200190815260200160002090508060030160008673ffffffffffffffffffffffffffffffffffffffff1673ffffffffffffffffffffffffffffffffffffffff16815260200190815260200160002060009054906101000a900460ff16156133f2576040517f08c379a00000000000000000000000000000000000000000000000000000000081526004016133e990615d5d565b60405180910390fd5b60018160030160008773ffffffffffffffffffffffffffffffffffffffff1673ffffffffffffffffffffffffffffffffffffffff16815260200190815260200160002060006101000a81548160ff021916908315150217905550600060028111156134605761345f614167565b5b60ff168460ff160361348c57828160000160008282546134809190615750565b92505081905550613548565b600160028111156134a05761349f614167565b5b60ff168460ff16036134cc57828160010160008282546134c09190615750565b92505081905550613547565b6002808111156134df576134de614167565b5b60ff168460ff160361350b57828160020160008282546134ff9190615750565b92505081905550613546565b6040517f08c379a000000000000000000000000000000000000000000000000000000000815260040161353d90615def565b60405180910390fd5b5b5b505050505050565b60008160000160009054906101000a9004600f0b600f0b8260000160109054906101000a9004600f0b600f0b13159050919050565b60008260000160109054906101000a9004600f0b90508183600101600083600f0b600f0b815260200190815260200160002081905550600181018360000160106101000a8154816fffffffffffffffffffffffffffffffff0219169083600f0b6fffffffffffffffffffffffffffffffff160217905550505050565b60008160000160006101000a8154816fffffffffffffffffffffffffffffffff0219169083600f0b6fffffffffffffffffffffffffffffffff16021790555060008160000160106101000a8154816fffffffffffffffffffffffffffffffff0219169083600f0b6fffffffffffffffffffffffffffffffff16021790555050565b60005b818310156136ea576000613699848461377f565b90508463ffffffff166136ac8783612fa2565b60000160009054906101000a900463ffffffff1663ffffffff1611156136d4578092506136e4565b6001816136e19190615750565b93505b50613685565b819050949350505050565b6000825111156137085781518083602001fd5b806040517f08c379a000000000000000000000000000000000000000000000000000000000815260040161373c9190613c73565b60405180910390fd5b60008383834630604051602001613760959493929190615e0f565b6040516020818303038152906040528051906020012090509392505050565b6000600282841861379091906159f0565b82841661379d9190615750565b905092915050565b6000604051905090565b600080fd5b600080fd5b60007fffffffff0000000000000000000000000000000000000000000000000000000082169050919050565b6137ee816137b9565b81146137f957600080fd5b50565b60008135905061380b816137e5565b92915050565b600060208284031215613827576138266137af565b5b6000613835848285016137fc565b91505092915050565b60008115159050919050565b6138538161383e565b82525050565b600060208201905061386e600083018461384a565b92915050565b6000819050919050565b61388781613874565b82525050565b60006020820190506138a2600083018461387e565b92915050565b6138b181613874565b81146138bc57600080fd5b50565b6000813590506138ce816138a8565b92915050565b600060ff82169050919050565b6138ea816138d4565b81146138f557600080fd5b50565b600081359050613907816138e1565b92915050565b600080fd5b600080fd5b600080fd5b60008083601f8401126139325761393161390d565b5b8235905067ffffffffffffffff81111561394f5761394e613912565b5b60208301915083600182028301111561396b5761396a613917565b5b9250929050565b600080fd5b6000601f19601f8301169050919050565b7f4e487b7100000000000000000000000000000000000000000000000000000000600052604160045260246000fd5b6139c082613977565b810181811067ffffffffffffffff821117156139df576139de613988565b5b80604052505050565b60006139f26137a5565b90506139fe82826139b7565b919050565b600067ffffffffffffffff821115613a1e57613a1d613988565b5b613a2782613977565b9050602081019050919050565b82818337600083830152505050565b6000613a56613a5184613a03565b6139e8565b905082815260208101848484011115613a7257613a71613972565b5b613a7d848285613a34565b509392505050565b600082601f830112613a9a57613a9961390d565b5b8135613aaa848260208601613a43565b91505092915050565b6000819050919050565b613ac681613ab3565b8114613ad157600080fd5b50565b600081359050613ae381613abd565b92915050565b60008060008060008060008060e0898b031215613b0957613b086137af565b5b6000613b178b828c016138bf565b9850506020613b288b828c016138f8565b975050604089013567ffffffffffffffff811115613b4957613b486137b4565b5b613b558b828c0161391c565b9650965050606089013567ffffffffffffffff811115613b7857613b776137b4565b5b613b848b828c01613a85565b9450506080613b958b828c016138f8565b93505060a0613ba68b828c01613ad4565b92505060c0613bb78b828c01613ad4565b9150509295985092959890939650565b600060208284031215613bdd57613bdc6137af565b5b6000613beb848285016138bf565b91505092915050565b600081519050919050565b600082825260208201905092915050565b60005b83811015613c2e578082015181840152602081019050613c13565b60008484015250505050565b6000613c4582613bf4565b613c4f8185613bff565b9350613c5f818560208601613c10565b613c6881613977565b840191505092915050565b60006020820190508181036000830152613c8d8184613c3a565b905092915050565b600073ffffffffffffffffffffffffffffffffffffffff82169050919050565b6000613cc082613c95565b9050919050565b613cd081613cb5565b8114613cdb57600080fd5b50565b600081359050613ced81613cc7565b92915050565b60008060008060808587031215613d0d57613d0c6137af565b5b6000613d1b87828801613cde565b9450506020613d2c87828801613cde565b9350506040613d3d878288016138bf565b925050606085013567ffffffffffffffff811115613d5e57613d5d6137b4565b5b613d6a87828801613a85565b91505092959194509250565b613d7f816137b9565b82525050565b6000602082019050613d9a6000830184613d76565b92915050565b600067ffffffffffffffff821115613dbb57613dba613988565b5b602082029050602081019050919050565b6000613ddf613dda84613da0565b6139e8565b90508083825260208201905060208402830185811115613e0257613e01613917565b5b835b81811015613e2b5780613e178882613cde565b845260208401935050602081019050613e04565b5050509392505050565b600082601f830112613e4a57613e4961390d565b5b8135613e5a848260208601613dcc565b91505092915050565b600067ffffffffffffffff821115613e7e57613e7d613988565b5b602082029050602081019050919050565b6000613ea2613e9d84613e63565b6139e8565b90508083825260208201905060208402830185811115613ec557613ec4613917565b5b835b81811015613eee5780613eda88826138bf565b845260208401935050602081019050613ec7565b5050509392505050565b600082601f830112613f0d57613f0c61390d565b5b8135613f1d848260208601613e8f565b91505092915050565b600067ffffffffffffffff821115613f4157613f40613988565b5b602082029050602081019050919050565b6000613f65613f6084613f26565b6139e8565b90508083825260208201905060208402830185811115613f8857613f87613917565b5b835b81811015613fcf57803567ffffffffffffffff811115613fad57613fac61390d565b5b808601613fba8982613a85565b85526020850194505050602081019050613f8a565b5050509392505050565b600082601f830112613fee57613fed61390d565b5b8135613ffe848260208601613f52565b91505092915050565b60008060008060808587031215614021576140206137af565b5b600085013567ffffffffffffffff81111561403f5761403e6137b4565b5b61404b87828801613e35565b945050602085013567ffffffffffffffff81111561406c5761406b6137b4565b5b61407887828801613ef8565b935050604085013567ffffffffffffffff811115614099576140986137b4565b5b6140a587828801613fd9565b92505060606140b687828801613ad4565b91505092959194509250565b6140cb81613ab3565b82525050565b60006020820190506140e660008301846140c2565b92915050565b600080600080600060a08688031215614108576141076137af565b5b6000614116888289016138bf565b9550506020614127888289016138f8565b9450506040614138888289016138f8565b935050606061414988828901613ad4565b925050608061415a88828901613ad4565b9150509295509295909350565b7f4e487b7100000000000000000000000000000000000000000000000000000000600052602160045260246000fd5b600881106141a7576141a6614167565b5b50565b60008190506141b882614196565b919050565b60006141c8826141aa565b9050919050565b6141d8816141bd565b82525050565b60006020820190506141f360008301846141cf565b92915050565b600080604083850312156142105761420f6137af565b5b600061421e858286016138bf565b925050602061422f85828601613cde565b9150509250929050565b600060608201905061424e600083018661387e565b61425b602083018561387e565b614268604083018461387e565b949350505050565b60008060408385031215614287576142866137af565b5b6000614295858286016138bf565b92505060206142a6858286016138f8565b9150509250929050565b6000806000806000608086880312156142cc576142cb6137af565b5b60006142da888289016138bf565b95505060206142eb888289016138f8565b945050604086013567ffffffffffffffff81111561430c5761430b6137b4565b5b6143188882890161391c565b9350935050606086013567ffffffffffffffff81111561433b5761433a6137b4565b5b61434788828901613a85565b9150509295509295909350565b6000806000806060858703121561436e5761436d6137af565b5b600061437c878288016138bf565b945050602061438d878288016138f8565b935050604085013567ffffffffffffffff8111156143ae576143ad6137b4565b5b6143ba8782880161391c565b925092505092959194509250565b600067ffffffffffffffff8211156143e3576143e2613988565b5b6143ec82613977565b9050602081019050919050565b600061440c614407846143c8565b6139e8565b90508281526020810184848401111561442857614427613972565b5b614433848285613a34565b509392505050565b600082601f8301126144505761444f61390d565b5b81356144608482602086016143f9565b91505092915050565b60008060008060808587031215614483576144826137af565b5b600085013567ffffffffffffffff8111156144a1576144a06137b4565b5b6144ad87828801613e35565b945050602085013567ffffffffffffffff8111156144ce576144cd6137b4565b5b6144da87828801613ef8565b935050604085013567ffffffffffffffff8111156144fb576144fa6137b4565b5b61450787828801613fd9565b925050606085013567ffffffffffffffff811115614528576145276137b4565b5b6145348782880161443b565b91505092959194509250565b600080600060608486031215614559576145586137af565b5b600061456786828701613cde565b9350506020614578868287016138bf565b925050604084013567ffffffffffffffff811115614599576145986137b4565b5b6145a586828701613a85565b9150509250925092565b600080600080600060a086880312156145cb576145ca6137af565b5b60006145d988828901613cde565b95505060206145ea88828901613cde565b945050604086013567ffffffffffffffff81111561460b5761460a6137b4565b5b61461788828901613ef8565b935050606086013567ffffffffffffffff811115614638576146376137b4565b5b61464488828901613ef8565b925050608086013567ffffffffffffffff811115614665576146646137b4565b5b61467188828901613a85565b9150509295509295909350565b60008083601f8401126146945761469361390d565b5b8235905067ffffffffffffffff8111156146b1576146b0613912565b5b6020830191508360018202830111156146cd576146cc613917565b5b9250929050565b600080600080606085870312156146ee576146ed6137af565b5b60006146fc87828801613cde565b945050602061470d878288016138bf565b935050604085013567ffffffffffffffff81111561472e5761472d6137b4565b5b61473a8782880161467e565b925092505092959194509250565b6000806040838503121561475f5761475e6137af565b5b600061476d85828601613cde565b925050602061477e858286016138bf565b9150509250929050565b600080600080600060a086880312156147a4576147a36137af565b5b60006147b288828901613cde565b95505060206147c388828901613cde565b94505060406147d4888289016138bf565b93505060606147e5888289016138bf565b925050608086013567ffffffffffffffff811115614806576148056137b4565b5b61481288828901613a85565b9150509295509295909350565b6000819050919050565b600061484461483f61483a84613c95565b61481f565b613c95565b9050919050565b600061485682614829565b9050919050565b60006148688261484b565b9050919050565b6148788161485d565b82525050565b6000602082019050614893600083018461486f565b92915050565b600081905092915050565b60006148b08385614899565b93506148bd838584613a34565b82840190509392505050565b60006148d68284866148a4565b91508190509392505050565b6148eb816138d4565b82525050565b600060a08201905061490660008301886140c2565b614913602083018761387e565b61492060408301866148e2565b61492d60608301856140c2565b61493a60808301846140c2565b9695505050505050565b7f476f7665726e6f723a206f6e6c79476f7665726e616e63650000000000000000600082015250565b600061497a601883613bff565b915061498582614944565b602082019050919050565b600060208201905081810360008301526149a98161496d565b9050919050565b7f4e487b7100000000000000000000000000000000000000000000000000000000600052602260045260246000fd5b600060028204905060018216806149f757607f821691505b602082108103614a0a57614a096149b0565b5b50919050565b7f476f7665726e6f723a2070726f706f73616c206e6f742073756363657373667560008201527f6c00000000000000000000000000000000000000000000000000000000000000602082015250565b6000614a6c602183613bff565b9150614a7782614a10565b604082019050919050565b60006020820190508181036000830152614a9b81614a5f565b9050919050565b6000606082019050614ab760008301866140c2565b614ac4602083018561387e565b614ad160408301846148e2565b949350505050565b7f476f7665726e6f723a20756e6b6e6f776e2070726f706f73616c206964000000600082015250565b6000614b0f601d83613bff565b9150614b1a82614ad9565b602082019050919050565b60006020820190508181036000830152614b3e81614b02565b9050919050565b7f4e487b7100000000000000000000000000000000000000000000000000000000600052601160045260246000fd5b6000614b7f82613874565b9150614b8a83613874565b9250828203905081811115614ba257614ba1614b45565b5b92915050565b7f4e487b7100000000000000000000000000000000000000000000000000000000600052603260045260246000fd5b7f476f7665726e6f723a2070726f706f73657220766f7465732062656c6f77207060008201527f726f706f73616c207468726573686f6c64000000000000000000000000000000602082015250565b6000614c33603183613bff565b9150614c3e82614bd7565b604082019050919050565b60006020820190508181036000830152614c6281614c26565b9050919050565b7f476f7665726e6f723a20696e76616c69642070726f706f73616c206c656e677460008201527f6800000000000000000000000000000000000000000000000000000000000000602082015250565b6000614cc5602183613bff565b9150614cd082614c69565b604082019050919050565b60006020820190508181036000830152614cf481614cb8565b9050919050565b7f476f7665726e6f723a20656d7074792070726f706f73616c0000000000000000600082015250565b6000614d31601883613bff565b9150614d3c82614cfb565b602082019050919050565b60006020820190508181036000830152614d6081614d24565b9050919050565b7f476f7665726e6f723a2070726f706f73616c20616c726561647920657869737460008201527f7300000000000000000000000000000000000000000000000000000000000000602082015250565b6000614dc3602183613bff565b9150614dce82614d67565b604082019050919050565b60006020820190508181036000830152614df281614db6565b9050919050565b600067ffffffffffffffff82169050919050565b6000614e1882614df9565b9150614e2383614df9565b9250828201905067ffffffffffffffff811115614e4357614e42614b45565b5b92915050565b614e5281613cb5565b82525050565b600081519050919050565b600082825260208201905092915050565b6000819050602082019050919050565b614e8d81613cb5565b82525050565b6000614e9f8383614e84565b60208301905092915050565b6000602082019050919050565b6000614ec382614e58565b614ecd8185614e63565b9350614ed883614e74565b8060005b83811015614f09578151614ef08882614e93565b9750614efb83614eab565b925050600181019050614edc565b5085935050505092915050565b600081519050919050565b600082825260208201905092915050565b6000819050602082019050919050565b614f4b81613874565b82525050565b6000614f5d8383614f42565b60208301905092915050565b6000602082019050919050565b6000614f8182614f16565b614f8b8185614f21565b9350614f9683614f32565b8060005b83811015614fc7578151614fae8882614f51565b9750614fb983614f69565b925050600181019050614f9a565b5085935050505092915050565b600081519050919050565b600082825260208201905092915050565b6000819050602082019050919050565b600082825260208201905092915050565b600061501c82613bf4565b6150268185615000565b9350615036818560208601613c10565b61503f81613977565b840191505092915050565b60006150568383615011565b905092915050565b6000602082019050919050565b600061507682614fd4565b6150808185614fdf565b93508360208202850161509285614ff0565b8060005b858110156150ce57848403895281516150af858261504a565b94506150ba8361505e565b925060208a01995050600181019050615096565b50829750879550505050505092915050565b600081519050919050565b600082825260208201905092915050565b6000819050602082019050919050565b600081519050919050565b600082825260208201905092915050565b60006151338261510c565b61513d8185615117565b935061514d818560208601613c10565b61515681613977565b840191505092915050565b600061516d8383615128565b905092915050565b6000602082019050919050565b600061518d826150e0565b61519781856150eb565b9350836020820285016151a9856150fc565b8060005b858110156151e557848403895281516151c68582615161565b94506151d183615175565b925060208a019950506001810190506151ad565b50829750879550505050505092915050565b600061521261520d61520884614df9565b61481f565b613874565b9050919050565b615222816151f7565b82525050565b60006101208201905061523e600083018c61387e565b61524b602083018b614e49565b818103604083015261525d818a614eb8565b905081810360608301526152718189614f76565b90508181036080830152615285818861506b565b905081810360a08301526152998187615182565b90506152a860c0830186615219565b6152b560e0830185615219565b8181036101008301526152c88184613c3a565b90509a9950505050505050505050565b600060808201905081810360008301526152f28187614eb8565b905081810360208301526153068186614f76565b9050818103604083015261531a8185615182565b905061532960608301846140c2565b95945050505050565b7f53616665436173743a2076616c756520646f65736e27742066697420696e203260008201527f3234206269747300000000000000000000000000000000000000000000000000602082015250565b600061538e602783613bff565b915061539982615332565b604082019050919050565b600060208201905081810360008301526153bd81615381565b9050919050565b7f53616665436173743a2076616c756520646f65736e27742066697420696e203360008201527f3220626974730000000000000000000000000000000000000000000000000000602082015250565b6000615420602683613bff565b915061542b826153c4565b604082019050919050565b6000602082019050818103600083015261544f81615413565b9050919050565b7f476f7665726e6f723a20766f7465206e6f742063757272656e746c792061637460008201527f6976650000000000000000000000000000000000000000000000000000000000602082015250565b60006154b2602383613bff565b91506154bd82615456565b604082019050919050565b600060208201905081810360008301526154e1816154a5565b9050919050565b60006080820190506154fd600083018761387e565b61550a60208301866148e2565b615517604083018561387e565b81810360608301526155298184613c3a565b905095945050505050565b600082825260208201905092915050565b60006155508261510c565b61555a8185615534565b935061556a818560208601613c10565b61557381613977565b840191505092915050565b600060a082019050615593600083018861387e565b6155a060208301876148e2565b6155ad604083018661387e565b81810360608301526155bf8185613c3a565b905081810360808301526155d38184615545565b90509695505050505050565b7f476f7665726e6f72566f74657351756f72756d4672616374696f6e3a2071756f60008201527f72756d4e756d657261746f72206f7665722071756f72756d44656e6f6d696e6160208201527f746f720000000000000000000000000000000000000000000000000000000000604082015250565b6000615661604383613bff565b915061566c826155df565b606082019050919050565b6000602082019050818103600083015261569081615654565b9050919050565b60006040820190506156ac600083018561387e565b6156b9602083018461387e565b9392505050565b60006156cb82613874565b91507fffffffffffffffffffffffffffffffffffffffffffffffffffffffffffffffff82036156fd576156fc614b45565b5b600182019050919050565b60006157138261510c565b61571d8185614899565b935061572d818560208601613c10565b80840191505092915050565b60006157458284615708565b915081905092915050565b600061575b82613874565b915061576683613874565b925082820190508082111561577e5761577d614b45565b5b92915050565b7f436865636b706f696e74733a20626c6f636b206e6f7420796574206d696e6564600082015250565b60006157ba602083613bff565b91506157c582615784565b602082019050919050565b600060208201905081810360008301526157e9816157ad565b9050919050565b7f53616665436173743a2076616c756520646f65736e27742066697420696e203660008201527f3420626974730000000000000000000000000000000000000000000000000000602082015250565b600061584c602683613bff565b9150615857826157f0565b604082019050919050565b6000602082019050818103600083015261587b8161583f565b9050919050565b60006040820190506158976000830185614e49565b6158a4602083018461387e565b9392505050565b6000815190506158ba816138a8565b92915050565b6000602082840312156158d6576158d56137af565b5b60006158e4848285016158ab565b91505092915050565b7f476f7665726e6f7253657474696e67733a20766f74696e6720706572696f642060008201527f746f6f206c6f7700000000000000000000000000000000000000000000000000602082015250565b6000615949602783613bff565b9150615954826158ed565b604082019050919050565b600060208201905081810360008301526159788161593c565b9050919050565b600061598a82613874565b915061599583613874565b92508282026159a381613874565b915082820484148315176159ba576159b9614b45565b5b5092915050565b7f4e487b7100000000000000000000000000000000000000000000000000000000600052601260045260246000fd5b60006159fb82613874565b9150615a0683613874565b925082615a1657615a156159c1565b5b828204905092915050565b7f436865636b706f696e743a20696e76616c6964206b6579000000000000000000600082015250565b6000615a57601783613bff565b9150615a6282615a21565b602082019050919050565b60006020820190508181036000830152615a8681615a4a565b9050919050565b600081905092915050565b7f1901000000000000000000000000000000000000000000000000000000000000600082015250565b6000615ace600283615a8d565b9150615ad982615a98565b600282019050919050565b6000819050919050565b615aff615afa82613ab3565b615ae4565b82525050565b6000615b1082615ac1565b9150615b1c8285615aee565b602082019150615b2c8284615aee565b6020820191508190509392505050565b6000608082019050615b5160008301876140c2565b615b5e60208301866148e2565b615b6b60408301856140c2565b615b7860608301846140c2565b95945050505050565b7f45434453413a20696e76616c6964207369676e61747572650000000000000000600082015250565b6000615bb7601883613bff565b9150615bc282615b81565b602082019050919050565b60006020820190508181036000830152615be681615baa565b9050919050565b7f45434453413a20696e76616c6964207369676e6174757265206c656e67746800600082015250565b6000615c23601f83613bff565b9150615c2e82615bed565b602082019050919050565b60006020820190508181036000830152615c5281615c16565b9050919050565b7f45434453413a20696e76616c6964207369676e6174757265202773272076616c60008201527f7565000000000000000000000000000000000000000000000000000000000000602082015250565b6000615cb5602283613bff565b9150615cc082615c59565b604082019050919050565b60006020820190508181036000830152615ce481615ca8565b9050919050565b7f476f7665726e6f72566f74696e6753696d706c653a20766f746520616c72656160008201527f6479206361737400000000000000000000000000000000000000000000000000602082015250565b6000615d47602783613bff565b9150615d5282615ceb565b604082019050919050565b60006020820190508181036000830152615d7681615d3a565b9050919050565b7f476f7665726e6f72566f74696e6753696d706c653a20696e76616c696420766160008201527f6c756520666f7220656e756d20566f7465547970650000000000000000000000602082015250565b6000615dd9603583613bff565b9150615de482615d7d565b604082019050919050565b60006020820190508181036000830152615e0881615dcc565b9050919050565b600060a082019050615e2460008301886140c2565b615e3160208301876140c2565b615e3e60408301866140c2565b615e4b606083018561387e565b615e586080830184614e49565b969550505050505056fe476f7665726e6f723a2072656c617920726576657274656420776974686f7574206d657373616765476f7665726e6f723a2063616c6c20726576657274656420776974686f7574206d657373616765a26469706673582212203003350ba7c770b7f0bc1c5559c008026ba93e4d6df749c10e9f7999fc4b421164736f6c63430008110033","opcodes":"PUSH2 0x160 PUSH1 0x40 MSTORE CALLVALUE DUP1 ISZERO PUSH3 0x12 JUMPI PUSH1 0x0 DUP1 REVERT JUMPDEST POP PUSH1 0x40 MLOAD PUSH3 0x72C0 CODESIZE SUB DUP1 PUSH3 0x72C0 DUP4 CODECOPY DUP2 DUP2 ADD PUSH1 0x40 MSTORE DUP2 ADD SWAP1 PUSH3 0x38 SWAP2 SWAP1 PUSH3 0xBA3 JUMP JUMPDEST PUSH1 0x4 DUP2 PUSH1 0x1 PUSH2 0xC4E0 PUSH1 0x0 PUSH1 0x40 MLOAD DUP1 PUSH1 0x40 ADD PUSH1 0x40 MSTORE DUP1 PUSH1 0xA DUP2 MSTORE PUSH1 0x20 ADD PUSH32 0x4D79476F7665726E6F7200000000000000000000000000000000000000000000 DUP2 MSTORE POP DUP1 PUSH3 0x89 PUSH3 0x1D3 PUSH1 0x20 SHL PUSH1 0x20 SHR JUMP JUMPDEST PUSH1 0x0 DUP3 DUP1 MLOAD SWAP1 PUSH1 0x20 ADD KECCAK256 SWAP1 POP PUSH1 0x0 DUP3 DUP1 MLOAD SWAP1 PUSH1 0x20 ADD KECCAK256 SWAP1 POP PUSH1 0x0 PUSH32 0x8B73C3C69BB8FE3D512ECC4CF759CC79239F7B179B0FFACAA9A75D522B39400F SWAP1 POP DUP3 PUSH1 0xE0 DUP2 DUP2 MSTORE POP POP DUP2 PUSH2 0x100 DUP2 DUP2 MSTORE POP POP CHAINID PUSH1 0xA0 DUP2 DUP2 MSTORE POP POP PUSH3 0xF2 DUP2 DUP5 DUP5 PUSH3 0x210 PUSH1 0x20 SHL PUSH1 0x20 SHR JUMP JUMPDEST PUSH1 0x80 DUP2 DUP2 MSTORE POP POP ADDRESS PUSH20 0xFFFFFFFFFFFFFFFFFFFFFFFFFFFFFFFFFFFFFFFF AND PUSH1 0xC0 DUP2 PUSH20 0xFFFFFFFFFFFFFFFFFFFFFFFFFFFFFFFFFFFFFFFF AND DUP2 MSTORE POP POP DUP1 PUSH2 0x120 DUP2 DUP2 MSTORE POP POP POP POP POP POP POP DUP1 PUSH1 0x0 SWAP1 DUP2 PUSH3 0x14C SWAP2 SWAP1 PUSH3 0xE4F JUMP JUMPDEST POP POP PUSH3 0x15F DUP4 PUSH3 0x24C PUSH1 0x20 SHL PUSH1 0x20 SHR JUMP JUMPDEST PUSH3 0x170 DUP3 PUSH3 0x293 PUSH1 0x20 SHL PUSH1 0x20 SHR JUMP JUMPDEST PUSH3 0x181 DUP2 PUSH3 0x320 PUSH1 0x20 SHL PUSH1 0x20 SHR JUMP JUMPDEST POP POP POP DUP1 PUSH20 0xFFFFFFFFFFFFFFFFFFFFFFFFFFFFFFFFFFFFFFFF AND PUSH2 0x140 DUP2 PUSH20 0xFFFFFFFFFFFFFFFFFFFFFFFFFFFFFFFFFFFFFFFF AND DUP2 MSTORE POP POP POP PUSH3 0x1CB DUP2 PUSH3 0x367 PUSH1 0x20 SHL PUSH1 0x20 SHR JUMP JUMPDEST POP POP PUSH3 0x1370 JUMP JUMPDEST PUSH1 0x60 PUSH1 0x40 MLOAD DUP1 PUSH1 0x40 ADD PUSH1 0x40 MSTORE DUP1 PUSH1 0x1 DUP2 MSTORE PUSH1 0x20 ADD PUSH32 0x3100000000000000000000000000000000000000000000000000000000000000 DUP2 MSTORE POP SWAP1 POP SWAP1 JUMP JUMPDEST PUSH1 0x0 DUP4 DUP4 DUP4 CHAINID ADDRESS PUSH1 0x40 MLOAD PUSH1 0x20 ADD PUSH3 0x22D SWAP6 SWAP5 SWAP4 SWAP3 SWAP2 SWAP1 PUSH3 0xF73 JUMP JUMPDEST PUSH1 0x40 MLOAD PUSH1 0x20 DUP2 DUP4 SUB SUB DUP2 MSTORE SWAP1 PUSH1 0x40 MSTORE DUP1 MLOAD SWAP1 PUSH1 0x20 ADD KECCAK256 SWAP1 POP SWAP4 SWAP3 POP POP POP JUMP JUMPDEST PUSH32 0xC565B045403DC03C2EEA82B81A0465EDAD9E2E7FC4D97E11421C209DA93D7A93 PUSH1 0x4 SLOAD DUP3 PUSH1 0x40 MLOAD PUSH3 0x281 SWAP3 SWAP2 SWAP1 PUSH3 0xFD0 JUMP JUMPDEST PUSH1 0x40 MLOAD DUP1 SWAP2 SUB SWAP1 LOG1 DUP1 PUSH1 0x4 DUP2 SWAP1 SSTORE POP POP JUMP JUMPDEST PUSH1 0x0 DUP2 GT PUSH3 0x2D9 JUMPI PUSH1 0x40 MLOAD PUSH32 0x8C379A000000000000000000000000000000000000000000000000000000000 DUP2 MSTORE PUSH1 0x4 ADD PUSH3 0x2D0 SWAP1 PUSH3 0x1084 JUMP JUMPDEST PUSH1 0x40 MLOAD DUP1 SWAP2 SUB SWAP1 REVERT JUMPDEST PUSH32 0x7E3F7F0708A84DE9203036ABAA450DCCC85AD5FF52F78C170F3EDB55CF5E8828 PUSH1 0x5 SLOAD DUP3 PUSH1 0x40 MLOAD PUSH3 0x30E SWAP3 SWAP2 SWAP1 PUSH3 0xFD0 JUMP JUMPDEST PUSH1 0x40 MLOAD DUP1 SWAP2 SUB SWAP1 LOG1 DUP1 PUSH1 0x5 DUP2 SWAP1 SSTORE POP POP JUMP JUMPDEST PUSH32 0xCCB45DA8D5717E6C4544694297C4BA5CF151D455C9BB0ED4FC7A38411BC05461 PUSH1 0x6 SLOAD DUP3 PUSH1 0x40 MLOAD PUSH3 0x355 SWAP3 SWAP2 SWAP1 PUSH3 0xFD0 JUMP JUMPDEST PUSH1 0x40 MLOAD DUP1 SWAP2 SUB SWAP1 LOG1 DUP1 PUSH1 0x6 DUP2 SWAP1 SSTORE POP POP JUMP JUMPDEST PUSH3 0x377 PUSH3 0x546 PUSH1 0x20 SHL PUSH1 0x20 SHR JUMP JUMPDEST DUP2 GT ISZERO PUSH3 0x3BC JUMPI PUSH1 0x40 MLOAD PUSH32 0x8C379A000000000000000000000000000000000000000000000000000000000 DUP2 MSTORE PUSH1 0x4 ADD PUSH3 0x3B3 SWAP1 PUSH3 0x1142 JUMP JUMPDEST PUSH1 0x40 MLOAD DUP1 SWAP2 SUB SWAP1 REVERT JUMPDEST PUSH1 0x0 PUSH3 0x3CE PUSH3 0x54F PUSH1 0x20 SHL PUSH1 0x20 SHR JUMP JUMPDEST SWAP1 POP PUSH1 0x0 DUP2 EQ ISZERO DUP1 ISZERO PUSH3 0x3EA JUMPI POP PUSH1 0x0 PUSH1 0x9 PUSH1 0x0 ADD DUP1 SLOAD SWAP1 POP EQ JUMPDEST ISZERO PUSH3 0x4EA JUMPI PUSH1 0x9 PUSH1 0x0 ADD PUSH1 0x40 MLOAD DUP1 PUSH1 0x40 ADD PUSH1 0x40 MSTORE DUP1 PUSH1 0x0 PUSH4 0xFFFFFFFF AND DUP2 MSTORE PUSH1 0x20 ADD PUSH3 0x423 DUP5 PUSH3 0x5A5 PUSH1 0x20 SHL PUSH3 0x1E22 OR PUSH1 0x20 SHR JUMP JUMPDEST PUSH28 0xFFFFFFFFFFFFFFFFFFFFFFFFFFFFFFFFFFFFFFFFFFFFFFFFFFFFFFFF AND DUP2 MSTORE POP SWAP1 DUP1 PUSH1 0x1 DUP2 SLOAD ADD DUP1 DUP3 SSTORE DUP1 SWAP2 POP POP PUSH1 0x1 SWAP1 SUB SWAP1 PUSH1 0x0 MSTORE PUSH1 0x20 PUSH1 0x0 KECCAK256 ADD PUSH1 0x0 SWAP1 SWAP2 SWAP1 SWAP2 SWAP1 SWAP2 POP PUSH1 0x0 DUP3 ADD MLOAD DUP2 PUSH1 0x0 ADD PUSH1 0x0 PUSH2 0x100 EXP DUP2 SLOAD DUP2 PUSH4 0xFFFFFFFF MUL NOT AND SWAP1 DUP4 PUSH4 0xFFFFFFFF AND MUL OR SWAP1 SSTORE POP PUSH1 0x20 DUP3 ADD MLOAD DUP2 PUSH1 0x0 ADD PUSH1 0x4 PUSH2 0x100 EXP DUP2 SLOAD DUP2 PUSH28 0xFFFFFFFFFFFFFFFFFFFFFFFFFFFFFFFFFFFFFFFFFFFFFFFFFFFFFFFF MUL NOT AND SWAP1 DUP4 PUSH28 0xFFFFFFFFFFFFFFFFFFFFFFFFFFFFFFFFFFFFFFFFFFFFFFFFFFFFFFFF AND MUL OR SWAP1 SSTORE POP POP POP JUMPDEST PUSH3 0x505 DUP3 PUSH1 0x9 PUSH3 0x613 PUSH1 0x20 SHL PUSH3 0x1E8D OR SWAP1 SWAP2 SWAP1 PUSH1 0x20 SHR JUMP JUMPDEST POP POP PUSH32 0x553476BF02EF2726E8CE5CED78D63E26E602E4A2257B1F559418E24B4633997 DUP2 DUP4 PUSH1 0x40 MLOAD PUSH3 0x53A SWAP3 SWAP2 SWAP1 PUSH3 0xFD0 JUMP JUMPDEST PUSH1 0x40 MLOAD DUP1 SWAP2 SUB SWAP1 LOG1 POP POP JUMP JUMPDEST PUSH1 0x0 PUSH1 0x64 SWAP1 POP SWAP1 JUMP JUMPDEST PUSH1 0x0 DUP1 PUSH1 0x9 PUSH1 0x0 ADD DUP1 SLOAD SWAP1 POP EQ PUSH3 0x59C JUMPI PUSH3 0x578 PUSH1 0x9 PUSH3 0x6A3 PUSH1 0x20 SHL PUSH3 0x1EFB OR PUSH1 0x20 SHR JUMP JUMPDEST PUSH28 0xFFFFFFFFFFFFFFFFFFFFFFFFFFFFFFFFFFFFFFFFFFFFFFFFFFFFFFFF AND PUSH3 0x5A0 JUMP JUMPDEST PUSH1 0x8 SLOAD JUMPDEST SWAP1 POP SWAP1 JUMP JUMPDEST PUSH1 0x0 PUSH28 0xFFFFFFFFFFFFFFFFFFFFFFFFFFFFFFFFFFFFFFFFFFFFFFFFFFFFFFFF DUP1 AND DUP3 GT ISZERO PUSH3 0x60B JUMPI PUSH1 0x40 MLOAD PUSH32 0x8C379A000000000000000000000000000000000000000000000000000000000 DUP2 MSTORE PUSH1 0x4 ADD PUSH3 0x602 SWAP1 PUSH3 0x11DA JUMP JUMPDEST PUSH1 0x40 MLOAD DUP1 SWAP2 SUB SWAP1 REVERT JUMPDEST DUP2 SWAP1 POP SWAP2 SWAP1 POP JUMP JUMPDEST PUSH1 0x0 DUP1 PUSH3 0x656 DUP5 PUSH1 0x0 ADD PUSH3 0x634 NUMBER PUSH3 0x719 PUSH1 0x20 SHL PUSH3 0x1F65 OR PUSH1 0x20 SHR JUMP JUMPDEST PUSH3 0x64A DUP7 PUSH3 0x5A5 PUSH1 0x20 SHL PUSH3 0x1E22 OR PUSH1 0x20 SHR JUMP JUMPDEST PUSH3 0x76F PUSH1 0x20 SHL PUSH1 0x20 SHR JUMP JUMPDEST DUP2 PUSH28 0xFFFFFFFFFFFFFFFFFFFFFFFFFFFFFFFFFFFFFFFFFFFFFFFFFFFFFFFF AND SWAP2 POP DUP1 PUSH28 0xFFFFFFFFFFFFFFFFFFFFFFFFFFFFFFFFFFFFFFFFFFFFFFFFFFFFFFFF AND SWAP1 POP SWAP2 POP SWAP2 POP SWAP3 POP SWAP3 SWAP1 POP JUMP JUMPDEST PUSH1 0x0 DUP1 DUP3 PUSH1 0x0 ADD DUP1 SLOAD SWAP1 POP SWAP1 POP PUSH1 0x0 DUP2 EQ PUSH3 0x70E JUMPI PUSH3 0x6DC DUP4 PUSH1 0x0 ADD PUSH1 0x1 DUP4 PUSH3 0x6D0 SWAP2 SWAP1 PUSH3 0x122B JUMP JUMPDEST PUSH3 0xB10 PUSH1 0x20 SHL PUSH1 0x20 SHR JUMP JUMPDEST PUSH1 0x0 ADD PUSH1 0x4 SWAP1 SLOAD SWAP1 PUSH2 0x100 EXP SWAP1 DIV PUSH28 0xFFFFFFFFFFFFFFFFFFFFFFFFFFFFFFFFFFFFFFFFFFFFFFFFFFFFFFFF AND PUSH3 0x711 JUMP JUMPDEST PUSH1 0x0 JUMPDEST SWAP2 POP POP SWAP2 SWAP1 POP JUMP JUMPDEST PUSH1 0x0 PUSH4 0xFFFFFFFF DUP1 AND DUP3 GT ISZERO PUSH3 0x767 JUMPI PUSH1 0x40 MLOAD PUSH32 0x8C379A000000000000000000000000000000000000000000000000000000000 DUP2 MSTORE PUSH1 0x4 ADD PUSH3 0x75E SWAP1 PUSH3 0x12DC JUMP JUMPDEST PUSH1 0x40 MLOAD DUP1 SWAP2 SUB SWAP1 REVERT JUMPDEST DUP2 SWAP1 POP SWAP2 SWAP1 POP JUMP JUMPDEST PUSH1 0x0 DUP1 PUSH1 0x0 DUP6 DUP1 SLOAD SWAP1 POP SWAP1 POP PUSH1 0x0 DUP2 GT ISZERO PUSH3 0xA20 JUMPI PUSH1 0x0 PUSH3 0x7A7 DUP8 PUSH1 0x1 DUP5 PUSH3 0x79B SWAP2 SWAP1 PUSH3 0x122B JUMP JUMPDEST PUSH3 0xB10 PUSH1 0x20 SHL PUSH1 0x20 SHR JUMP JUMPDEST PUSH1 0x40 MLOAD DUP1 PUSH1 0x40 ADD PUSH1 0x40 MSTORE SWAP1 DUP2 PUSH1 0x0 DUP3 ADD PUSH1 0x0 SWAP1 SLOAD SWAP1 PUSH2 0x100 EXP SWAP1 DIV PUSH4 0xFFFFFFFF AND PUSH4 0xFFFFFFFF AND PUSH4 0xFFFFFFFF AND DUP2 MSTORE PUSH1 0x20 ADD PUSH1 0x0 DUP3 ADD PUSH1 0x4 SWAP1 SLOAD SWAP1 PUSH2 0x100 EXP SWAP1 DIV PUSH28 0xFFFFFFFFFFFFFFFFFFFFFFFFFFFFFFFFFFFFFFFFFFFFFFFFFFFFFFFF AND PUSH28 0xFFFFFFFFFFFFFFFFFFFFFFFFFFFFFFFFFFFFFFFFFFFFFFFFFFFFFFFF AND PUSH28 0xFFFFFFFFFFFFFFFFFFFFFFFFFFFFFFFFFFFFFFFFFFFFFFFFFFFFFFFF AND DUP2 MSTORE POP POP SWAP1 POP DUP6 PUSH4 0xFFFFFFFF AND DUP2 PUSH1 0x0 ADD MLOAD PUSH4 0xFFFFFFFF AND GT ISZERO PUSH3 0x89E JUMPI PUSH1 0x40 MLOAD PUSH32 0x8C379A000000000000000000000000000000000000000000000000000000000 DUP2 MSTORE PUSH1 0x4 ADD PUSH3 0x895 SWAP1 PUSH3 0x134E JUMP JUMPDEST PUSH1 0x40 MLOAD DUP1 SWAP2 SUB SWAP1 REVERT JUMPDEST DUP6 PUSH4 0xFFFFFFFF AND DUP2 PUSH1 0x0 ADD MLOAD PUSH4 0xFFFFFFFF AND SUB PUSH3 0x92E JUMPI DUP5 PUSH3 0x8D7 DUP9 PUSH1 0x1 DUP6 PUSH3 0x8CB SWAP2 SWAP1 PUSH3 0x122B JUMP JUMPDEST PUSH3 0xB10 PUSH1 0x20 SHL PUSH1 0x20 SHR JUMP JUMPDEST PUSH1 0x0 ADD PUSH1 0x4 PUSH2 0x100 EXP DUP2 SLOAD DUP2 PUSH28 0xFFFFFFFFFFFFFFFFFFFFFFFFFFFFFFFFFFFFFFFFFFFFFFFFFFFFFFFF MUL NOT AND SWAP1 DUP4 PUSH28 0xFFFFFFFFFFFFFFFFFFFFFFFFFFFFFFFFFFFFFFFFFFFFFFFFFFFFFFFF AND MUL OR SWAP1 SSTORE POP PUSH3 0xA0E JUMP JUMPDEST DUP7 PUSH1 0x40 MLOAD DUP1 PUSH1 0x40 ADD PUSH1 0x40 MSTORE DUP1 DUP9 PUSH4 0xFFFFFFFF AND DUP2 MSTORE PUSH1 0x20 ADD DUP8 PUSH28 0xFFFFFFFFFFFFFFFFFFFFFFFFFFFFFFFFFFFFFFFFFFFFFFFFFFFFFFFF AND DUP2 MSTORE POP SWAP1 DUP1 PUSH1 0x1 DUP2 SLOAD ADD DUP1 DUP3 SSTORE DUP1 SWAP2 POP POP PUSH1 0x1 SWAP1 SUB SWAP1 PUSH1 0x0 MSTORE PUSH1 0x20 PUSH1 0x0 KECCAK256 ADD PUSH1 0x0 SWAP1 SWAP2 SWAP1 SWAP2 SWAP1 SWAP2 POP PUSH1 0x0 DUP3 ADD MLOAD DUP2 PUSH1 0x0 ADD PUSH1 0x0 PUSH2 0x100 EXP DUP2 SLOAD DUP2 PUSH4 0xFFFFFFFF MUL NOT AND SWAP1 DUP4 PUSH4 0xFFFFFFFF AND MUL OR SWAP1 SSTORE POP PUSH1 0x20 DUP3 ADD MLOAD DUP2 PUSH1 0x0 ADD PUSH1 0x4 PUSH2 0x100 EXP DUP2 SLOAD DUP2 PUSH28 0xFFFFFFFFFFFFFFFFFFFFFFFFFFFFFFFFFFFFFFFFFFFFFFFFFFFFFFFF MUL NOT AND SWAP1 DUP4 PUSH28 0xFFFFFFFFFFFFFFFFFFFFFFFFFFFFFFFFFFFFFFFFFFFFFFFFFFFFFFFF AND MUL OR SWAP1 SSTORE POP POP POP JUMPDEST DUP1 PUSH1 0x20 ADD MLOAD DUP6 SWAP4 POP SWAP4 POP POP POP PUSH3 0xB08 JUMP JUMPDEST DUP6 PUSH1 0x40 MLOAD DUP1 PUSH1 0x40 ADD PUSH1 0x40 MSTORE DUP1 DUP8 PUSH4 0xFFFFFFFF AND DUP2 MSTORE PUSH1 0x20 ADD DUP7 PUSH28 0xFFFFFFFFFFFFFFFFFFFFFFFFFFFFFFFFFFFFFFFFFFFFFFFFFFFFFFFF AND DUP2 MSTORE POP SWAP1 DUP1 PUSH1 0x1 DUP2 SLOAD ADD DUP1 DUP3 SSTORE DUP1 SWAP2 POP POP PUSH1 0x1 SWAP1 SUB SWAP1 PUSH1 0x0 MSTORE PUSH1 0x20 PUSH1 0x0 KECCAK256 ADD PUSH1 0x0 SWAP1 SWAP2 SWAP1 SWAP2 SWAP1 SWAP2 POP PUSH1 0x0 DUP3 ADD MLOAD DUP2 PUSH1 0x0 ADD PUSH1 0x0 PUSH2 0x100 EXP DUP2 SLOAD DUP2 PUSH4 0xFFFFFFFF MUL NOT AND SWAP1 DUP4 PUSH4 0xFFFFFFFF AND MUL OR SWAP1 SSTORE POP PUSH1 0x20 DUP3 ADD MLOAD DUP2 PUSH1 0x0 ADD PUSH1 0x4 PUSH2 0x100 EXP DUP2 SLOAD DUP2 PUSH28 0xFFFFFFFFFFFFFFFFFFFFFFFFFFFFFFFFFFFFFFFFFFFFFFFFFFFFFFFF MUL NOT AND SWAP1 DUP4 PUSH28 0xFFFFFFFFFFFFFFFFFFFFFFFFFFFFFFFFFFFFFFFFFFFFFFFFFFFFFFFF AND MUL OR SWAP1 SSTORE POP POP POP PUSH1 0x0 DUP5 SWAP3 POP SWAP3 POP POP JUMPDEST SWAP4 POP SWAP4 SWAP2 POP POP JUMP JUMPDEST PUSH1 0x0 DUP3 PUSH1 0x0 MSTORE DUP2 PUSH1 0x20 PUSH1 0x0 KECCAK256 ADD SWAP1 POP SWAP3 SWAP2 POP POP JUMP JUMPDEST PUSH1 0x0 DUP1 REVERT JUMPDEST PUSH1 0x0 PUSH20 0xFFFFFFFFFFFFFFFFFFFFFFFFFFFFFFFFFFFFFFFF DUP3 AND SWAP1 POP SWAP2 SWAP1 POP JUMP JUMPDEST PUSH1 0x0 PUSH3 0xB57 DUP3 PUSH3 0xB2A JUMP JUMPDEST SWAP1 POP SWAP2 SWAP1 POP JUMP JUMPDEST PUSH1 0x0 PUSH3 0xB6B DUP3 PUSH3 0xB4A JUMP JUMPDEST SWAP1 POP SWAP2 SWAP1 POP JUMP JUMPDEST PUSH3 0xB7D DUP2 PUSH3 0xB5E JUMP JUMPDEST DUP2 EQ PUSH3 0xB89 JUMPI PUSH1 0x0 DUP1 REVERT JUMPDEST POP JUMP JUMPDEST PUSH1 0x0 DUP2 MLOAD SWAP1 POP PUSH3 0xB9D DUP2 PUSH3 0xB72 JUMP JUMPDEST SWAP3 SWAP2 POP POP JUMP JUMPDEST PUSH1 0x0 PUSH1 0x20 DUP3 DUP5 SUB SLT ISZERO PUSH3 0xBBC JUMPI PUSH3 0xBBB PUSH3 0xB25 JUMP JUMPDEST JUMPDEST PUSH1 0x0 PUSH3 0xBCC DUP5 DUP3 DUP6 ADD PUSH3 0xB8C JUMP JUMPDEST SWAP2 POP POP SWAP3 SWAP2 POP POP JUMP JUMPDEST PUSH1 0x0 DUP2 MLOAD SWAP1 POP SWAP2 SWAP1 POP JUMP JUMPDEST PUSH32 0x4E487B7100000000000000000000000000000000000000000000000000000000 PUSH1 0x0 MSTORE PUSH1 0x41 PUSH1 0x4 MSTORE PUSH1 0x24 PUSH1 0x0 REVERT JUMPDEST PUSH32 0x4E487B7100000000000000000000000000000000000000000000000000000000 PUSH1 0x0 MSTORE PUSH1 0x22 PUSH1 0x4 MSTORE PUSH1 0x24 PUSH1 0x0 REVERT JUMPDEST PUSH1 0x0 PUSH1 0x2 DUP3 DIV SWAP1 POP PUSH1 0x1 DUP3 AND DUP1 PUSH3 0xC57 JUMPI PUSH1 0x7F DUP3 AND SWAP2 POP JUMPDEST PUSH1 0x20 DUP3 LT DUP2 SUB PUSH3 0xC6D JUMPI PUSH3 0xC6C PUSH3 0xC0F JUMP JUMPDEST JUMPDEST POP SWAP2 SWAP1 POP JUMP JUMPDEST PUSH1 0x0 DUP2 SWAP1 POP DUP2 PUSH1 0x0 MSTORE PUSH1 0x20 PUSH1 0x0 KECCAK256 SWAP1 POP SWAP2 SWAP1 POP JUMP JUMPDEST PUSH1 0x0 PUSH1 0x20 PUSH1 0x1F DUP4 ADD DIV SWAP1 POP SWAP2 SWAP1 POP JUMP JUMPDEST PUSH1 0x0 DUP3 DUP3 SHL SWAP1 POP SWAP3 SWAP2 POP POP JUMP JUMPDEST PUSH1 0x0 PUSH1 0x8 DUP4 MUL PUSH3 0xCD7 PUSH32 0xFFFFFFFFFFFFFFFFFFFFFFFFFFFFFFFFFFFFFFFFFFFFFFFFFFFFFFFFFFFFFFFF DUP3 PUSH3 0xC98 JUMP JUMPDEST PUSH3 0xCE3 DUP7 DUP4 PUSH3 0xC98 JUMP JUMPDEST SWAP6 POP DUP1 NOT DUP5 AND SWAP4 POP DUP1 DUP7 AND DUP5 OR SWAP3 POP POP POP SWAP4 SWAP3 POP POP POP JUMP JUMPDEST PUSH1 0x0 DUP2 SWAP1 POP SWAP2 SWAP1 POP JUMP JUMPDEST PUSH1 0x0 DUP2 SWAP1 POP SWAP2 SWAP1 POP JUMP JUMPDEST PUSH1 0x0 PUSH3 0xD30 PUSH3 0xD2A PUSH3 0xD24 DUP5 PUSH3 0xCFB JUMP JUMPDEST PUSH3 0xD05 JUMP JUMPDEST PUSH3 0xCFB JUMP JUMPDEST SWAP1 POP SWAP2 SWAP1 POP JUMP JUMPDEST PUSH1 0x0 DUP2 SWAP1 POP SWAP2 SWAP1 POP JUMP JUMPDEST PUSH3 0xD4C DUP4 PUSH3 0xD0F JUMP JUMPDEST PUSH3 0xD64 PUSH3 0xD5B DUP3 PUSH3 0xD37 JUMP JUMPDEST DUP5 DUP5 SLOAD PUSH3 0xCA5 JUMP JUMPDEST DUP3 SSTORE POP POP POP POP JUMP JUMPDEST PUSH1 0x0 SWAP1 JUMP JUMPDEST PUSH3 0xD7B PUSH3 0xD6C JUMP JUMPDEST PUSH3 0xD88 DUP2 DUP5 DUP5 PUSH3 0xD41 JUMP JUMPDEST POP POP POP JUMP JUMPDEST JUMPDEST DUP2 DUP2 LT ISZERO PUSH3 0xDB0 JUMPI PUSH3 0xDA4 PUSH1 0x0 DUP3 PUSH3 0xD71 JUMP JUMPDEST PUSH1 0x1 DUP2 ADD SWAP1 POP PUSH3 0xD8E JUMP JUMPDEST POP POP JUMP JUMPDEST PUSH1 0x1F DUP3 GT ISZERO PUSH3 0xDFF JUMPI PUSH3 0xDC9 DUP2 PUSH3 0xC73 JUMP JUMPDEST PUSH3 0xDD4 DUP5 PUSH3 0xC88 JUMP JUMPDEST DUP2 ADD PUSH1 0x20 DUP6 LT ISZERO PUSH3 0xDE4 JUMPI DUP2 SWAP1 POP JUMPDEST PUSH3 0xDFC PUSH3 0xDF3 DUP6 PUSH3 0xC88 JUMP JUMPDEST DUP4 ADD DUP3 PUSH3 0xD8D JUMP JUMPDEST POP POP JUMPDEST POP POP POP JUMP JUMPDEST PUSH1 0x0 DUP3 DUP3 SHR SWAP1 POP SWAP3 SWAP2 POP POP JUMP JUMPDEST PUSH1 0x0 PUSH3 0xE24 PUSH1 0x0 NOT DUP5 PUSH1 0x8 MUL PUSH3 0xE04 JUMP JUMPDEST NOT DUP1 DUP4 AND SWAP2 POP POP SWAP3 SWAP2 POP POP JUMP JUMPDEST PUSH1 0x0 PUSH3 0xE3F DUP4 DUP4 PUSH3 0xE11 JUMP JUMPDEST SWAP2 POP DUP3 PUSH1 0x2 MUL DUP3 OR SWAP1 POP SWAP3 SWAP2 POP POP JUMP JUMPDEST PUSH3 0xE5A DUP3 PUSH3 0xBD5 JUMP JUMPDEST PUSH8 0xFFFFFFFFFFFFFFFF DUP2 GT ISZERO PUSH3 0xE76 JUMPI PUSH3 0xE75 PUSH3 0xBE0 JUMP JUMPDEST JUMPDEST PUSH3 0xE82 DUP3 SLOAD PUSH3 0xC3E JUMP JUMPDEST PUSH3 0xE8F DUP3 DUP3 DUP6 PUSH3 0xDB4 JUMP JUMPDEST PUSH1 0x0 PUSH1 0x20 SWAP1 POP PUSH1 0x1F DUP4 GT PUSH1 0x1 DUP2 EQ PUSH3 0xEC7 JUMPI PUSH1 0x0 DUP5 ISZERO PUSH3 0xEB2 JUMPI DUP3 DUP8 ADD MLOAD SWAP1 POP JUMPDEST PUSH3 0xEBE DUP6 DUP3 PUSH3 0xE31 JUMP JUMPDEST DUP7 SSTORE POP PUSH3 0xF2E JUMP JUMPDEST PUSH1 0x1F NOT DUP5 AND PUSH3 0xED7 DUP7 PUSH3 0xC73 JUMP JUMPDEST PUSH1 0x0 JUMPDEST DUP3 DUP2 LT ISZERO PUSH3 0xF01 JUMPI DUP5 DUP10 ADD MLOAD DUP3 SSTORE PUSH1 0x1 DUP3 ADD SWAP2 POP PUSH1 0x20 DUP6 ADD SWAP5 POP PUSH1 0x20 DUP2 ADD SWAP1 POP PUSH3 0xEDA JUMP JUMPDEST DUP7 DUP4 LT ISZERO PUSH3 0xF21 JUMPI DUP5 DUP10 ADD MLOAD PUSH3 0xF1D PUSH1 0x1F DUP10 AND DUP3 PUSH3 0xE11 JUMP JUMPDEST DUP4 SSTORE POP JUMPDEST PUSH1 0x1 PUSH1 0x2 DUP9 MUL ADD DUP9 SSTORE POP POP POP JUMPDEST POP POP POP POP POP POP JUMP JUMPDEST PUSH1 0x0 DUP2 SWAP1 POP SWAP2 SWAP1 POP JUMP JUMPDEST PUSH3 0xF4B DUP2 PUSH3 0xF36 JUMP JUMPDEST DUP3 MSTORE POP POP JUMP JUMPDEST PUSH3 0xF5C DUP2 PUSH3 0xCFB JUMP JUMPDEST DUP3 MSTORE POP POP JUMP JUMPDEST PUSH3 0xF6D DUP2 PUSH3 0xB4A JUMP JUMPDEST DUP3 MSTORE POP POP JUMP JUMPDEST PUSH1 0x0 PUSH1 0xA0 DUP3 ADD SWAP1 POP PUSH3 0xF8A PUSH1 0x0 DUP4 ADD DUP9 PUSH3 0xF40 JUMP JUMPDEST PUSH3 0xF99 PUSH1 0x20 DUP4 ADD DUP8 PUSH3 0xF40 JUMP JUMPDEST PUSH3 0xFA8 PUSH1 0x40 DUP4 ADD DUP7 PUSH3 0xF40 JUMP JUMPDEST PUSH3 0xFB7 PUSH1 0x60 DUP4 ADD DUP6 PUSH3 0xF51 JUMP JUMPDEST PUSH3 0xFC6 PUSH1 0x80 DUP4 ADD DUP5 PUSH3 0xF62 JUMP JUMPDEST SWAP7 SWAP6 POP POP POP POP POP POP JUMP JUMPDEST PUSH1 0x0 PUSH1 0x40 DUP3 ADD SWAP1 POP PUSH3 0xFE7 PUSH1 0x0 DUP4 ADD DUP6 PUSH3 0xF51 JUMP JUMPDEST PUSH3 0xFF6 PUSH1 0x20 DUP4 ADD DUP5 PUSH3 0xF51 JUMP JUMPDEST SWAP4 SWAP3 POP POP POP JUMP JUMPDEST PUSH1 0x0 DUP3 DUP3 MSTORE PUSH1 0x20 DUP3 ADD SWAP1 POP SWAP3 SWAP2 POP POP JUMP JUMPDEST PUSH32 0x476F7665726E6F7253657474696E67733A20766F74696E6720706572696F6420 PUSH1 0x0 DUP3 ADD MSTORE PUSH32 0x746F6F206C6F7700000000000000000000000000000000000000000000000000 PUSH1 0x20 DUP3 ADD MSTORE POP JUMP JUMPDEST PUSH1 0x0 PUSH3 0x106C PUSH1 0x27 DUP4 PUSH3 0xFFD JUMP JUMPDEST SWAP2 POP PUSH3 0x1079 DUP3 PUSH3 0x100E JUMP JUMPDEST PUSH1 0x40 DUP3 ADD SWAP1 POP SWAP2 SWAP1 POP JUMP JUMPDEST PUSH1 0x0 PUSH1 0x20 DUP3 ADD SWAP1 POP DUP2 DUP2 SUB PUSH1 0x0 DUP4 ADD MSTORE PUSH3 0x109F DUP2 PUSH3 0x105D JUMP JUMPDEST SWAP1 POP SWAP2 SWAP1 POP JUMP JUMPDEST PUSH32 0x476F7665726E6F72566F74657351756F72756D4672616374696F6E3A2071756F PUSH1 0x0 DUP3 ADD MSTORE PUSH32 0x72756D4E756D657261746F72206F7665722071756F72756D44656E6F6D696E61 PUSH1 0x20 DUP3 ADD MSTORE PUSH32 0x746F720000000000000000000000000000000000000000000000000000000000 PUSH1 0x40 DUP3 ADD MSTORE POP JUMP JUMPDEST PUSH1 0x0 PUSH3 0x112A PUSH1 0x43 DUP4 PUSH3 0xFFD JUMP JUMPDEST SWAP2 POP PUSH3 0x1137 DUP3 PUSH3 0x10A6 JUMP JUMPDEST PUSH1 0x60 DUP3 ADD SWAP1 POP SWAP2 SWAP1 POP JUMP JUMPDEST PUSH1 0x0 PUSH1 0x20 DUP3 ADD SWAP1 POP DUP2 DUP2 SUB PUSH1 0x0 DUP4 ADD MSTORE PUSH3 0x115D DUP2 PUSH3 0x111B JUMP JUMPDEST SWAP1 POP SWAP2 SWAP1 POP JUMP JUMPDEST PUSH32 0x53616665436173743A2076616C756520646F65736E27742066697420696E2032 PUSH1 0x0 DUP3 ADD MSTORE PUSH32 0x3234206269747300000000000000000000000000000000000000000000000000 PUSH1 0x20 DUP3 ADD MSTORE POP JUMP JUMPDEST PUSH1 0x0 PUSH3 0x11C2 PUSH1 0x27 DUP4 PUSH3 0xFFD JUMP JUMPDEST SWAP2 POP PUSH3 0x11CF DUP3 PUSH3 0x1164 JUMP JUMPDEST PUSH1 0x40 DUP3 ADD SWAP1 POP SWAP2 SWAP1 POP JUMP JUMPDEST PUSH1 0x0 PUSH1 0x20 DUP3 ADD SWAP1 POP DUP2 DUP2 SUB PUSH1 0x0 DUP4 ADD MSTORE PUSH3 0x11F5 DUP2 PUSH3 0x11B3 JUMP JUMPDEST SWAP1 POP SWAP2 SWAP1 POP JUMP JUMPDEST PUSH32 0x4E487B7100000000000000000000000000000000000000000000000000000000 PUSH1 0x0 MSTORE PUSH1 0x11 PUSH1 0x4 MSTORE PUSH1 0x24 PUSH1 0x0 REVERT JUMPDEST PUSH1 0x0 PUSH3 0x1238 DUP3 PUSH3 0xCFB JUMP JUMPDEST SWAP2 POP PUSH3 0x1245 DUP4 PUSH3 0xCFB JUMP JUMPDEST SWAP3 POP DUP3 DUP3 SUB SWAP1 POP DUP2 DUP2 GT ISZERO PUSH3 0x1260 JUMPI PUSH3 0x125F PUSH3 0x11FC JUMP JUMPDEST JUMPDEST SWAP3 SWAP2 POP POP JUMP JUMPDEST PUSH32 0x53616665436173743A2076616C756520646F65736E27742066697420696E2033 PUSH1 0x0 DUP3 ADD MSTORE PUSH32 0x3220626974730000000000000000000000000000000000000000000000000000 PUSH1 0x20 DUP3 ADD MSTORE POP JUMP JUMPDEST PUSH1 0x0 PUSH3 0x12C4 PUSH1 0x26 DUP4 PUSH3 0xFFD JUMP JUMPDEST SWAP2 POP PUSH3 0x12D1 DUP3 PUSH3 0x1266 JUMP JUMPDEST PUSH1 0x40 DUP3 ADD SWAP1 POP SWAP2 SWAP1 POP JUMP JUMPDEST PUSH1 0x0 PUSH1 0x20 DUP3 ADD SWAP1 POP DUP2 DUP2 SUB PUSH1 0x0 DUP4 ADD MSTORE PUSH3 0x12F7 DUP2 PUSH3 0x12B5 JUMP JUMPDEST SWAP1 POP SWAP2 SWAP1 POP JUMP JUMPDEST PUSH32 0x436865636B706F696E743A20696E76616C6964206B6579000000000000000000 PUSH1 0x0 DUP3 ADD MSTORE POP JUMP JUMPDEST PUSH1 0x0 PUSH3 0x1336 PUSH1 0x17 DUP4 PUSH3 0xFFD JUMP JUMPDEST SWAP2 POP PUSH3 0x1343 DUP3 PUSH3 0x12FE JUMP JUMPDEST PUSH1 0x20 DUP3 ADD SWAP1 POP SWAP2 SWAP1 POP JUMP JUMPDEST PUSH1 0x0 PUSH1 0x20 DUP3 ADD SWAP1 POP DUP2 DUP2 SUB PUSH1 0x0 DUP4 ADD MSTORE PUSH3 0x1369 DUP2 PUSH3 0x1327 JUMP JUMPDEST SWAP1 POP SWAP2 SWAP1 POP JUMP JUMPDEST PUSH1 0x80 MLOAD PUSH1 0xA0 MLOAD PUSH1 0xC0 MLOAD PUSH1 0xE0 MLOAD PUSH2 0x100 MLOAD PUSH2 0x120 MLOAD PUSH2 0x140 MLOAD PUSH2 0x5EE7 PUSH3 0x13D9 PUSH1 0x0 CODECOPY PUSH1 0x0 DUP2 DUP2 PUSH2 0x1E00 ADD MSTORE DUP2 DUP2 PUSH2 0x29A1 ADD MSTORE PUSH2 0x2B69 ADD MSTORE PUSH1 0x0 PUSH2 0x3065 ADD MSTORE PUSH1 0x0 PUSH2 0x30A7 ADD MSTORE PUSH1 0x0 PUSH2 0x3086 ADD MSTORE PUSH1 0x0 PUSH2 0x2FBB ADD MSTORE PUSH1 0x0 PUSH2 0x3011 ADD MSTORE PUSH1 0x0 PUSH2 0x303A ADD MSTORE PUSH2 0x5EE7 PUSH1 0x0 RETURN INVALID PUSH1 0x80 PUSH1 0x40 MSTORE PUSH1 0x4 CALLDATASIZE LT PUSH2 0x21E JUMPI PUSH1 0x0 CALLDATALOAD PUSH1 0xE0 SHR DUP1 PUSH4 0x70B0F660 GT PUSH2 0x123 JUMPI DUP1 PUSH4 0xC28BC2FA GT PUSH2 0xAB JUMPI DUP1 PUSH4 0xEB9019D4 GT PUSH2 0x6F JUMPI DUP1 PUSH4 0xEB9019D4 EQ PUSH2 0x8ED JUMPI DUP1 PUSH4 0xECE40CC1 EQ PUSH2 0x92A JUMPI DUP1 PUSH4 0xF23A6E61 EQ PUSH2 0x953 JUMPI DUP1 PUSH4 0xF8CE560A EQ PUSH2 0x990 JUMPI DUP1 PUSH4 0xFC0C546A EQ PUSH2 0x9CD JUMPI PUSH2 0x264 JUMP JUMPDEST DUP1 PUSH4 0xC28BC2FA EQ PUSH2 0x815 JUMPI DUP1 PUSH4 0xC59057E4 EQ PUSH2 0x831 JUMPI DUP1 PUSH4 0xDD4E2BA5 EQ PUSH2 0x86E JUMPI DUP1 PUSH4 0xDEAAA7CC EQ PUSH2 0x899 JUMPI DUP1 PUSH4 0xEA0217CF EQ PUSH2 0x8C4 JUMPI PUSH2 0x264 JUMP JUMPDEST DUP1 PUSH4 0x9A802A6D GT PUSH2 0xF2 JUMPI DUP1 PUSH4 0x9A802A6D EQ PUSH2 0x708 JUMPI DUP1 PUSH4 0xA7713A70 EQ PUSH2 0x745 JUMPI DUP1 PUSH4 0xB58131B0 EQ PUSH2 0x770 JUMPI DUP1 PUSH4 0xBC197C81 EQ PUSH2 0x79B JUMPI DUP1 PUSH4 0xC01F9E37 EQ PUSH2 0x7D8 JUMPI PUSH2 0x264 JUMP JUMPDEST DUP1 PUSH4 0x70B0F660 EQ PUSH2 0x63A JUMPI DUP1 PUSH4 0x7B3C71D3 EQ PUSH2 0x663 JUMPI DUP1 PUSH4 0x7D5E81E2 EQ PUSH2 0x6A0 JUMPI DUP1 PUSH4 0x97C3D334 EQ PUSH2 0x6DD JUMPI PUSH2 0x264 JUMP JUMPDEST DUP1 PUSH4 0x3932ABB1 GT PUSH2 0x1A6 JUMPI DUP1 PUSH4 0x544FFC9C GT PUSH2 0x175 JUMPI DUP1 PUSH4 0x544FFC9C EQ PUSH2 0x519 JUMPI DUP1 PUSH4 0x54FD4D50 EQ PUSH2 0x558 JUMPI DUP1 PUSH4 0x56781388 EQ PUSH2 0x583 JUMPI DUP1 PUSH4 0x5F398A14 EQ PUSH2 0x5C0 JUMPI DUP1 PUSH4 0x60C4247F EQ PUSH2 0x5FD JUMPI PUSH2 0x264 JUMP JUMPDEST DUP1 PUSH4 0x3932ABB1 EQ PUSH2 0x437 JUMPI DUP1 PUSH4 0x3BCCF4FD EQ PUSH2 0x462 JUMPI DUP1 PUSH4 0x3E4F49E6 EQ PUSH2 0x49F JUMPI DUP1 PUSH4 0x43859632 EQ PUSH2 0x4DC JUMPI PUSH2 0x264 JUMP JUMPDEST DUP1 PUSH4 0x6FDDE03 GT PUSH2 0x1ED JUMPI DUP1 PUSH4 0x6FDDE03 EQ PUSH2 0x337 JUMPI DUP1 PUSH4 0x150B7A02 EQ PUSH2 0x362 JUMPI DUP1 PUSH4 0x2656227D EQ PUSH2 0x39F JUMPI DUP1 PUSH4 0x2D63F693 EQ PUSH2 0x3CF JUMPI DUP1 PUSH4 0x2FE3E261 EQ PUSH2 0x40C JUMPI PUSH2 0x264 JUMP JUMPDEST DUP1 PUSH4 0x1FFC9A7 EQ PUSH2 0x269 JUMPI DUP1 PUSH4 0x2A251A3 EQ PUSH2 0x2A6 JUMPI DUP1 PUSH4 0x3420181 EQ PUSH2 0x2D1 JUMPI DUP1 PUSH4 0x6F3F9E6 EQ PUSH2 0x30E JUMPI PUSH2 0x264 JUMP JUMPDEST CALLDATASIZE PUSH2 0x264 JUMPI ADDRESS PUSH20 0xFFFFFFFFFFFFFFFFFFFFFFFFFFFFFFFFFFFFFFFF AND PUSH2 0x242 PUSH2 0x9F8 JUMP JUMPDEST PUSH20 0xFFFFFFFFFFFFFFFFFFFFFFFFFFFFFFFFFFFFFFFF AND EQ PUSH2 0x262 JUMPI PUSH1 0x0 DUP1 REVERT JUMPDEST STOP JUMPDEST PUSH1 0x0 DUP1 REVERT JUMPDEST CALLVALUE DUP1 ISZERO PUSH2 0x275 JUMPI PUSH1 0x0 DUP1 REVERT JUMPDEST POP PUSH2 0x290 PUSH1 0x4 DUP1 CALLDATASIZE SUB DUP2 ADD SWAP1 PUSH2 0x28B SWAP2 SWAP1 PUSH2 0x3811 JUMP JUMPDEST PUSH2 0xA00 JUMP JUMPDEST PUSH1 0x40 MLOAD PUSH2 0x29D SWAP2 SWAP1 PUSH2 0x3859 JUMP JUMPDEST PUSH1 0x40 MLOAD DUP1 SWAP2 SUB SWAP1 RETURN JUMPDEST CALLVALUE DUP1 ISZERO PUSH2 0x2B2 JUMPI PUSH1 0x0 DUP1 REVERT JUMPDEST POP PUSH2 0x2BB PUSH2 0xB65 JUMP JUMPDEST PUSH1 0x40 MLOAD PUSH2 0x2C8 SWAP2 SWAP1 PUSH2 0x388D JUMP JUMPDEST PUSH1 0x40 MLOAD DUP1 SWAP2 SUB SWAP1 RETURN JUMPDEST CALLVALUE DUP1 ISZERO PUSH2 0x2DD JUMPI PUSH1 0x0 DUP1 REVERT JUMPDEST POP PUSH2 0x2F8 PUSH1 0x4 DUP1 CALLDATASIZE SUB DUP2 ADD SWAP1 PUSH2 0x2F3 SWAP2 SWAP1 PUSH2 0x3AE9 JUMP JUMPDEST PUSH2 0xB74 JUMP JUMPDEST PUSH1 0x40 MLOAD PUSH2 0x305 SWAP2 SWAP1 PUSH2 0x388D JUMP JUMPDEST PUSH1 0x40 MLOAD DUP1 SWAP2 SUB SWAP1 RETURN JUMPDEST CALLVALUE DUP1 ISZERO PUSH2 0x31A JUMPI PUSH1 0x0 DUP1 REVERT JUMPDEST POP PUSH2 0x335 PUSH1 0x4 DUP1 CALLDATASIZE SUB DUP2 ADD SWAP1 PUSH2 0x330 SWAP2 SWAP1 PUSH2 0x3BC7 JUMP JUMPDEST PUSH2 0xC59 JUMP JUMPDEST STOP JUMPDEST CALLVALUE DUP1 ISZERO PUSH2 0x343 JUMPI PUSH1 0x0 DUP1 REVERT JUMPDEST POP PUSH2 0x34C PUSH2 0xD50 JUMP JUMPDEST PUSH1 0x40 MLOAD PUSH2 0x359 SWAP2 SWAP1 PUSH2 0x3C73 JUMP JUMPDEST PUSH1 0x40 MLOAD DUP1 SWAP2 SUB SWAP1 RETURN JUMPDEST CALLVALUE DUP1 ISZERO PUSH2 0x36E JUMPI PUSH1 0x0 DUP1 REVERT JUMPDEST POP PUSH2 0x389 PUSH1 0x4 DUP1 CALLDATASIZE SUB DUP2 ADD SWAP1 PUSH2 0x384 SWAP2 SWAP1 PUSH2 0x3CF3 JUMP JUMPDEST PUSH2 0xDE2 JUMP JUMPDEST PUSH1 0x40 MLOAD PUSH2 0x396 SWAP2 SWAP1 PUSH2 0x3D85 JUMP JUMPDEST PUSH1 0x40 MLOAD DUP1 SWAP2 SUB SWAP1 RETURN JUMPDEST PUSH2 0x3B9 PUSH1 0x4 DUP1 CALLDATASIZE SUB DUP2 ADD SWAP1 PUSH2 0x3B4 SWAP2 SWAP1 PUSH2 0x4007 JUMP JUMPDEST PUSH2 0xDF6 JUMP JUMPDEST PUSH1 0x40 MLOAD PUSH2 0x3C6 SWAP2 SWAP1 PUSH2 0x388D JUMP JUMPDEST PUSH1 0x40 MLOAD DUP1 SWAP2 SUB SWAP1 RETURN JUMPDEST CALLVALUE DUP1 ISZERO PUSH2 0x3DB JUMPI PUSH1 0x0 DUP1 REVERT JUMPDEST POP PUSH2 0x3F6 PUSH1 0x4 DUP1 CALLDATASIZE SUB DUP2 ADD SWAP1 PUSH2 0x3F1 SWAP2 SWAP1 PUSH2 0x3BC7 JUMP JUMPDEST PUSH2 0xF43 JUMP JUMPDEST PUSH1 0x40 MLOAD PUSH2 0x403 SWAP2 SWAP1 PUSH2 0x388D JUMP JUMPDEST PUSH1 0x40 MLOAD DUP1 SWAP2 SUB SWAP1 RETURN JUMPDEST CALLVALUE DUP1 ISZERO PUSH2 0x418 JUMPI PUSH1 0x0 DUP1 REVERT JUMPDEST POP PUSH2 0x421 PUSH2 0xFB1 JUMP JUMPDEST PUSH1 0x40 MLOAD PUSH2 0x42E SWAP2 SWAP1 PUSH2 0x40D1 JUMP JUMPDEST PUSH1 0x40 MLOAD DUP1 SWAP2 SUB SWAP1 RETURN JUMPDEST CALLVALUE DUP1 ISZERO PUSH2 0x443 JUMPI PUSH1 0x0 DUP1 REVERT JUMPDEST POP PUSH2 0x44C PUSH2 0xFD5 JUMP JUMPDEST PUSH1 0x40 MLOAD PUSH2 0x459 SWAP2 SWAP1 PUSH2 0x388D JUMP JUMPDEST PUSH1 0x40 MLOAD DUP1 SWAP2 SUB SWAP1 RETURN JUMPDEST CALLVALUE DUP1 ISZERO PUSH2 0x46E JUMPI PUSH1 0x0 DUP1 REVERT JUMPDEST POP PUSH2 0x489 PUSH1 0x4 DUP1 CALLDATASIZE SUB DUP2 ADD SWAP1 PUSH2 0x484 SWAP2 SWAP1 PUSH2 0x40EC JUMP JUMPDEST PUSH2 0xFE4 JUMP JUMPDEST PUSH1 0x40 MLOAD PUSH2 0x496 SWAP2 SWAP1 PUSH2 0x388D JUMP JUMPDEST PUSH1 0x40 MLOAD DUP1 SWAP2 SUB SWAP1 RETURN JUMPDEST CALLVALUE DUP1 ISZERO PUSH2 0x4AB JUMPI PUSH1 0x0 DUP1 REVERT JUMPDEST POP PUSH2 0x4C6 PUSH1 0x4 DUP1 CALLDATASIZE SUB DUP2 ADD SWAP1 PUSH2 0x4C1 SWAP2 SWAP1 PUSH2 0x3BC7 JUMP JUMPDEST PUSH2 0x106E JUMP JUMPDEST PUSH1 0x40 MLOAD PUSH2 0x4D3 SWAP2 SWAP1 PUSH2 0x41DE JUMP JUMPDEST PUSH1 0x40 MLOAD DUP1 SWAP2 SUB SWAP1 RETURN JUMPDEST CALLVALUE DUP1 ISZERO PUSH2 0x4E8 JUMPI PUSH1 0x0 DUP1 REVERT JUMPDEST POP PUSH2 0x503 PUSH1 0x4 DUP1 CALLDATASIZE SUB DUP2 ADD SWAP1 PUSH2 0x4FE SWAP2 SWAP1 PUSH2 0x41F9 JUMP JUMPDEST PUSH2 0x1182 JUMP JUMPDEST PUSH1 0x40 MLOAD PUSH2 0x510 SWAP2 SWAP1 PUSH2 0x3859 JUMP JUMPDEST PUSH1 0x40 MLOAD DUP1 SWAP2 SUB SWAP1 RETURN JUMPDEST CALLVALUE DUP1 ISZERO PUSH2 0x525 JUMPI PUSH1 0x0 DUP1 REVERT JUMPDEST POP PUSH2 0x540 PUSH1 0x4 DUP1 CALLDATASIZE SUB DUP2 ADD SWAP1 PUSH2 0x53B SWAP2 SWAP1 PUSH2 0x3BC7 JUMP JUMPDEST PUSH2 0x11ED JUMP JUMPDEST PUSH1 0x40 MLOAD PUSH2 0x54F SWAP4 SWAP3 SWAP2 SWAP1 PUSH2 0x4239 JUMP JUMPDEST PUSH1 0x40 MLOAD DUP1 SWAP2 SUB SWAP1 RETURN JUMPDEST CALLVALUE DUP1 ISZERO PUSH2 0x564 JUMPI PUSH1 0x0 DUP1 REVERT JUMPDEST POP PUSH2 0x56D PUSH2 0x1225 JUMP JUMPDEST PUSH1 0x40 MLOAD PUSH2 0x57A SWAP2 SWAP1 PUSH2 0x3C73 JUMP JUMPDEST PUSH1 0x40 MLOAD DUP1 SWAP2 SUB SWAP1 RETURN JUMPDEST CALLVALUE DUP1 ISZERO PUSH2 0x58F JUMPI PUSH1 0x0 DUP1 REVERT JUMPDEST POP PUSH2 0x5AA PUSH1 0x4 DUP1 CALLDATASIZE SUB DUP2 ADD SWAP1 PUSH2 0x5A5 SWAP2 SWAP1 PUSH2 0x4270 JUMP JUMPDEST PUSH2 0x1262 JUMP JUMPDEST PUSH1 0x40 MLOAD PUSH2 0x5B7 SWAP2 SWAP1 PUSH2 0x388D JUMP JUMPDEST PUSH1 0x40 MLOAD DUP1 SWAP2 SUB SWAP1 RETURN JUMPDEST CALLVALUE DUP1 ISZERO PUSH2 0x5CC JUMPI PUSH1 0x0 DUP1 REVERT JUMPDEST POP PUSH2 0x5E7 PUSH1 0x4 DUP1 CALLDATASIZE SUB DUP2 ADD SWAP1 PUSH2 0x5E2 SWAP2 SWAP1 PUSH2 0x42B0 JUMP JUMPDEST PUSH2 0x1293 JUMP JUMPDEST PUSH1 0x40 MLOAD PUSH2 0x5F4 SWAP2 SWAP1 PUSH2 0x388D JUMP JUMPDEST PUSH1 0x40 MLOAD DUP1 SWAP2 SUB SWAP1 RETURN JUMPDEST CALLVALUE DUP1 ISZERO PUSH2 0x609 JUMPI PUSH1 0x0 DUP1 REVERT JUMPDEST POP PUSH2 0x624 PUSH1 0x4 DUP1 CALLDATASIZE SUB DUP2 ADD SWAP1 PUSH2 0x61F SWAP2 SWAP1 PUSH2 0x3BC7 JUMP JUMPDEST PUSH2 0x12FD JUMP JUMPDEST PUSH1 0x40 MLOAD PUSH2 0x631 SWAP2 SWAP1 PUSH2 0x388D JUMP JUMPDEST PUSH1 0x40 MLOAD DUP1 SWAP2 SUB SWAP1 RETURN JUMPDEST CALLVALUE DUP1 ISZERO PUSH2 0x646 JUMPI PUSH1 0x0 DUP1 REVERT JUMPDEST POP PUSH2 0x661 PUSH1 0x4 DUP1 CALLDATASIZE SUB DUP2 ADD SWAP1 PUSH2 0x65C SWAP2 SWAP1 PUSH2 0x3BC7 JUMP JUMPDEST PUSH2 0x1449 JUMP JUMPDEST STOP JUMPDEST CALLVALUE DUP1 ISZERO PUSH2 0x66F JUMPI PUSH1 0x0 DUP1 REVERT JUMPDEST POP PUSH2 0x68A PUSH1 0x4 DUP1 CALLDATASIZE SUB DUP2 ADD SWAP1 PUSH2 0x685 SWAP2 SWAP1 PUSH2 0x4354 JUMP JUMPDEST PUSH2 0x1540 JUMP JUMPDEST PUSH1 0x40 MLOAD PUSH2 0x697 SWAP2 SWAP1 PUSH2 0x388D JUMP JUMPDEST PUSH1 0x40 MLOAD DUP1 SWAP2 SUB SWAP1 RETURN JUMPDEST CALLVALUE DUP1 ISZERO PUSH2 0x6AC JUMPI PUSH1 0x0 DUP1 REVERT JUMPDEST POP PUSH2 0x6C7 PUSH1 0x4 DUP1 CALLDATASIZE SUB DUP2 ADD SWAP1 PUSH2 0x6C2 SWAP2 SWAP1 PUSH2 0x4469 JUMP JUMPDEST PUSH2 0x15A8 JUMP JUMPDEST PUSH1 0x40 MLOAD PUSH2 0x6D4 SWAP2 SWAP1 PUSH2 0x388D JUMP JUMPDEST PUSH1 0x40 MLOAD DUP1 SWAP2 SUB SWAP1 RETURN JUMPDEST CALLVALUE DUP1 ISZERO PUSH2 0x6E9 JUMPI PUSH1 0x0 DUP1 REVERT JUMPDEST POP PUSH2 0x6F2 PUSH2 0x18AF JUMP JUMPDEST PUSH1 0x40 MLOAD PUSH2 0x6FF SWAP2 SWAP1 PUSH2 0x388D JUMP JUMPDEST PUSH1 0x40 MLOAD DUP1 SWAP2 SUB SWAP1 RETURN JUMPDEST CALLVALUE DUP1 ISZERO PUSH2 0x714 JUMPI PUSH1 0x0 DUP1 REVERT JUMPDEST POP PUSH2 0x72F PUSH1 0x4 DUP1 CALLDATASIZE SUB DUP2 ADD SWAP1 PUSH2 0x72A SWAP2 SWAP1 PUSH2 0x4540 JUMP JUMPDEST PUSH2 0x18B8 JUMP JUMPDEST PUSH1 0x40 MLOAD PUSH2 0x73C SWAP2 SWAP1 PUSH2 0x388D JUMP JUMPDEST PUSH1 0x40 MLOAD DUP1 SWAP2 SUB SWAP1 RETURN JUMPDEST CALLVALUE DUP1 ISZERO PUSH2 0x751 JUMPI PUSH1 0x0 DUP1 REVERT JUMPDEST POP PUSH2 0x75A PUSH2 0x18CE JUMP JUMPDEST PUSH1 0x40 MLOAD PUSH2 0x767 SWAP2 SWAP1 PUSH2 0x388D JUMP JUMPDEST PUSH1 0x40 MLOAD DUP1 SWAP2 SUB SWAP1 RETURN JUMPDEST CALLVALUE DUP1 ISZERO PUSH2 0x77C JUMPI PUSH1 0x0 DUP1 REVERT JUMPDEST POP PUSH2 0x785 PUSH2 0x1915 JUMP JUMPDEST PUSH1 0x40 MLOAD PUSH2 0x792 SWAP2 SWAP1 PUSH2 0x388D JUMP JUMPDEST PUSH1 0x40 MLOAD DUP1 SWAP2 SUB SWAP1 RETURN JUMPDEST CALLVALUE DUP1 ISZERO PUSH2 0x7A7 JUMPI PUSH1 0x0 DUP1 REVERT JUMPDEST POP PUSH2 0x7C2 PUSH1 0x4 DUP1 CALLDATASIZE SUB DUP2 ADD SWAP1 PUSH2 0x7BD SWAP2 SWAP1 PUSH2 0x45AF JUMP JUMPDEST PUSH2 0x1924 JUMP JUMPDEST PUSH1 0x40 MLOAD PUSH2 0x7CF SWAP2 SWAP1 PUSH2 0x3D85 JUMP JUMPDEST PUSH1 0x40 MLOAD DUP1 SWAP2 SUB SWAP1 RETURN JUMPDEST CALLVALUE DUP1 ISZERO PUSH2 0x7E4 JUMPI PUSH1 0x0 DUP1 REVERT JUMPDEST POP PUSH2 0x7FF PUSH1 0x4 DUP1 CALLDATASIZE SUB DUP2 ADD SWAP1 PUSH2 0x7FA SWAP2 SWAP1 PUSH2 0x3BC7 JUMP JUMPDEST PUSH2 0x1939 JUMP JUMPDEST PUSH1 0x40 MLOAD PUSH2 0x80C SWAP2 SWAP1 PUSH2 0x388D JUMP JUMPDEST PUSH1 0x40 MLOAD DUP1 SWAP2 SUB SWAP1 RETURN JUMPDEST PUSH2 0x82F PUSH1 0x4 DUP1 CALLDATASIZE SUB DUP2 ADD SWAP1 PUSH2 0x82A SWAP2 SWAP1 PUSH2 0x46D4 JUMP JUMPDEST PUSH2 0x19A7 JUMP JUMPDEST STOP JUMPDEST CALLVALUE DUP1 ISZERO PUSH2 0x83D JUMPI PUSH1 0x0 DUP1 REVERT JUMPDEST POP PUSH2 0x858 PUSH1 0x4 DUP1 CALLDATASIZE SUB DUP2 ADD SWAP1 PUSH2 0x853 SWAP2 SWAP1 PUSH2 0x4007 JUMP JUMPDEST PUSH2 0x1B30 JUMP JUMPDEST PUSH1 0x40 MLOAD PUSH2 0x865 SWAP2 SWAP1 PUSH2 0x388D JUMP JUMPDEST PUSH1 0x40 MLOAD DUP1 SWAP2 SUB SWAP1 RETURN JUMPDEST CALLVALUE DUP1 ISZERO PUSH2 0x87A JUMPI PUSH1 0x0 DUP1 REVERT JUMPDEST POP PUSH2 0x883 PUSH2 0x1B6C JUMP JUMPDEST PUSH1 0x40 MLOAD PUSH2 0x890 SWAP2 SWAP1 PUSH2 0x3C73 JUMP JUMPDEST PUSH1 0x40 MLOAD DUP1 SWAP2 SUB SWAP1 RETURN JUMPDEST CALLVALUE DUP1 ISZERO PUSH2 0x8A5 JUMPI PUSH1 0x0 DUP1 REVERT JUMPDEST POP PUSH2 0x8AE PUSH2 0x1BA9 JUMP JUMPDEST PUSH1 0x40 MLOAD PUSH2 0x8BB SWAP2 SWAP1 PUSH2 0x40D1 JUMP JUMPDEST PUSH1 0x40 MLOAD DUP1 SWAP2 SUB SWAP1 RETURN JUMPDEST CALLVALUE DUP1 ISZERO PUSH2 0x8D0 JUMPI PUSH1 0x0 DUP1 REVERT JUMPDEST POP PUSH2 0x8EB PUSH1 0x4 DUP1 CALLDATASIZE SUB DUP2 ADD SWAP1 PUSH2 0x8E6 SWAP2 SWAP1 PUSH2 0x3BC7 JUMP JUMPDEST PUSH2 0x1BCD JUMP JUMPDEST STOP JUMPDEST CALLVALUE DUP1 ISZERO PUSH2 0x8F9 JUMPI PUSH1 0x0 DUP1 REVERT JUMPDEST POP PUSH2 0x914 PUSH1 0x4 DUP1 CALLDATASIZE SUB DUP2 ADD SWAP1 PUSH2 0x90F SWAP2 SWAP1 PUSH2 0x4748 JUMP JUMPDEST PUSH2 0x1CC4 JUMP JUMPDEST PUSH1 0x40 MLOAD PUSH2 0x921 SWAP2 SWAP1 PUSH2 0x388D JUMP JUMPDEST PUSH1 0x40 MLOAD DUP1 SWAP2 SUB SWAP1 RETURN JUMPDEST CALLVALUE DUP1 ISZERO PUSH2 0x936 JUMPI PUSH1 0x0 DUP1 REVERT JUMPDEST POP PUSH2 0x951 PUSH1 0x4 DUP1 CALLDATASIZE SUB DUP2 ADD SWAP1 PUSH2 0x94C SWAP2 SWAP1 PUSH2 0x3BC7 JUMP JUMPDEST PUSH2 0x1CE0 JUMP JUMPDEST STOP JUMPDEST CALLVALUE DUP1 ISZERO PUSH2 0x95F JUMPI PUSH1 0x0 DUP1 REVERT JUMPDEST POP PUSH2 0x97A PUSH1 0x4 DUP1 CALLDATASIZE SUB DUP2 ADD SWAP1 PUSH2 0x975 SWAP2 SWAP1 PUSH2 0x4788 JUMP JUMPDEST PUSH2 0x1DD7 JUMP JUMPDEST PUSH1 0x40 MLOAD PUSH2 0x987 SWAP2 SWAP1 PUSH2 0x3D85 JUMP JUMPDEST PUSH1 0x40 MLOAD DUP1 SWAP2 SUB SWAP1 RETURN JUMPDEST CALLVALUE DUP1 ISZERO PUSH2 0x99C JUMPI PUSH1 0x0 DUP1 REVERT JUMPDEST POP PUSH2 0x9B7 PUSH1 0x4 DUP1 CALLDATASIZE SUB DUP2 ADD SWAP1 PUSH2 0x9B2 SWAP2 SWAP1 PUSH2 0x3BC7 JUMP JUMPDEST PUSH2 0x1DEC JUMP JUMPDEST PUSH1 0x40 MLOAD PUSH2 0x9C4 SWAP2 SWAP1 PUSH2 0x388D JUMP JUMPDEST PUSH1 0x40 MLOAD DUP1 SWAP2 SUB SWAP1 RETURN JUMPDEST CALLVALUE DUP1 ISZERO PUSH2 0x9D9 JUMPI PUSH1 0x0 DUP1 REVERT JUMPDEST POP PUSH2 0x9E2 PUSH2 0x1DFE JUMP JUMPDEST PUSH1 0x40 MLOAD PUSH2 0x9EF SWAP2 SWAP1 PUSH2 0x487E JUMP JUMPDEST PUSH1 0x40 MLOAD DUP1 SWAP2 SUB SWAP1 RETURN JUMPDEST PUSH1 0x0 ADDRESS SWAP1 POP SWAP1 JUMP JUMPDEST PUSH1 0x0 PUSH4 0x9A802A6D PUSH1 0xE0 SHL PUSH4 0x3420181 PUSH1 0xE0 SHL PUSH4 0x5F398A14 PUSH1 0xE0 SHL PUSH32 0x79DD796F00000000000000000000000000000000000000000000000000000000 XOR XOR XOR PUSH28 0xFFFFFFFFFFFFFFFFFFFFFFFFFFFFFFFFFFFFFFFFFFFFFFFFFFFFFFFF NOT AND DUP3 PUSH28 0xFFFFFFFFFFFFFFFFFFFFFFFFFFFFFFFFFFFFFFFFFFFFFFFFFFFFFFFF NOT AND EQ DUP1 PUSH2 0xAE6 JUMPI POP PUSH32 0x79DD796F00000000000000000000000000000000000000000000000000000000 PUSH28 0xFFFFFFFFFFFFFFFFFFFFFFFFFFFFFFFFFFFFFFFFFFFFFFFFFFFFFFFF NOT AND DUP3 PUSH28 0xFFFFFFFFFFFFFFFFFFFFFFFFFFFFFFFFFFFFFFFFFFFFFFFFFFFFFFFF NOT AND EQ JUMPDEST DUP1 PUSH2 0xB4E JUMPI POP PUSH32 0x4E2312E000000000000000000000000000000000000000000000000000000000 PUSH28 0xFFFFFFFFFFFFFFFFFFFFFFFFFFFFFFFFFFFFFFFFFFFFFFFFFFFFFFFF NOT AND DUP3 PUSH28 0xFFFFFFFFFFFFFFFFFFFFFFFFFFFFFFFFFFFFFFFFFFFFFFFFFFFFFFFF NOT AND EQ JUMPDEST DUP1 PUSH2 0xB5E JUMPI POP PUSH2 0xB5D DUP3 PUSH2 0x1FB8 JUMP JUMPDEST JUMPDEST SWAP1 POP SWAP2 SWAP1 POP JUMP JUMPDEST PUSH1 0x0 PUSH2 0xB6F PUSH2 0x2022 JUMP JUMPDEST SWAP1 POP SWAP1 JUMP JUMPDEST PUSH1 0x0 DUP1 PUSH2 0xBF7 PUSH2 0xBEF PUSH32 0xB3B3F3B703CD84CE352197DCFF232B1B5D3CFB2025CE47CF04742D0651F1AF88 DUP13 DUP13 DUP13 DUP13 PUSH1 0x40 MLOAD PUSH2 0xBB0 SWAP3 SWAP2 SWAP1 PUSH2 0x48C9 JUMP JUMPDEST PUSH1 0x40 MLOAD DUP1 SWAP2 SUB SWAP1 KECCAK256 DUP12 DUP1 MLOAD SWAP1 PUSH1 0x20 ADD KECCAK256 PUSH1 0x40 MLOAD PUSH1 0x20 ADD PUSH2 0xBD4 SWAP6 SWAP5 SWAP4 SWAP3 SWAP2 SWAP1 PUSH2 0x48F1 JUMP JUMPDEST PUSH1 0x40 MLOAD PUSH1 0x20 DUP2 DUP4 SUB SUB DUP2 MSTORE SWAP1 PUSH1 0x40 MSTORE DUP1 MLOAD SWAP1 PUSH1 0x20 ADD KECCAK256 PUSH2 0x202C JUMP JUMPDEST DUP7 DUP7 DUP7 PUSH2 0x2046 JUMP JUMPDEST SWAP1 POP PUSH2 0xC4A DUP11 DUP3 DUP12 DUP12 DUP12 DUP1 DUP1 PUSH1 0x1F ADD PUSH1 0x20 DUP1 SWAP2 DIV MUL PUSH1 0x20 ADD PUSH1 0x40 MLOAD SWAP1 DUP2 ADD PUSH1 0x40 MSTORE DUP1 SWAP4 SWAP3 SWAP2 SWAP1 DUP2 DUP2 MSTORE PUSH1 0x20 ADD DUP4 DUP4 DUP1 DUP3 DUP5 CALLDATACOPY PUSH1 0x0 DUP2 DUP5 ADD MSTORE PUSH1 0x1F NOT PUSH1 0x1F DUP3 ADD AND SWAP1 POP DUP1 DUP4 ADD SWAP3 POP POP POP POP POP POP POP DUP11 PUSH2 0x2071 JUMP JUMPDEST SWAP2 POP POP SWAP9 SWAP8 POP POP POP POP POP POP POP POP JUMP JUMPDEST PUSH2 0xC61 PUSH2 0x9F8 JUMP JUMPDEST PUSH20 0xFFFFFFFFFFFFFFFFFFFFFFFFFFFFFFFFFFFFFFFF AND PUSH2 0xC7F PUSH2 0x222D JUMP JUMPDEST PUSH20 0xFFFFFFFFFFFFFFFFFFFFFFFFFFFFFFFFFFFFFFFF AND EQ PUSH2 0xCD5 JUMPI PUSH1 0x40 MLOAD PUSH32 0x8C379A000000000000000000000000000000000000000000000000000000000 DUP2 MSTORE PUSH1 0x4 ADD PUSH2 0xCCC SWAP1 PUSH2 0x4990 JUMP JUMPDEST PUSH1 0x40 MLOAD DUP1 SWAP2 SUB SWAP1 REVERT JUMPDEST ADDRESS PUSH20 0xFFFFFFFFFFFFFFFFFFFFFFFFFFFFFFFFFFFFFFFF AND PUSH2 0xCF4 PUSH2 0x9F8 JUMP JUMPDEST PUSH20 0xFFFFFFFFFFFFFFFFFFFFFFFFFFFFFFFFFFFFFFFF AND EQ PUSH2 0xD44 JUMPI PUSH1 0x0 PUSH2 0xD19 PUSH2 0x2235 JUMP JUMPDEST PUSH1 0x40 MLOAD PUSH2 0xD27 SWAP3 SWAP2 SWAP1 PUSH2 0x48C9 JUMP JUMPDEST PUSH1 0x40 MLOAD DUP1 SWAP2 SUB SWAP1 KECCAK256 SWAP1 POP JUMPDEST DUP1 PUSH2 0xD3D PUSH1 0x2 PUSH2 0x2242 JUMP JUMPDEST SUB PUSH2 0xD32 JUMPI POP JUMPDEST PUSH2 0xD4D DUP2 PUSH2 0x231E JUMP JUMPDEST POP JUMP JUMPDEST PUSH1 0x60 PUSH1 0x0 DUP1 SLOAD PUSH2 0xD5F SWAP1 PUSH2 0x49DF JUMP JUMPDEST DUP1 PUSH1 0x1F ADD PUSH1 0x20 DUP1 SWAP2 DIV MUL PUSH1 0x20 ADD PUSH1 0x40 MLOAD SWAP1 DUP2 ADD PUSH1 0x40 MSTORE DUP1 SWAP3 SWAP2 SWAP1 DUP2 DUP2 MSTORE PUSH1 0x20 ADD DUP3 DUP1 SLOAD PUSH2 0xD8B SWAP1 PUSH2 0x49DF JUMP JUMPDEST DUP1 ISZERO PUSH2 0xDD8 JUMPI DUP1 PUSH1 0x1F LT PUSH2 0xDAD JUMPI PUSH2 0x100 DUP1 DUP4 SLOAD DIV MUL DUP4 MSTORE SWAP2 PUSH1 0x20 ADD SWAP2 PUSH2 0xDD8 JUMP JUMPDEST DUP3 ADD SWAP2 SWAP1 PUSH1 0x0 MSTORE PUSH1 0x20 PUSH1 0x0 KECCAK256 SWAP1 JUMPDEST DUP2 SLOAD DUP2 MSTORE SWAP1 PUSH1 0x1 ADD SWAP1 PUSH1 0x20 ADD DUP1 DUP4 GT PUSH2 0xDBB JUMPI DUP3 SWAP1 SUB PUSH1 0x1F AND DUP3 ADD SWAP2 JUMPDEST POP POP POP POP POP SWAP1 POP SWAP1 JUMP JUMPDEST PUSH1 0x0 PUSH4 0x150B7A02 PUSH1 0xE0 SHL SWAP1 POP SWAP5 SWAP4 POP POP POP POP JUMP JUMPDEST PUSH1 0x0 DUP1 PUSH2 0xE05 DUP7 DUP7 DUP7 DUP7 PUSH2 0x1B30 JUMP JUMPDEST SWAP1 POP PUSH1 0x0 PUSH2 0xE12 DUP3 PUSH2 0x106E JUMP JUMPDEST SWAP1 POP PUSH1 0x4 PUSH1 0x7 DUP2 GT ISZERO PUSH2 0xE28 JUMPI PUSH2 0xE27 PUSH2 0x4167 JUMP JUMPDEST JUMPDEST DUP2 PUSH1 0x7 DUP2 GT ISZERO PUSH2 0xE3B JUMPI PUSH2 0xE3A PUSH2 0x4167 JUMP JUMPDEST JUMPDEST EQ DUP1 PUSH2 0xE6B JUMPI POP PUSH1 0x5 PUSH1 0x7 DUP2 GT ISZERO PUSH2 0xE56 JUMPI PUSH2 0xE55 PUSH2 0x4167 JUMP JUMPDEST JUMPDEST DUP2 PUSH1 0x7 DUP2 GT ISZERO PUSH2 0xE69 JUMPI PUSH2 0xE68 PUSH2 0x4167 JUMP JUMPDEST JUMPDEST EQ JUMPDEST PUSH2 0xEAA JUMPI PUSH1 0x40 MLOAD PUSH32 0x8C379A000000000000000000000000000000000000000000000000000000000 DUP2 MSTORE PUSH1 0x4 ADD PUSH2 0xEA1 SWAP1 PUSH2 0x4A82 JUMP JUMPDEST PUSH1 0x40 MLOAD DUP1 SWAP2 SUB SWAP1 REVERT JUMPDEST PUSH1 0x1 DUP1 PUSH1 0x0 DUP5 DUP2 MSTORE PUSH1 0x20 ADD SWAP1 DUP2 MSTORE PUSH1 0x20 ADD PUSH1 0x0 KECCAK256 PUSH1 0x2 ADD PUSH1 0x0 PUSH2 0x100 EXP DUP2 SLOAD DUP2 PUSH1 0xFF MUL NOT AND SWAP1 DUP4 ISZERO ISZERO MUL OR SWAP1 SSTORE POP PUSH32 0x712AE1383F79AC853F8D882153778E0260EF8F03B504E2866E0593E04D2B291F DUP3 PUSH1 0x40 MLOAD PUSH2 0xF07 SWAP2 SWAP1 PUSH2 0x388D JUMP JUMPDEST PUSH1 0x40 MLOAD DUP1 SWAP2 SUB SWAP1 LOG1 PUSH2 0xF1C DUP3 DUP9 DUP9 DUP9 DUP9 PUSH2 0x24D2 JUMP JUMPDEST PUSH2 0xF29 DUP3 DUP9 DUP9 DUP9 DUP9 PUSH2 0x25B5 JUMP JUMPDEST PUSH2 0xF36 DUP3 DUP9 DUP9 DUP9 DUP9 PUSH2 0x26C4 JUMP JUMPDEST DUP2 SWAP3 POP POP POP SWAP5 SWAP4 POP POP POP POP JUMP JUMPDEST PUSH1 0x0 PUSH2 0xFA0 PUSH1 0x1 PUSH1 0x0 DUP5 DUP2 MSTORE PUSH1 0x20 ADD SWAP1 DUP2 MSTORE PUSH1 0x20 ADD PUSH1 0x0 KECCAK256 PUSH1 0x0 ADD PUSH1 0x40 MLOAD DUP1 PUSH1 0x20 ADD PUSH1 0x40 MSTORE SWAP1 DUP2 PUSH1 0x0 DUP3 ADD PUSH1 0x0 SWAP1 SLOAD SWAP1 PUSH2 0x100 EXP SWAP1 DIV PUSH8 0xFFFFFFFFFFFFFFFF AND PUSH8 0xFFFFFFFFFFFFFFFF AND PUSH8 0xFFFFFFFFFFFFFFFF AND DUP2 MSTORE POP POP PUSH2 0x271F JUMP JUMPDEST PUSH8 0xFFFFFFFFFFFFFFFF AND SWAP1 POP SWAP2 SWAP1 POP JUMP JUMPDEST PUSH32 0xB3B3F3B703CD84CE352197DCFF232B1B5D3CFB2025CE47CF04742D0651F1AF88 DUP2 JUMP JUMPDEST PUSH1 0x0 PUSH2 0xFDF PUSH2 0x272D JUMP JUMPDEST SWAP1 POP SWAP1 JUMP JUMPDEST PUSH1 0x0 DUP1 PUSH2 0x1045 PUSH2 0x103D PUSH32 0x150214D74D59B7D1E90C73FC22EF3D991DD0A76B046543D4D80AB92D2A50328F DUP10 DUP10 PUSH1 0x40 MLOAD PUSH1 0x20 ADD PUSH2 0x1022 SWAP4 SWAP3 SWAP2 SWAP1 PUSH2 0x4AA2 JUMP JUMPDEST PUSH1 0x40 MLOAD PUSH1 0x20 DUP2 DUP4 SUB SUB DUP2 MSTORE SWAP1 PUSH1 0x40 MSTORE DUP1 MLOAD SWAP1 PUSH1 0x20 ADD KECCAK256 PUSH2 0x202C JUMP JUMPDEST DUP7 DUP7 DUP7 PUSH2 0x2046 JUMP JUMPDEST SWAP1 POP PUSH2 0x1062 DUP8 DUP3 DUP9 PUSH1 0x40 MLOAD DUP1 PUSH1 0x20 ADD PUSH1 0x40 MSTORE DUP1 PUSH1 0x0 DUP2 MSTORE POP PUSH2 0x2737 JUMP JUMPDEST SWAP2 POP POP SWAP6 SWAP5 POP POP POP POP POP JUMP JUMPDEST PUSH1 0x0 DUP1 PUSH1 0x1 PUSH1 0x0 DUP5 DUP2 MSTORE PUSH1 0x20 ADD SWAP1 DUP2 MSTORE PUSH1 0x20 ADD PUSH1 0x0 KECCAK256 SWAP1 POP DUP1 PUSH1 0x2 ADD PUSH1 0x0 SWAP1 SLOAD SWAP1 PUSH2 0x100 EXP SWAP1 DIV PUSH1 0xFF AND ISZERO PUSH2 0x10A7 JUMPI PUSH1 0x7 SWAP2 POP POP PUSH2 0x117D JUMP JUMPDEST DUP1 PUSH1 0x2 ADD PUSH1 0x1 SWAP1 SLOAD SWAP1 PUSH2 0x100 EXP SWAP1 DIV PUSH1 0xFF AND ISZERO PUSH2 0x10C8 JUMPI PUSH1 0x2 SWAP2 POP POP PUSH2 0x117D JUMP JUMPDEST PUSH1 0x0 PUSH2 0x10D3 DUP5 PUSH2 0xF43 JUMP JUMPDEST SWAP1 POP PUSH1 0x0 DUP2 SUB PUSH2 0x1118 JUMPI PUSH1 0x40 MLOAD PUSH32 0x8C379A000000000000000000000000000000000000000000000000000000000 DUP2 MSTORE PUSH1 0x4 ADD PUSH2 0x110F SWAP1 PUSH2 0x4B25 JUMP JUMPDEST PUSH1 0x40 MLOAD DUP1 SWAP2 SUB SWAP1 REVERT JUMPDEST NUMBER DUP2 LT PUSH2 0x112A JUMPI PUSH1 0x0 SWAP3 POP POP POP PUSH2 0x117D JUMP JUMPDEST PUSH1 0x0 PUSH2 0x1135 DUP6 PUSH2 0x1939 JUMP JUMPDEST SWAP1 POP NUMBER DUP2 LT PUSH2 0x114A JUMPI PUSH1 0x1 SWAP4 POP POP POP POP PUSH2 0x117D JUMP JUMPDEST PUSH2 0x1153 DUP6 PUSH2 0x2757 JUMP JUMPDEST DUP1 ISZERO PUSH2 0x1164 JUMPI POP PUSH2 0x1163 DUP6 PUSH2 0x279E JUMP JUMPDEST JUMPDEST ISZERO PUSH2 0x1175 JUMPI PUSH1 0x4 SWAP4 POP POP POP POP PUSH2 0x117D JUMP JUMPDEST PUSH1 0x3 SWAP4 POP POP POP POP JUMPDEST SWAP2 SWAP1 POP JUMP JUMPDEST PUSH1 0x0 PUSH1 0x7 PUSH1 0x0 DUP5 DUP2 MSTORE PUSH1 0x20 ADD SWAP1 DUP2 MSTORE PUSH1 0x20 ADD PUSH1 0x0 KECCAK256 PUSH1 0x3 ADD PUSH1 0x0 DUP4 PUSH20 0xFFFFFFFFFFFFFFFFFFFFFFFFFFFFFFFFFFFFFFFF AND PUSH20 0xFFFFFFFFFFFFFFFFFFFFFFFFFFFFFFFFFFFFFFFF AND DUP2 MSTORE PUSH1 0x20 ADD SWAP1 DUP2 MSTORE PUSH1 0x20 ADD PUSH1 0x0 KECCAK256 PUSH1 0x0 SWAP1 SLOAD SWAP1 PUSH2 0x100 EXP SWAP1 DIV PUSH1 0xFF AND SWAP1 POP SWAP3 SWAP2 POP POP JUMP JUMPDEST PUSH1 0x0 DUP1 PUSH1 0x0 DUP1 PUSH1 0x7 PUSH1 0x0 DUP7 DUP2 MSTORE PUSH1 0x20 ADD SWAP1 DUP2 MSTORE PUSH1 0x20 ADD PUSH1 0x0 KECCAK256 SWAP1 POP DUP1 PUSH1 0x0 ADD SLOAD DUP2 PUSH1 0x1 ADD SLOAD DUP3 PUSH1 0x2 ADD SLOAD SWAP4 POP SWAP4 POP SWAP4 POP POP SWAP2 SWAP4 SWAP1 SWAP3 POP JUMP JUMPDEST PUSH1 0x60 PUSH1 0x40 MLOAD DUP1 PUSH1 0x40 ADD PUSH1 0x40 MSTORE DUP1 PUSH1 0x1 DUP2 MSTORE PUSH1 0x20 ADD PUSH32 0x3100000000000000000000000000000000000000000000000000000000000000 DUP2 MSTORE POP SWAP1 POP SWAP1 JUMP JUMPDEST PUSH1 0x0 DUP1 PUSH2 0x126D PUSH2 0x222D JUMP JUMPDEST SWAP1 POP PUSH2 0x128A DUP5 DUP3 DUP6 PUSH1 0x40 MLOAD DUP1 PUSH1 0x20 ADD PUSH1 0x40 MSTORE DUP1 PUSH1 0x0 DUP2 MSTORE POP PUSH2 0x2737 JUMP JUMPDEST SWAP2 POP POP SWAP3 SWAP2 POP POP JUMP JUMPDEST PUSH1 0x0 DUP1 PUSH2 0x129E PUSH2 0x222D JUMP JUMPDEST SWAP1 POP PUSH2 0x12F1 DUP8 DUP3 DUP9 DUP9 DUP9 DUP1 DUP1 PUSH1 0x1F ADD PUSH1 0x20 DUP1 SWAP2 DIV MUL PUSH1 0x20 ADD PUSH1 0x40 MLOAD SWAP1 DUP2 ADD PUSH1 0x40 MSTORE DUP1 SWAP4 SWAP3 SWAP2 SWAP1 DUP2 DUP2 MSTORE PUSH1 0x20 ADD DUP4 DUP4 DUP1 DUP3 DUP5 CALLDATACOPY PUSH1 0x0 DUP2 DUP5 ADD MSTORE PUSH1 0x1F NOT PUSH1 0x1F DUP3 ADD AND SWAP1 POP DUP1 DUP4 ADD SWAP3 POP POP POP POP POP POP POP DUP8 PUSH2 0x2071 JUMP JUMPDEST SWAP2 POP POP SWAP6 SWAP5 POP POP POP POP POP JUMP JUMPDEST PUSH1 0x0 DUP1 PUSH1 0x9 PUSH1 0x0 ADD DUP1 SLOAD SWAP1 POP SWAP1 POP PUSH1 0x0 DUP2 SUB PUSH2 0x131E JUMPI PUSH1 0x8 SLOAD SWAP2 POP POP PUSH2 0x1444 JUMP JUMPDEST PUSH1 0x0 PUSH1 0x9 PUSH1 0x0 ADD PUSH1 0x1 DUP4 PUSH2 0x1332 SWAP2 SWAP1 PUSH2 0x4B74 JUMP JUMPDEST DUP2 SLOAD DUP2 LT PUSH2 0x1343 JUMPI PUSH2 0x1342 PUSH2 0x4BA8 JUMP JUMPDEST JUMPDEST SWAP1 PUSH1 0x0 MSTORE PUSH1 0x20 PUSH1 0x0 KECCAK256 ADD PUSH1 0x40 MLOAD DUP1 PUSH1 0x40 ADD PUSH1 0x40 MSTORE SWAP1 DUP2 PUSH1 0x0 DUP3 ADD PUSH1 0x0 SWAP1 SLOAD SWAP1 PUSH2 0x100 EXP SWAP1 DIV PUSH4 0xFFFFFFFF AND PUSH4 0xFFFFFFFF AND PUSH4 0xFFFFFFFF AND DUP2 MSTORE PUSH1 0x20 ADD PUSH1 0x0 DUP3 ADD PUSH1 0x4 SWAP1 SLOAD SWAP1 PUSH2 0x100 EXP SWAP1 DIV PUSH28 0xFFFFFFFFFFFFFFFFFFFFFFFFFFFFFFFFFFFFFFFFFFFFFFFFFFFFFFFF AND PUSH28 0xFFFFFFFFFFFFFFFFFFFFFFFFFFFFFFFFFFFFFFFFFFFFFFFFFFFFFFFF AND PUSH28 0xFFFFFFFFFFFFFFFFFFFFFFFFFFFFFFFFFFFFFFFFFFFFFFFFFFFFFFFF AND DUP2 MSTORE POP POP SWAP1 POP DUP4 DUP2 PUSH1 0x0 ADD MLOAD PUSH4 0xFFFFFFFF AND GT PUSH2 0x142B JUMPI DUP1 PUSH1 0x20 ADD MLOAD PUSH28 0xFFFFFFFFFFFFFFFFFFFFFFFFFFFFFFFFFFFFFFFFFFFFFFFFFFFFFFFF AND SWAP3 POP POP POP PUSH2 0x1444 JUMP JUMPDEST PUSH2 0x143F DUP5 PUSH1 0x9 PUSH2 0x27C9 SWAP1 SWAP2 SWAP1 PUSH4 0xFFFFFFFF AND JUMP JUMPDEST SWAP3 POP POP POP JUMPDEST SWAP2 SWAP1 POP JUMP JUMPDEST PUSH2 0x1451 PUSH2 0x9F8 JUMP JUMPDEST PUSH20 0xFFFFFFFFFFFFFFFFFFFFFFFFFFFFFFFFFFFFFFFF AND PUSH2 0x146F PUSH2 0x222D JUMP JUMPDEST PUSH20 0xFFFFFFFFFFFFFFFFFFFFFFFFFFFFFFFFFFFFFFFF AND EQ PUSH2 0x14C5 JUMPI PUSH1 0x40 MLOAD PUSH32 0x8C379A000000000000000000000000000000000000000000000000000000000 DUP2 MSTORE PUSH1 0x4 ADD PUSH2 0x14BC SWAP1 PUSH2 0x4990 JUMP JUMPDEST PUSH1 0x40 MLOAD DUP1 SWAP2 SUB SWAP1 REVERT JUMPDEST ADDRESS PUSH20 0xFFFFFFFFFFFFFFFFFFFFFFFFFFFFFFFFFFFFFFFF AND PUSH2 0x14E4 PUSH2 0x9F8 JUMP JUMPDEST PUSH20 0xFFFFFFFFFFFFFFFFFFFFFFFFFFFFFFFFFFFFFFFF AND EQ PUSH2 0x1534 JUMPI PUSH1 0x0 PUSH2 0x1509 PUSH2 0x2235 JUMP JUMPDEST PUSH1 0x40 MLOAD PUSH2 0x1517 SWAP3 SWAP2 SWAP1 PUSH2 0x48C9 JUMP JUMPDEST PUSH1 0x40 MLOAD DUP1 SWAP2 SUB SWAP1 KECCAK256 SWAP1 POP JUMPDEST DUP1 PUSH2 0x152D PUSH1 0x2 PUSH2 0x2242 JUMP JUMPDEST SUB PUSH2 0x1522 JUMPI POP JUMPDEST PUSH2 0x153D DUP2 PUSH2 0x28B8 JUMP JUMPDEST POP JUMP JUMPDEST PUSH1 0x0 DUP1 PUSH2 0x154B PUSH2 0x222D JUMP JUMPDEST SWAP1 POP PUSH2 0x159D DUP7 DUP3 DUP8 DUP8 DUP8 DUP1 DUP1 PUSH1 0x1F ADD PUSH1 0x20 DUP1 SWAP2 DIV MUL PUSH1 0x20 ADD PUSH1 0x40 MLOAD SWAP1 DUP2 ADD PUSH1 0x40 MSTORE DUP1 SWAP4 SWAP3 SWAP2 SWAP1 DUP2 DUP2 MSTORE PUSH1 0x20 ADD DUP4 DUP4 DUP1 DUP3 DUP5 CALLDATACOPY PUSH1 0x0 DUP2 DUP5 ADD MSTORE PUSH1 0x1F NOT PUSH1 0x1F DUP3 ADD AND SWAP1 POP DUP1 DUP4 ADD SWAP3 POP POP POP POP POP POP POP PUSH2 0x2737 JUMP JUMPDEST SWAP2 POP POP SWAP5 SWAP4 POP POP POP POP JUMP JUMPDEST PUSH1 0x0 PUSH2 0x15B2 PUSH2 0x1915 JUMP JUMPDEST PUSH2 0x15CF PUSH2 0x15BD PUSH2 0x222D JUMP JUMPDEST PUSH1 0x1 NUMBER PUSH2 0x15CA SWAP2 SWAP1 PUSH2 0x4B74 JUMP JUMPDEST PUSH2 0x1CC4 JUMP JUMPDEST LT ISZERO PUSH2 0x1610 JUMPI PUSH1 0x40 MLOAD PUSH32 0x8C379A000000000000000000000000000000000000000000000000000000000 DUP2 MSTORE PUSH1 0x4 ADD PUSH2 0x1607 SWAP1 PUSH2 0x4C49 JUMP JUMPDEST PUSH1 0x40 MLOAD DUP1 SWAP2 SUB SWAP1 REVERT JUMPDEST PUSH1 0x0 PUSH2 0x1625 DUP7 DUP7 DUP7 DUP7 DUP1 MLOAD SWAP1 PUSH1 0x20 ADD KECCAK256 PUSH2 0x1B30 JUMP JUMPDEST SWAP1 POP DUP5 MLOAD DUP7 MLOAD EQ PUSH2 0x166B JUMPI PUSH1 0x40 MLOAD PUSH32 0x8C379A000000000000000000000000000000000000000000000000000000000 DUP2 MSTORE PUSH1 0x4 ADD PUSH2 0x1662 SWAP1 PUSH2 0x4CDB JUMP JUMPDEST PUSH1 0x40 MLOAD DUP1 SWAP2 SUB SWAP1 REVERT JUMPDEST DUP4 MLOAD DUP7 MLOAD EQ PUSH2 0x16AF JUMPI PUSH1 0x40 MLOAD PUSH32 0x8C379A000000000000000000000000000000000000000000000000000000000 DUP2 MSTORE PUSH1 0x4 ADD PUSH2 0x16A6 SWAP1 PUSH2 0x4CDB JUMP JUMPDEST PUSH1 0x40 MLOAD DUP1 SWAP2 SUB SWAP1 REVERT JUMPDEST PUSH1 0x0 DUP7 MLOAD GT PUSH2 0x16F3 JUMPI PUSH1 0x40 MLOAD PUSH32 0x8C379A000000000000000000000000000000000000000000000000000000000 DUP2 MSTORE PUSH1 0x4 ADD PUSH2 0x16EA SWAP1 PUSH2 0x4D47 JUMP JUMPDEST PUSH1 0x40 MLOAD DUP1 SWAP2 SUB SWAP1 REVERT JUMPDEST PUSH1 0x0 PUSH1 0x1 PUSH1 0x0 DUP4 DUP2 MSTORE PUSH1 0x20 ADD SWAP1 DUP2 MSTORE PUSH1 0x20 ADD PUSH1 0x0 KECCAK256 SWAP1 POP PUSH2 0x1753 DUP2 PUSH1 0x0 ADD PUSH1 0x40 MLOAD DUP1 PUSH1 0x20 ADD PUSH1 0x40 MSTORE SWAP1 DUP2 PUSH1 0x0 DUP3 ADD PUSH1 0x0 SWAP1 SLOAD SWAP1 PUSH2 0x100 EXP SWAP1 DIV PUSH8 0xFFFFFFFFFFFFFFFF AND PUSH8 0xFFFFFFFFFFFFFFFF AND PUSH8 0xFFFFFFFFFFFFFFFF AND DUP2 MSTORE POP POP PUSH2 0x28FD JUMP JUMPDEST PUSH2 0x1792 JUMPI PUSH1 0x40 MLOAD PUSH32 0x8C379A000000000000000000000000000000000000000000000000000000000 DUP2 MSTORE PUSH1 0x4 ADD PUSH2 0x1789 SWAP1 PUSH2 0x4DD9 JUMP JUMPDEST PUSH1 0x40 MLOAD DUP1 SWAP2 SUB SWAP1 REVERT JUMPDEST PUSH1 0x0 PUSH2 0x17A4 PUSH2 0x179F PUSH2 0xFD5 JUMP JUMPDEST PUSH2 0x2917 JUMP JUMPDEST PUSH2 0x17AD NUMBER PUSH2 0x2917 JUMP JUMPDEST PUSH2 0x17B7 SWAP2 SWAP1 PUSH2 0x4E0D JUMP JUMPDEST SWAP1 POP PUSH1 0x0 PUSH2 0x17CB PUSH2 0x17C6 PUSH2 0xB65 JUMP JUMPDEST PUSH2 0x2917 JUMP JUMPDEST DUP3 PUSH2 0x17D6 SWAP2 SWAP1 PUSH2 0x4E0D JUMP JUMPDEST SWAP1 POP PUSH2 0x17EE DUP3 DUP5 PUSH1 0x0 ADD PUSH2 0x296E SWAP1 SWAP2 SWAP1 PUSH4 0xFFFFFFFF AND JUMP JUMPDEST PUSH2 0x1804 DUP2 DUP5 PUSH1 0x1 ADD PUSH2 0x296E SWAP1 SWAP2 SWAP1 PUSH4 0xFFFFFFFF AND JUMP JUMPDEST PUSH32 0x7D84A6263AE0D98D3329BD7B46BB4E8D6F98CD35A7ADB45C274C8B7FD5EBD5E0 DUP5 PUSH2 0x182E PUSH2 0x222D JUMP JUMPDEST DUP12 DUP12 DUP14 MLOAD PUSH8 0xFFFFFFFFFFFFFFFF DUP2 GT ISZERO PUSH2 0x184B JUMPI PUSH2 0x184A PUSH2 0x3988 JUMP JUMPDEST JUMPDEST PUSH1 0x40 MLOAD SWAP1 DUP1 DUP3 MSTORE DUP1 PUSH1 0x20 MUL PUSH1 0x20 ADD DUP3 ADD PUSH1 0x40 MSTORE DUP1 ISZERO PUSH2 0x187E JUMPI DUP2 PUSH1 0x20 ADD JUMPDEST PUSH1 0x60 DUP2 MSTORE PUSH1 0x20 ADD SWAP1 PUSH1 0x1 SWAP1 SUB SWAP1 DUP2 PUSH2 0x1869 JUMPI SWAP1 POP JUMPDEST POP DUP13 DUP9 DUP9 DUP15 PUSH1 0x40 MLOAD PUSH2 0x1898 SWAP10 SWAP9 SWAP8 SWAP7 SWAP6 SWAP5 SWAP4 SWAP3 SWAP2 SWAP1 PUSH2 0x5228 JUMP JUMPDEST PUSH1 0x40 MLOAD DUP1 SWAP2 SUB SWAP1 LOG1 DUP4 SWAP5 POP POP POP POP POP SWAP5 SWAP4 POP POP POP POP JUMP JUMPDEST PUSH1 0x0 PUSH1 0x64 SWAP1 POP SWAP1 JUMP JUMPDEST PUSH1 0x0 PUSH2 0x18C5 DUP5 DUP5 DUP5 PUSH2 0x299D JUMP JUMPDEST SWAP1 POP SWAP4 SWAP3 POP POP POP JUMP JUMPDEST PUSH1 0x0 DUP1 PUSH1 0x9 PUSH1 0x0 ADD DUP1 SLOAD SWAP1 POP EQ PUSH2 0x190C JUMPI PUSH2 0x18E9 PUSH1 0x9 PUSH2 0x1EFB JUMP JUMPDEST PUSH28 0xFFFFFFFFFFFFFFFFFFFFFFFFFFFFFFFFFFFFFFFFFFFFFFFFFFFFFFFF AND PUSH2 0x1910 JUMP JUMPDEST PUSH1 0x8 SLOAD JUMPDEST SWAP1 POP SWAP1 JUMP JUMPDEST PUSH1 0x0 PUSH2 0x191F PUSH2 0x2A44 JUMP JUMPDEST SWAP1 POP SWAP1 JUMP JUMPDEST PUSH1 0x0 PUSH4 0xBC197C81 PUSH1 0xE0 SHL SWAP1 POP SWAP6 SWAP5 POP POP POP POP POP JUMP JUMPDEST PUSH1 0x0 PUSH2 0x1996 PUSH1 0x1 PUSH1 0x0 DUP5 DUP2 MSTORE PUSH1 0x20 ADD SWAP1 DUP2 MSTORE PUSH1 0x20 ADD PUSH1 0x0 KECCAK256 PUSH1 0x1 ADD PUSH1 0x40 MLOAD DUP1 PUSH1 0x20 ADD PUSH1 0x40 MSTORE SWAP1 DUP2 PUSH1 0x0 DUP3 ADD PUSH1 0x0 SWAP1 SLOAD SWAP1 PUSH2 0x100 EXP SWAP1 DIV PUSH8 0xFFFFFFFFFFFFFFFF AND PUSH8 0xFFFFFFFFFFFFFFFF AND PUSH8 0xFFFFFFFFFFFFFFFF AND DUP2 MSTORE POP POP PUSH2 0x271F JUMP JUMPDEST PUSH8 0xFFFFFFFFFFFFFFFF AND SWAP1 POP SWAP2 SWAP1 POP JUMP JUMPDEST PUSH2 0x19AF PUSH2 0x9F8 JUMP JUMPDEST PUSH20 0xFFFFFFFFFFFFFFFFFFFFFFFFFFFFFFFFFFFFFFFF AND PUSH2 0x19CD PUSH2 0x222D JUMP JUMPDEST PUSH20 0xFFFFFFFFFFFFFFFFFFFFFFFFFFFFFFFFFFFFFFFF AND EQ PUSH2 0x1A23 JUMPI PUSH1 0x40 MLOAD PUSH32 0x8C379A000000000000000000000000000000000000000000000000000000000 DUP2 MSTORE PUSH1 0x4 ADD PUSH2 0x1A1A SWAP1 PUSH2 0x4990 JUMP JUMPDEST PUSH1 0x40 MLOAD DUP1 SWAP2 SUB SWAP1 REVERT JUMPDEST ADDRESS PUSH20 0xFFFFFFFFFFFFFFFFFFFFFFFFFFFFFFFFFFFFFFFF AND PUSH2 0x1A42 PUSH2 0x9F8 JUMP JUMPDEST PUSH20 0xFFFFFFFFFFFFFFFFFFFFFFFFFFFFFFFFFFFFFFFF AND EQ PUSH2 0x1A92 JUMPI PUSH1 0x0 PUSH2 0x1A67 PUSH2 0x2235 JUMP JUMPDEST PUSH1 0x40 MLOAD PUSH2 0x1A75 SWAP3 SWAP2 SWAP1 PUSH2 0x48C9 JUMP JUMPDEST PUSH1 0x40 MLOAD DUP1 SWAP2 SUB SWAP1 KECCAK256 SWAP1 POP JUMPDEST DUP1 PUSH2 0x1A8B PUSH1 0x2 PUSH2 0x2242 JUMP JUMPDEST SUB PUSH2 0x1A80 JUMPI POP JUMPDEST PUSH1 0x0 DUP1 DUP6 PUSH20 0xFFFFFFFFFFFFFFFFFFFFFFFFFFFFFFFFFFFFFFFF AND DUP6 DUP6 DUP6 PUSH1 0x40 MLOAD PUSH2 0x1ABD SWAP3 SWAP2 SWAP1 PUSH2 0x48C9 JUMP JUMPDEST PUSH1 0x0 PUSH1 0x40 MLOAD DUP1 DUP4 SUB DUP2 DUP6 DUP8 GAS CALL SWAP3 POP POP POP RETURNDATASIZE DUP1 PUSH1 0x0 DUP2 EQ PUSH2 0x1AFA JUMPI PUSH1 0x40 MLOAD SWAP2 POP PUSH1 0x1F NOT PUSH1 0x3F RETURNDATASIZE ADD AND DUP3 ADD PUSH1 0x40 MSTORE RETURNDATASIZE DUP3 MSTORE RETURNDATASIZE PUSH1 0x0 PUSH1 0x20 DUP5 ADD RETURNDATACOPY PUSH2 0x1AFF JUMP JUMPDEST PUSH1 0x60 SWAP2 POP JUMPDEST POP SWAP2 POP SWAP2 POP PUSH2 0x1B27 DUP3 DUP3 PUSH1 0x40 MLOAD DUP1 PUSH1 0x60 ADD PUSH1 0x40 MSTORE DUP1 PUSH1 0x28 DUP2 MSTORE PUSH1 0x20 ADD PUSH2 0x5E63 PUSH1 0x28 SWAP2 CODECOPY PUSH2 0x2A4E JUMP JUMPDEST POP POP POP POP POP POP POP JUMP JUMPDEST PUSH1 0x0 DUP5 DUP5 DUP5 DUP5 PUSH1 0x40 MLOAD PUSH1 0x20 ADD PUSH2 0x1B49 SWAP5 SWAP4 SWAP3 SWAP2 SWAP1 PUSH2 0x52D8 JUMP JUMPDEST PUSH1 0x40 MLOAD PUSH1 0x20 DUP2 DUP4 SUB SUB DUP2 MSTORE SWAP1 PUSH1 0x40 MSTORE DUP1 MLOAD SWAP1 PUSH1 0x20 ADD KECCAK256 PUSH1 0x0 SHR SWAP1 POP SWAP5 SWAP4 POP POP POP POP JUMP JUMPDEST PUSH1 0x60 PUSH1 0x40 MLOAD DUP1 PUSH1 0x40 ADD PUSH1 0x40 MSTORE DUP1 PUSH1 0x20 DUP2 MSTORE PUSH1 0x20 ADD PUSH32 0x737570706F72743D627261766F2671756F72756D3D666F722C6162737461696E DUP2 MSTORE POP SWAP1 POP SWAP1 JUMP JUMPDEST PUSH32 0x150214D74D59B7D1E90C73FC22EF3D991DD0A76B046543D4D80AB92D2A50328F DUP2 JUMP JUMPDEST PUSH2 0x1BD5 PUSH2 0x9F8 JUMP JUMPDEST PUSH20 0xFFFFFFFFFFFFFFFFFFFFFFFFFFFFFFFFFFFFFFFF AND PUSH2 0x1BF3 PUSH2 0x222D JUMP JUMPDEST PUSH20 0xFFFFFFFFFFFFFFFFFFFFFFFFFFFFFFFFFFFFFFFF AND EQ PUSH2 0x1C49 JUMPI PUSH1 0x40 MLOAD PUSH32 0x8C379A000000000000000000000000000000000000000000000000000000000 DUP2 MSTORE PUSH1 0x4 ADD PUSH2 0x1C40 SWAP1 PUSH2 0x4990 JUMP JUMPDEST PUSH1 0x40 MLOAD DUP1 SWAP2 SUB SWAP1 REVERT JUMPDEST ADDRESS PUSH20 0xFFFFFFFFFFFFFFFFFFFFFFFFFFFFFFFFFFFFFFFF AND PUSH2 0x1C68 PUSH2 0x9F8 JUMP JUMPDEST PUSH20 0xFFFFFFFFFFFFFFFFFFFFFFFFFFFFFFFFFFFFFFFF AND EQ PUSH2 0x1CB8 JUMPI PUSH1 0x0 PUSH2 0x1C8D PUSH2 0x2235 JUMP JUMPDEST PUSH1 0x40 MLOAD PUSH2 0x1C9B SWAP3 SWAP2 SWAP1 PUSH2 0x48C9 JUMP JUMPDEST PUSH1 0x40 MLOAD DUP1 SWAP2 SUB SWAP1 KECCAK256 SWAP1 POP JUMPDEST DUP1 PUSH2 0x1CB1 PUSH1 0x2 PUSH2 0x2242 JUMP JUMPDEST SUB PUSH2 0x1CA6 JUMPI POP JUMPDEST PUSH2 0x1CC1 DUP2 PUSH2 0x2A70 JUMP JUMPDEST POP JUMP JUMPDEST PUSH1 0x0 PUSH2 0x1CD8 DUP4 DUP4 PUSH2 0x1CD3 PUSH2 0x2AF8 JUMP JUMPDEST PUSH2 0x299D JUMP JUMPDEST SWAP1 POP SWAP3 SWAP2 POP POP JUMP JUMPDEST PUSH2 0x1CE8 PUSH2 0x9F8 JUMP JUMPDEST PUSH20 0xFFFFFFFFFFFFFFFFFFFFFFFFFFFFFFFFFFFFFFFF AND PUSH2 0x1D06 PUSH2 0x222D JUMP JUMPDEST PUSH20 0xFFFFFFFFFFFFFFFFFFFFFFFFFFFFFFFFFFFFFFFF AND EQ PUSH2 0x1D5C JUMPI PUSH1 0x40 MLOAD PUSH32 0x8C379A000000000000000000000000000000000000000000000000000000000 DUP2 MSTORE PUSH1 0x4 ADD PUSH2 0x1D53 SWAP1 PUSH2 0x4990 JUMP JUMPDEST PUSH1 0x40 MLOAD DUP1 SWAP2 SUB SWAP1 REVERT JUMPDEST ADDRESS PUSH20 0xFFFFFFFFFFFFFFFFFFFFFFFFFFFFFFFFFFFFFFFF AND PUSH2 0x1D7B PUSH2 0x9F8 JUMP JUMPDEST PUSH20 0xFFFFFFFFFFFFFFFFFFFFFFFFFFFFFFFFFFFFFFFF AND EQ PUSH2 0x1DCB JUMPI PUSH1 0x0 PUSH2 0x1DA0 PUSH2 0x2235 JUMP JUMPDEST PUSH1 0x40 MLOAD PUSH2 0x1DAE SWAP3 SWAP2 SWAP1 PUSH2 0x48C9 JUMP JUMPDEST PUSH1 0x40 MLOAD DUP1 SWAP2 SUB SWAP1 KECCAK256 SWAP1 POP JUMPDEST DUP1 PUSH2 0x1DC4 PUSH1 0x2 PUSH2 0x2242 JUMP JUMPDEST SUB PUSH2 0x1DB9 JUMPI POP JUMPDEST PUSH2 0x1DD4 DUP2 PUSH2 0x2B0F JUMP JUMPDEST POP JUMP JUMPDEST PUSH1 0x0 PUSH4 0xF23A6E61 PUSH1 0xE0 SHL SWAP1 POP SWAP6 SWAP5 POP POP POP POP POP JUMP JUMPDEST PUSH1 0x0 PUSH2 0x1DF7 DUP3 PUSH2 0x2B54 JUMP JUMPDEST SWAP1 POP SWAP2 SWAP1 POP JUMP JUMPDEST PUSH32 0x0 DUP2 JUMP JUMPDEST PUSH1 0x0 PUSH28 0xFFFFFFFFFFFFFFFFFFFFFFFFFFFFFFFFFFFFFFFFFFFFFFFFFFFFFFFF DUP1 AND DUP3 GT ISZERO PUSH2 0x1E85 JUMPI PUSH1 0x40 MLOAD PUSH32 0x8C379A000000000000000000000000000000000000000000000000000000000 DUP2 MSTORE PUSH1 0x4 ADD PUSH2 0x1E7C SWAP1 PUSH2 0x53A4 JUMP JUMPDEST PUSH1 0x40 MLOAD DUP1 SWAP2 SUB SWAP1 REVERT JUMPDEST DUP2 SWAP1 POP SWAP2 SWAP1 POP JUMP JUMPDEST PUSH1 0x0 DUP1 PUSH2 0x1EAE DUP5 PUSH1 0x0 ADD PUSH2 0x1EA0 NUMBER PUSH2 0x1F65 JUMP JUMPDEST PUSH2 0x1EA9 DUP7 PUSH2 0x1E22 JUMP JUMPDEST PUSH2 0x2C1C JUMP JUMPDEST DUP2 PUSH28 0xFFFFFFFFFFFFFFFFFFFFFFFFFFFFFFFFFFFFFFFFFFFFFFFFFFFFFFFF AND SWAP2 POP DUP1 PUSH28 0xFFFFFFFFFFFFFFFFFFFFFFFFFFFFFFFFFFFFFFFFFFFFFFFFFFFFFFFF AND SWAP1 POP SWAP2 POP SWAP2 POP SWAP3 POP SWAP3 SWAP1 POP JUMP JUMPDEST PUSH1 0x0 DUP1 DUP3 PUSH1 0x0 ADD DUP1 SLOAD SWAP1 POP SWAP1 POP PUSH1 0x0 DUP2 EQ PUSH2 0x1F5A JUMPI PUSH2 0x1F29 DUP4 PUSH1 0x0 ADD PUSH1 0x1 DUP4 PUSH2 0x1F24 SWAP2 SWAP1 PUSH2 0x4B74 JUMP JUMPDEST PUSH2 0x2FA2 JUMP JUMPDEST PUSH1 0x0 ADD PUSH1 0x4 SWAP1 SLOAD SWAP1 PUSH2 0x100 EXP SWAP1 DIV PUSH28 0xFFFFFFFFFFFFFFFFFFFFFFFFFFFFFFFFFFFFFFFFFFFFFFFFFFFFFFFF AND PUSH2 0x1F5D JUMP JUMPDEST PUSH1 0x0 JUMPDEST SWAP2 POP POP SWAP2 SWAP1 POP JUMP JUMPDEST PUSH1 0x0 PUSH4 0xFFFFFFFF DUP1 AND DUP3 GT ISZERO PUSH2 0x1FB0 JUMPI PUSH1 0x40 MLOAD PUSH32 0x8C379A000000000000000000000000000000000000000000000000000000000 DUP2 MSTORE PUSH1 0x4 ADD PUSH2 0x1FA7 SWAP1 PUSH2 0x5436 JUMP JUMPDEST PUSH1 0x40 MLOAD DUP1 SWAP2 SUB SWAP1 REVERT JUMPDEST DUP2 SWAP1 POP SWAP2 SWAP1 POP JUMP JUMPDEST PUSH1 0x0 PUSH32 0x1FFC9A700000000000000000000000000000000000000000000000000000000 PUSH28 0xFFFFFFFFFFFFFFFFFFFFFFFFFFFFFFFFFFFFFFFFFFFFFFFFFFFFFFFF NOT AND DUP3 PUSH28 0xFFFFFFFFFFFFFFFFFFFFFFFFFFFFFFFFFFFFFFFFFFFFFFFFFFFFFFFF NOT AND EQ SWAP1 POP SWAP2 SWAP1 POP JUMP JUMPDEST PUSH1 0x0 PUSH1 0x5 SLOAD SWAP1 POP SWAP1 JUMP JUMPDEST PUSH1 0x0 PUSH2 0x203F PUSH2 0x2039 PUSH2 0x2FB7 JUMP JUMPDEST DUP4 PUSH2 0x30D1 JUMP JUMPDEST SWAP1 POP SWAP2 SWAP1 POP JUMP JUMPDEST PUSH1 0x0 DUP1 PUSH1 0x0 PUSH2 0x2057 DUP8 DUP8 DUP8 DUP8 PUSH2 0x3104 JUMP JUMPDEST SWAP2 POP SWAP2 POP PUSH2 0x2064 DUP2 PUSH2 0x31E6 JUMP JUMPDEST DUP2 SWAP3 POP POP POP SWAP5 SWAP4 POP POP POP POP JUMP JUMPDEST PUSH1 0x0 DUP1 PUSH1 0x1 PUSH1 0x0 DUP9 DUP2 MSTORE PUSH1 0x20 ADD SWAP1 DUP2 MSTORE PUSH1 0x20 ADD PUSH1 0x0 KECCAK256 SWAP1 POP PUSH1 0x1 PUSH1 0x7 DUP2 GT ISZERO PUSH2 0x209D JUMPI PUSH2 0x209C PUSH2 0x4167 JUMP JUMPDEST JUMPDEST PUSH2 0x20A6 DUP9 PUSH2 0x106E JUMP JUMPDEST PUSH1 0x7 DUP2 GT ISZERO PUSH2 0x20B8 JUMPI PUSH2 0x20B7 PUSH2 0x4167 JUMP JUMPDEST JUMPDEST EQ PUSH2 0x20F8 JUMPI PUSH1 0x40 MLOAD PUSH32 0x8C379A000000000000000000000000000000000000000000000000000000000 DUP2 MSTORE PUSH1 0x4 ADD PUSH2 0x20EF SWAP1 PUSH2 0x54C8 JUMP JUMPDEST PUSH1 0x40 MLOAD DUP1 SWAP2 SUB SWAP1 REVERT JUMPDEST PUSH1 0x0 PUSH2 0x2157 DUP8 PUSH2 0x2147 DUP5 PUSH1 0x0 ADD PUSH1 0x40 MLOAD DUP1 PUSH1 0x20 ADD PUSH1 0x40 MSTORE SWAP1 DUP2 PUSH1 0x0 DUP3 ADD PUSH1 0x0 SWAP1 SLOAD SWAP1 PUSH2 0x100 EXP SWAP1 DIV PUSH8 0xFFFFFFFFFFFFFFFF AND PUSH8 0xFFFFFFFFFFFFFFFF AND PUSH8 0xFFFFFFFFFFFFFFFF AND DUP2 MSTORE POP POP PUSH2 0x271F JUMP JUMPDEST PUSH8 0xFFFFFFFFFFFFFFFF AND DUP7 PUSH2 0x299D JUMP JUMPDEST SWAP1 POP PUSH2 0x2166 DUP9 DUP9 DUP9 DUP5 DUP9 PUSH2 0x334C JUMP JUMPDEST PUSH1 0x0 DUP5 MLOAD SUB PUSH2 0x21C8 JUMPI DUP7 PUSH20 0xFFFFFFFFFFFFFFFFFFFFFFFFFFFFFFFFFFFFFFFF AND PUSH32 0xB8E138887D0AA13BAB447E82DE9D5C1777041ECD21CA36BA824FF1E6C07DDDA4 DUP10 DUP9 DUP5 DUP10 PUSH1 0x40 MLOAD PUSH2 0x21BB SWAP5 SWAP4 SWAP3 SWAP2 SWAP1 PUSH2 0x54E8 JUMP JUMPDEST PUSH1 0x40 MLOAD DUP1 SWAP2 SUB SWAP1 LOG2 PUSH2 0x221F JUMP JUMPDEST DUP7 PUSH20 0xFFFFFFFFFFFFFFFFFFFFFFFFFFFFFFFFFFFFFFFF AND PUSH32 0xE2BABFBAC5889A709B63BB7F598B324E08BC5A4FB9EC647FB3CBC9EC07EB8712 DUP10 DUP9 DUP5 DUP10 DUP10 PUSH1 0x40 MLOAD PUSH2 0x2216 SWAP6 SWAP5 SWAP4 SWAP3 SWAP2 SWAP1 PUSH2 0x557E JUMP JUMPDEST PUSH1 0x40 MLOAD DUP1 SWAP2 SUB SWAP1 LOG2 JUMPDEST DUP1 SWAP3 POP POP POP SWAP6 SWAP5 POP POP POP POP POP JUMP JUMPDEST PUSH1 0x0 CALLER SWAP1 POP SWAP1 JUMP JUMPDEST CALLDATASIZE PUSH1 0x0 DUP1 CALLDATASIZE SWAP2 POP SWAP2 POP SWAP1 SWAP2 JUMP JUMPDEST PUSH1 0x0 PUSH2 0x224D DUP3 PUSH2 0x3550 JUMP JUMPDEST ISZERO PUSH2 0x2284 JUMPI PUSH1 0x40 MLOAD PUSH32 0x3DB2A12A00000000000000000000000000000000000000000000000000000000 DUP2 MSTORE PUSH1 0x4 ADD PUSH1 0x40 MLOAD DUP1 SWAP2 SUB SWAP1 REVERT JUMPDEST PUSH1 0x0 DUP3 PUSH1 0x0 ADD PUSH1 0x0 SWAP1 SLOAD SWAP1 PUSH2 0x100 EXP SWAP1 DIV PUSH1 0xF SIGNEXTEND SWAP1 POP DUP3 PUSH1 0x1 ADD PUSH1 0x0 DUP3 PUSH1 0xF SIGNEXTEND PUSH1 0xF SIGNEXTEND DUP2 MSTORE PUSH1 0x20 ADD SWAP1 DUP2 MSTORE PUSH1 0x20 ADD PUSH1 0x0 KECCAK256 SLOAD SWAP2 POP DUP3 PUSH1 0x1 ADD PUSH1 0x0 DUP3 PUSH1 0xF SIGNEXTEND PUSH1 0xF SIGNEXTEND DUP2 MSTORE PUSH1 0x20 ADD SWAP1 DUP2 MSTORE PUSH1 0x20 ADD PUSH1 0x0 KECCAK256 PUSH1 0x0 SWAP1 SSTORE PUSH1 0x1 DUP2 ADD DUP4 PUSH1 0x0 ADD PUSH1 0x0 PUSH2 0x100 EXP DUP2 SLOAD DUP2 PUSH16 0xFFFFFFFFFFFFFFFFFFFFFFFFFFFFFFFF MUL NOT AND SWAP1 DUP4 PUSH1 0xF SIGNEXTEND PUSH16 0xFFFFFFFFFFFFFFFFFFFFFFFFFFFFFFFF AND MUL OR SWAP1 SSTORE POP POP SWAP2 SWAP1 POP JUMP JUMPDEST PUSH2 0x2326 PUSH2 0x18AF JUMP JUMPDEST DUP2 GT ISZERO PUSH2 0x2368 JUMPI PUSH1 0x40 MLOAD PUSH32 0x8C379A000000000000000000000000000000000000000000000000000000000 DUP2 MSTORE PUSH1 0x4 ADD PUSH2 0x235F SWAP1 PUSH2 0x5677 JUMP JUMPDEST PUSH1 0x40 MLOAD DUP1 SWAP2 SUB SWAP1 REVERT JUMPDEST PUSH1 0x0 PUSH2 0x2372 PUSH2 0x18CE JUMP JUMPDEST SWAP1 POP PUSH1 0x0 DUP2 EQ ISZERO DUP1 ISZERO PUSH2 0x238D JUMPI POP PUSH1 0x0 PUSH1 0x9 PUSH1 0x0 ADD DUP1 SLOAD SWAP1 POP EQ JUMPDEST ISZERO PUSH2 0x247F JUMPI PUSH1 0x9 PUSH1 0x0 ADD PUSH1 0x40 MLOAD DUP1 PUSH1 0x40 ADD PUSH1 0x40 MSTORE DUP1 PUSH1 0x0 PUSH4 0xFFFFFFFF AND DUP2 MSTORE PUSH1 0x20 ADD PUSH2 0x23B8 DUP5 PUSH2 0x1E22 JUMP JUMPDEST PUSH28 0xFFFFFFFFFFFFFFFFFFFFFFFFFFFFFFFFFFFFFFFFFFFFFFFFFFFFFFFF AND DUP2 MSTORE POP SWAP1 DUP1 PUSH1 0x1 DUP2 SLOAD ADD DUP1 DUP3 SSTORE DUP1 SWAP2 POP POP PUSH1 0x1 SWAP1 SUB SWAP1 PUSH1 0x0 MSTORE PUSH1 0x20 PUSH1 0x0 KECCAK256 ADD PUSH1 0x0 SWAP1 SWAP2 SWAP1 SWAP2 SWAP1 SWAP2 POP PUSH1 0x0 DUP3 ADD MLOAD DUP2 PUSH1 0x0 ADD PUSH1 0x0 PUSH2 0x100 EXP DUP2 SLOAD DUP2 PUSH4 0xFFFFFFFF MUL NOT AND SWAP1 DUP4 PUSH4 0xFFFFFFFF AND MUL OR SWAP1 SSTORE POP PUSH1 0x20 DUP3 ADD MLOAD DUP2 PUSH1 0x0 ADD PUSH1 0x4 PUSH2 0x100 EXP DUP2 SLOAD DUP2 PUSH28 0xFFFFFFFFFFFFFFFFFFFFFFFFFFFFFFFFFFFFFFFFFFFFFFFFFFFFFFFF MUL NOT AND SWAP1 DUP4 PUSH28 0xFFFFFFFFFFFFFFFFFFFFFFFFFFFFFFFFFFFFFFFFFFFFFFFFFFFFFFFF AND MUL OR SWAP1 SSTORE POP POP POP JUMPDEST PUSH2 0x2493 DUP3 PUSH1 0x9 PUSH2 0x1E8D SWAP1 SWAP2 SWAP1 PUSH4 0xFFFFFFFF AND JUMP JUMPDEST POP POP PUSH32 0x553476BF02EF2726E8CE5CED78D63E26E602E4A2257B1F559418E24B4633997 DUP2 DUP4 PUSH1 0x40 MLOAD PUSH2 0x24C6 SWAP3 SWAP2 SWAP1 PUSH2 0x5697 JUMP JUMPDEST PUSH1 0x40 MLOAD DUP1 SWAP2 SUB SWAP1 LOG1 POP POP JUMP JUMPDEST ADDRESS PUSH20 0xFFFFFFFFFFFFFFFFFFFFFFFFFFFFFFFFFFFFFFFF AND PUSH2 0x24F1 PUSH2 0x9F8 JUMP JUMPDEST PUSH20 0xFFFFFFFFFFFFFFFFFFFFFFFFFFFFFFFFFFFFFFFF AND EQ PUSH2 0x25AE JUMPI PUSH1 0x0 JUMPDEST DUP5 MLOAD DUP2 LT ISZERO PUSH2 0x25AC JUMPI ADDRESS PUSH20 0xFFFFFFFFFFFFFFFFFFFFFFFFFFFFFFFFFFFFFFFF AND DUP6 DUP3 DUP2 MLOAD DUP2 LT PUSH2 0x2542 JUMPI PUSH2 0x2541 PUSH2 0x4BA8 JUMP JUMPDEST JUMPDEST PUSH1 0x20 MUL PUSH1 0x20 ADD ADD MLOAD PUSH20 0xFFFFFFFFFFFFFFFFFFFFFFFFFFFFFFFFFFFFFFFF AND SUB PUSH2 0x259B JUMPI PUSH2 0x259A DUP4 DUP3 DUP2 MLOAD DUP2 LT PUSH2 0x257B JUMPI PUSH2 0x257A PUSH2 0x4BA8 JUMP JUMPDEST JUMPDEST PUSH1 0x20 MUL PUSH1 0x20 ADD ADD MLOAD DUP1 MLOAD SWAP1 PUSH1 0x20 ADD KECCAK256 PUSH1 0x2 PUSH2 0x3585 SWAP1 SWAP2 SWAP1 PUSH4 0xFFFFFFFF AND JUMP JUMPDEST JUMPDEST DUP1 PUSH2 0x25A5 SWAP1 PUSH2 0x56C0 JUMP JUMPDEST SWAP1 POP PUSH2 0x250F JUMP JUMPDEST POP JUMPDEST POP POP POP POP POP JUMP JUMPDEST PUSH1 0x0 PUSH1 0x40 MLOAD DUP1 PUSH1 0x60 ADD PUSH1 0x40 MSTORE DUP1 PUSH1 0x27 DUP2 MSTORE PUSH1 0x20 ADD PUSH2 0x5E8B PUSH1 0x27 SWAP2 CODECOPY SWAP1 POP PUSH1 0x0 JUMPDEST DUP6 MLOAD DUP2 LT ISZERO PUSH2 0x26BB JUMPI PUSH1 0x0 DUP1 DUP8 DUP4 DUP2 MLOAD DUP2 LT PUSH2 0x25F4 JUMPI PUSH2 0x25F3 PUSH2 0x4BA8 JUMP JUMPDEST JUMPDEST PUSH1 0x20 MUL PUSH1 0x20 ADD ADD MLOAD PUSH20 0xFFFFFFFFFFFFFFFFFFFFFFFFFFFFFFFFFFFFFFFF AND DUP8 DUP5 DUP2 MLOAD DUP2 LT PUSH2 0x2625 JUMPI PUSH2 0x2624 PUSH2 0x4BA8 JUMP JUMPDEST JUMPDEST PUSH1 0x20 MUL PUSH1 0x20 ADD ADD MLOAD DUP8 DUP6 DUP2 MLOAD DUP2 LT PUSH2 0x2640 JUMPI PUSH2 0x263F PUSH2 0x4BA8 JUMP JUMPDEST JUMPDEST PUSH1 0x20 MUL PUSH1 0x20 ADD ADD MLOAD PUSH1 0x40 MLOAD PUSH2 0x2655 SWAP2 SWAP1 PUSH2 0x5739 JUMP JUMPDEST PUSH1 0x0 PUSH1 0x40 MLOAD DUP1 DUP4 SUB DUP2 DUP6 DUP8 GAS CALL SWAP3 POP POP POP RETURNDATASIZE DUP1 PUSH1 0x0 DUP2 EQ PUSH2 0x2692 JUMPI PUSH1 0x40 MLOAD SWAP2 POP PUSH1 0x1F NOT PUSH1 0x3F RETURNDATASIZE ADD AND DUP3 ADD PUSH1 0x40 MSTORE RETURNDATASIZE DUP3 MSTORE RETURNDATASIZE PUSH1 0x0 PUSH1 0x20 DUP5 ADD RETURNDATACOPY PUSH2 0x2697 JUMP JUMPDEST PUSH1 0x60 SWAP2 POP JUMPDEST POP SWAP2 POP SWAP2 POP PUSH2 0x26A7 DUP3 DUP3 DUP7 PUSH2 0x2A4E JUMP JUMPDEST POP POP POP DUP1 PUSH2 0x26B4 SWAP1 PUSH2 0x56C0 JUMP JUMPDEST SWAP1 POP PUSH2 0x25D5 JUMP JUMPDEST POP POP POP POP POP POP POP JUMP JUMPDEST ADDRESS PUSH20 0xFFFFFFFFFFFFFFFFFFFFFFFFFFFFFFFFFFFFFFFF AND PUSH2 0x26E3 PUSH2 0x9F8 JUMP JUMPDEST PUSH20 0xFFFFFFFFFFFFFFFFFFFFFFFFFFFFFFFFFFFFFFFF AND EQ PUSH2 0x2718 JUMPI PUSH2 0x2708 PUSH1 0x2 PUSH2 0x3550 JUMP JUMPDEST PUSH2 0x2717 JUMPI PUSH2 0x2716 PUSH1 0x2 PUSH2 0x3601 JUMP JUMPDEST JUMPDEST JUMPDEST POP POP POP POP POP JUMP JUMPDEST PUSH1 0x0 DUP2 PUSH1 0x0 ADD MLOAD SWAP1 POP SWAP2 SWAP1 POP JUMP JUMPDEST PUSH1 0x0 PUSH1 0x4 SLOAD SWAP1 POP SWAP1 JUMP JUMPDEST PUSH1 0x0 PUSH2 0x274D DUP6 DUP6 DUP6 DUP6 PUSH2 0x2748 PUSH2 0x2AF8 JUMP JUMPDEST PUSH2 0x2071 JUMP JUMPDEST SWAP1 POP SWAP5 SWAP4 POP POP POP POP JUMP JUMPDEST PUSH1 0x0 DUP1 PUSH1 0x7 PUSH1 0x0 DUP5 DUP2 MSTORE PUSH1 0x20 ADD SWAP1 DUP2 MSTORE PUSH1 0x20 ADD PUSH1 0x0 KECCAK256 SWAP1 POP DUP1 PUSH1 0x2 ADD SLOAD DUP2 PUSH1 0x1 ADD SLOAD PUSH2 0x2783 SWAP2 SWAP1 PUSH2 0x5750 JUMP JUMPDEST PUSH2 0x2794 PUSH2 0x278F DUP6 PUSH2 0xF43 JUMP JUMPDEST PUSH2 0x1DEC JUMP JUMPDEST GT ISZERO SWAP2 POP POP SWAP2 SWAP1 POP JUMP JUMPDEST PUSH1 0x0 DUP1 PUSH1 0x7 PUSH1 0x0 DUP5 DUP2 MSTORE PUSH1 0x20 ADD SWAP1 DUP2 MSTORE PUSH1 0x20 ADD PUSH1 0x0 KECCAK256 SWAP1 POP DUP1 PUSH1 0x0 ADD SLOAD DUP2 PUSH1 0x1 ADD SLOAD GT SWAP2 POP POP SWAP2 SWAP1 POP JUMP JUMPDEST PUSH1 0x0 NUMBER DUP3 LT PUSH2 0x280D JUMPI PUSH1 0x40 MLOAD PUSH32 0x8C379A000000000000000000000000000000000000000000000000000000000 DUP2 MSTORE PUSH1 0x4 ADD PUSH2 0x2804 SWAP1 PUSH2 0x57D0 JUMP JUMPDEST PUSH1 0x40 MLOAD DUP1 SWAP2 SUB SWAP1 REVERT JUMPDEST PUSH1 0x0 PUSH2 0x2818 DUP4 PUSH2 0x1F65 JUMP JUMPDEST SWAP1 POP PUSH1 0x0 DUP5 PUSH1 0x0 ADD DUP1 SLOAD SWAP1 POP SWAP1 POP PUSH1 0x0 PUSH2 0x2838 DUP7 PUSH1 0x0 ADD DUP5 PUSH1 0x0 DUP6 PUSH2 0x3682 JUMP JUMPDEST SWAP1 POP PUSH1 0x0 DUP2 EQ PUSH2 0x288C JUMPI PUSH2 0x285B DUP7 PUSH1 0x0 ADD PUSH1 0x1 DUP4 PUSH2 0x2856 SWAP2 SWAP1 PUSH2 0x4B74 JUMP JUMPDEST PUSH2 0x2FA2 JUMP JUMPDEST PUSH1 0x0 ADD PUSH1 0x4 SWAP1 SLOAD SWAP1 PUSH2 0x100 EXP SWAP1 DIV PUSH28 0xFFFFFFFFFFFFFFFFFFFFFFFFFFFFFFFFFFFFFFFFFFFFFFFFFFFFFFFF AND PUSH2 0x288F JUMP JUMPDEST PUSH1 0x0 JUMPDEST PUSH28 0xFFFFFFFFFFFFFFFFFFFFFFFFFFFFFFFFFFFFFFFFFFFFFFFFFFFFFFFF AND SWAP4 POP POP POP POP SWAP3 SWAP2 POP POP JUMP JUMPDEST PUSH32 0xC565B045403DC03C2EEA82B81A0465EDAD9E2E7FC4D97E11421C209DA93D7A93 PUSH1 0x4 SLOAD DUP3 PUSH1 0x40 MLOAD PUSH2 0x28EB SWAP3 SWAP2 SWAP1 PUSH2 0x5697 JUMP JUMPDEST PUSH1 0x40 MLOAD DUP1 SWAP2 SUB SWAP1 LOG1 DUP1 PUSH1 0x4 DUP2 SWAP1 SSTORE POP POP JUMP JUMPDEST PUSH1 0x0 DUP1 DUP3 PUSH1 0x0 ADD MLOAD PUSH8 0xFFFFFFFFFFFFFFFF AND EQ SWAP1 POP SWAP2 SWAP1 POP JUMP JUMPDEST PUSH1 0x0 PUSH8 0xFFFFFFFFFFFFFFFF DUP1 AND DUP3 GT ISZERO PUSH2 0x2966 JUMPI PUSH1 0x40 MLOAD PUSH32 0x8C379A000000000000000000000000000000000000000000000000000000000 DUP2 MSTORE PUSH1 0x4 ADD PUSH2 0x295D SWAP1 PUSH2 0x5862 JUMP JUMPDEST PUSH1 0x40 MLOAD DUP1 SWAP2 SUB SWAP1 REVERT JUMPDEST DUP2 SWAP1 POP SWAP2 SWAP1 POP JUMP JUMPDEST DUP1 DUP3 PUSH1 0x0 ADD PUSH1 0x0 PUSH2 0x100 EXP DUP2 SLOAD DUP2 PUSH8 0xFFFFFFFFFFFFFFFF MUL NOT AND SWAP1 DUP4 PUSH8 0xFFFFFFFFFFFFFFFF AND MUL OR SWAP1 SSTORE POP POP POP JUMP JUMPDEST PUSH1 0x0 PUSH32 0x0 PUSH20 0xFFFFFFFFFFFFFFFFFFFFFFFFFFFFFFFFFFFFFFFF AND PUSH4 0x3A46B1A8 DUP6 DUP6 PUSH1 0x40 MLOAD DUP4 PUSH4 0xFFFFFFFF AND PUSH1 0xE0 SHL DUP2 MSTORE PUSH1 0x4 ADD PUSH2 0x29FA SWAP3 SWAP2 SWAP1 PUSH2 0x5882 JUMP JUMPDEST PUSH1 0x20 PUSH1 0x40 MLOAD DUP1 DUP4 SUB DUP2 DUP7 GAS STATICCALL ISZERO DUP1 ISZERO PUSH2 0x2A17 JUMPI RETURNDATASIZE PUSH1 0x0 DUP1 RETURNDATACOPY RETURNDATASIZE PUSH1 0x0 REVERT JUMPDEST POP POP POP POP PUSH1 0x40 MLOAD RETURNDATASIZE PUSH1 0x1F NOT PUSH1 0x1F DUP3 ADD AND DUP3 ADD DUP1 PUSH1 0x40 MSTORE POP DUP2 ADD SWAP1 PUSH2 0x2A3B SWAP2 SWAP1 PUSH2 0x58C0 JUMP JUMPDEST SWAP1 POP SWAP4 SWAP3 POP POP POP JUMP JUMPDEST PUSH1 0x0 PUSH1 0x6 SLOAD SWAP1 POP SWAP1 JUMP JUMPDEST PUSH1 0x60 DUP4 ISZERO PUSH2 0x2A5E JUMPI DUP3 SWAP1 POP PUSH2 0x2A69 JUMP JUMPDEST PUSH2 0x2A68 DUP4 DUP4 PUSH2 0x36F5 JUMP JUMPDEST JUMPDEST SWAP4 SWAP3 POP POP POP JUMP JUMPDEST PUSH1 0x0 DUP2 GT PUSH2 0x2AB3 JUMPI PUSH1 0x40 MLOAD PUSH32 0x8C379A000000000000000000000000000000000000000000000000000000000 DUP2 MSTORE PUSH1 0x4 ADD PUSH2 0x2AAA SWAP1 PUSH2 0x595F JUMP JUMPDEST PUSH1 0x40 MLOAD DUP1 SWAP2 SUB SWAP1 REVERT JUMPDEST PUSH32 0x7E3F7F0708A84DE9203036ABAA450DCCC85AD5FF52F78C170F3EDB55CF5E8828 PUSH1 0x5 SLOAD DUP3 PUSH1 0x40 MLOAD PUSH2 0x2AE6 SWAP3 SWAP2 SWAP1 PUSH2 0x5697 JUMP JUMPDEST PUSH1 0x40 MLOAD DUP1 SWAP2 SUB SWAP1 LOG1 DUP1 PUSH1 0x5 DUP2 SWAP1 SSTORE POP POP JUMP JUMPDEST PUSH1 0x60 PUSH1 0x40 MLOAD DUP1 PUSH1 0x20 ADD PUSH1 0x40 MSTORE DUP1 PUSH1 0x0 DUP2 MSTORE POP SWAP1 POP SWAP1 JUMP JUMPDEST PUSH32 0xCCB45DA8D5717E6C4544694297C4BA5CF151D455C9BB0ED4FC7A38411BC05461 PUSH1 0x6 SLOAD DUP3 PUSH1 0x40 MLOAD PUSH2 0x2B42 SWAP3 SWAP2 SWAP1 PUSH2 0x5697 JUMP JUMPDEST PUSH1 0x40 MLOAD DUP1 SWAP2 SUB SWAP1 LOG1 DUP1 PUSH1 0x6 DUP2 SWAP1 SSTORE POP POP JUMP JUMPDEST PUSH1 0x0 PUSH2 0x2B5E PUSH2 0x18AF JUMP JUMPDEST PUSH2 0x2B67 DUP4 PUSH2 0x12FD JUMP JUMPDEST PUSH32 0x0 PUSH20 0xFFFFFFFFFFFFFFFFFFFFFFFFFFFFFFFFFFFFFFFF AND PUSH4 0x8E539E8C DUP6 PUSH1 0x40 MLOAD DUP3 PUSH4 0xFFFFFFFF AND PUSH1 0xE0 SHL DUP2 MSTORE PUSH1 0x4 ADD PUSH2 0x2BC0 SWAP2 SWAP1 PUSH2 0x388D JUMP JUMPDEST PUSH1 0x20 PUSH1 0x40 MLOAD DUP1 DUP4 SUB DUP2 DUP7 GAS STATICCALL ISZERO DUP1 ISZERO PUSH2 0x2BDD JUMPI RETURNDATASIZE PUSH1 0x0 DUP1 RETURNDATACOPY RETURNDATASIZE PUSH1 0x0 REVERT JUMPDEST POP POP POP POP PUSH1 0x40 MLOAD RETURNDATASIZE PUSH1 0x1F NOT PUSH1 0x1F DUP3 ADD AND DUP3 ADD DUP1 PUSH1 0x40 MSTORE POP DUP2 ADD SWAP1 PUSH2 0x2C01 SWAP2 SWAP1 PUSH2 0x58C0 JUMP JUMPDEST PUSH2 0x2C0B SWAP2 SWAP1 PUSH2 0x597F JUMP JUMPDEST PUSH2 0x2C15 SWAP2 SWAP1 PUSH2 0x59F0 JUMP JUMPDEST SWAP1 POP SWAP2 SWAP1 POP JUMP JUMPDEST PUSH1 0x0 DUP1 PUSH1 0x0 DUP6 DUP1 SLOAD SWAP1 POP SWAP1 POP PUSH1 0x0 DUP2 GT ISZERO PUSH2 0x2EB2 JUMPI PUSH1 0x0 PUSH2 0x2C49 DUP8 PUSH1 0x1 DUP5 PUSH2 0x2C44 SWAP2 SWAP1 PUSH2 0x4B74 JUMP JUMPDEST PUSH2 0x2FA2 JUMP JUMPDEST PUSH1 0x40 MLOAD DUP1 PUSH1 0x40 ADD PUSH1 0x40 MSTORE SWAP1 DUP2 PUSH1 0x0 DUP3 ADD PUSH1 0x0 SWAP1 SLOAD SWAP1 PUSH2 0x100 EXP SWAP1 DIV PUSH4 0xFFFFFFFF AND PUSH4 0xFFFFFFFF AND PUSH4 0xFFFFFFFF AND DUP2 MSTORE PUSH1 0x20 ADD PUSH1 0x0 DUP3 ADD PUSH1 0x4 SWAP1 SLOAD SWAP1 PUSH2 0x100 EXP SWAP1 DIV PUSH28 0xFFFFFFFFFFFFFFFFFFFFFFFFFFFFFFFFFFFFFFFFFFFFFFFFFFFFFFFF AND PUSH28 0xFFFFFFFFFFFFFFFFFFFFFFFFFFFFFFFFFFFFFFFFFFFFFFFFFFFFFFFF AND PUSH28 0xFFFFFFFFFFFFFFFFFFFFFFFFFFFFFFFFFFFFFFFFFFFFFFFFFFFFFFFF AND DUP2 MSTORE POP POP SWAP1 POP DUP6 PUSH4 0xFFFFFFFF AND DUP2 PUSH1 0x0 ADD MLOAD PUSH4 0xFFFFFFFF AND GT ISZERO PUSH2 0x2D3D JUMPI PUSH1 0x40 MLOAD PUSH32 0x8C379A000000000000000000000000000000000000000000000000000000000 DUP2 MSTORE PUSH1 0x4 ADD PUSH2 0x2D34 SWAP1 PUSH2 0x5A6D JUMP JUMPDEST PUSH1 0x40 MLOAD DUP1 SWAP2 SUB SWAP1 REVERT JUMPDEST DUP6 PUSH4 0xFFFFFFFF AND DUP2 PUSH1 0x0 ADD MLOAD PUSH4 0xFFFFFFFF AND SUB PUSH2 0x2DC1 JUMPI DUP5 PUSH2 0x2D6B DUP9 PUSH1 0x1 DUP6 PUSH2 0x2D66 SWAP2 SWAP1 PUSH2 0x4B74 JUMP JUMPDEST PUSH2 0x2FA2 JUMP JUMPDEST PUSH1 0x0 ADD PUSH1 0x4 PUSH2 0x100 EXP DUP2 SLOAD DUP2 PUSH28 0xFFFFFFFFFFFFFFFFFFFFFFFFFFFFFFFFFFFFFFFFFFFFFFFFFFFFFFFF MUL NOT AND SWAP1 DUP4 PUSH28 0xFFFFFFFFFFFFFFFFFFFFFFFFFFFFFFFFFFFFFFFFFFFFFFFFFFFFFFFF AND MUL OR SWAP1 SSTORE POP PUSH2 0x2EA1 JUMP JUMPDEST DUP7 PUSH1 0x40 MLOAD DUP1 PUSH1 0x40 ADD PUSH1 0x40 MSTORE DUP1 DUP9 PUSH4 0xFFFFFFFF AND DUP2 MSTORE PUSH1 0x20 ADD DUP8 PUSH28 0xFFFFFFFFFFFFFFFFFFFFFFFFFFFFFFFFFFFFFFFFFFFFFFFFFFFFFFFF AND DUP2 MSTORE POP SWAP1 DUP1 PUSH1 0x1 DUP2 SLOAD ADD DUP1 DUP3 SSTORE DUP1 SWAP2 POP POP PUSH1 0x1 SWAP1 SUB SWAP1 PUSH1 0x0 MSTORE PUSH1 0x20 PUSH1 0x0 KECCAK256 ADD PUSH1 0x0 SWAP1 SWAP2 SWAP1 SWAP2 SWAP1 SWAP2 POP PUSH1 0x0 DUP3 ADD MLOAD DUP2 PUSH1 0x0 ADD PUSH1 0x0 PUSH2 0x100 EXP DUP2 SLOAD DUP2 PUSH4 0xFFFFFFFF MUL NOT AND SWAP1 DUP4 PUSH4 0xFFFFFFFF AND MUL OR SWAP1 SSTORE POP PUSH1 0x20 DUP3 ADD MLOAD DUP2 PUSH1 0x0 ADD PUSH1 0x4 PUSH2 0x100 EXP DUP2 SLOAD DUP2 PUSH28 0xFFFFFFFFFFFFFFFFFFFFFFFFFFFFFFFFFFFFFFFFFFFFFFFFFFFFFFFF MUL NOT AND SWAP1 DUP4 PUSH28 0xFFFFFFFFFFFFFFFFFFFFFFFFFFFFFFFFFFFFFFFFFFFFFFFFFFFFFFFF AND MUL OR SWAP1 SSTORE POP POP POP JUMPDEST DUP1 PUSH1 0x20 ADD MLOAD DUP6 SWAP4 POP SWAP4 POP POP POP PUSH2 0x2F9A JUMP JUMPDEST DUP6 PUSH1 0x40 MLOAD DUP1 PUSH1 0x40 ADD PUSH1 0x40 MSTORE DUP1 DUP8 PUSH4 0xFFFFFFFF AND DUP2 MSTORE PUSH1 0x20 ADD DUP7 PUSH28 0xFFFFFFFFFFFFFFFFFFFFFFFFFFFFFFFFFFFFFFFFFFFFFFFFFFFFFFFF AND DUP2 MSTORE POP SWAP1 DUP1 PUSH1 0x1 DUP2 SLOAD ADD DUP1 DUP3 SSTORE DUP1 SWAP2 POP POP PUSH1 0x1 SWAP1 SUB SWAP1 PUSH1 0x0 MSTORE PUSH1 0x20 PUSH1 0x0 KECCAK256 ADD PUSH1 0x0 SWAP1 SWAP2 SWAP1 SWAP2 SWAP1 SWAP2 POP PUSH1 0x0 DUP3 ADD MLOAD DUP2 PUSH1 0x0 ADD PUSH1 0x0 PUSH2 0x100 EXP DUP2 SLOAD DUP2 PUSH4 0xFFFFFFFF MUL NOT AND SWAP1 DUP4 PUSH4 0xFFFFFFFF AND MUL OR SWAP1 SSTORE POP PUSH1 0x20 DUP3 ADD MLOAD DUP2 PUSH1 0x0 ADD PUSH1 0x4 PUSH2 0x100 EXP DUP2 SLOAD DUP2 PUSH28 0xFFFFFFFFFFFFFFFFFFFFFFFFFFFFFFFFFFFFFFFFFFFFFFFFFFFFFFFF MUL NOT AND SWAP1 DUP4 PUSH28 0xFFFFFFFFFFFFFFFFFFFFFFFFFFFFFFFFFFFFFFFFFFFFFFFFFFFFFFFF AND MUL OR SWAP1 SSTORE POP POP POP PUSH1 0x0 DUP5 SWAP3 POP SWAP3 POP POP JUMPDEST SWAP4 POP SWAP4 SWAP2 POP POP JUMP JUMPDEST PUSH1 0x0 DUP3 PUSH1 0x0 MSTORE DUP2 PUSH1 0x20 PUSH1 0x0 KECCAK256 ADD SWAP1 POP SWAP3 SWAP2 POP POP JUMP JUMPDEST PUSH1 0x0 PUSH32 0x0 PUSH20 0xFFFFFFFFFFFFFFFFFFFFFFFFFFFFFFFFFFFFFFFF AND ADDRESS PUSH20 0xFFFFFFFFFFFFFFFFFFFFFFFFFFFFFFFFFFFFFFFF AND EQ DUP1 ISZERO PUSH2 0x3033 JUMPI POP PUSH32 0x0 CHAINID EQ JUMPDEST ISZERO PUSH2 0x3060 JUMPI PUSH32 0x0 SWAP1 POP PUSH2 0x30CE JUMP JUMPDEST PUSH2 0x30CB PUSH32 0x0 PUSH32 0x0 PUSH32 0x0 PUSH2 0x3745 JUMP JUMPDEST SWAP1 POP JUMPDEST SWAP1 JUMP JUMPDEST PUSH1 0x0 DUP3 DUP3 PUSH1 0x40 MLOAD PUSH1 0x20 ADD PUSH2 0x30E6 SWAP3 SWAP2 SWAP1 PUSH2 0x5B05 JUMP JUMPDEST PUSH1 0x40 MLOAD PUSH1 0x20 DUP2 DUP4 SUB SUB DUP2 MSTORE SWAP1 PUSH1 0x40 MSTORE DUP1 MLOAD SWAP1 PUSH1 0x20 ADD KECCAK256 SWAP1 POP SWAP3 SWAP2 POP POP JUMP JUMPDEST PUSH1 0x0 DUP1 PUSH32 0x7FFFFFFFFFFFFFFFFFFFFFFFFFFFFFFF5D576E7357A4501DDFE92F46681B20A0 DUP4 PUSH1 0x0 SHR GT ISZERO PUSH2 0x313F JUMPI PUSH1 0x0 PUSH1 0x3 SWAP2 POP SWAP2 POP PUSH2 0x31DD JUMP JUMPDEST PUSH1 0x0 PUSH1 0x1 DUP8 DUP8 DUP8 DUP8 PUSH1 0x40 MLOAD PUSH1 0x0 DUP2 MSTORE PUSH1 0x20 ADD PUSH1 0x40 MSTORE PUSH1 0x40 MLOAD PUSH2 0x3164 SWAP5 SWAP4 SWAP3 SWAP2 SWAP1 PUSH2 0x5B3C JUMP JUMPDEST PUSH1 0x20 PUSH1 0x40 MLOAD PUSH1 0x20 DUP2 SUB SWAP1 DUP1 DUP5 SUB SWAP1 DUP6 GAS STATICCALL ISZERO DUP1 ISZERO PUSH2 0x3186 JUMPI RETURNDATASIZE PUSH1 0x0 DUP1 RETURNDATACOPY RETURNDATASIZE PUSH1 0x0 REVERT JUMPDEST POP POP POP PUSH1 0x20 PUSH1 0x40 MLOAD SUB MLOAD SWAP1 POP PUSH1 0x0 PUSH20 0xFFFFFFFFFFFFFFFFFFFFFFFFFFFFFFFFFFFFFFFF AND DUP2 PUSH20 0xFFFFFFFFFFFFFFFFFFFFFFFFFFFFFFFFFFFFFFFF AND SUB PUSH2 0x31D4 JUMPI PUSH1 0x0 PUSH1 0x1 SWAP3 POP SWAP3 POP POP PUSH2 0x31DD JUMP JUMPDEST DUP1 PUSH1 0x0 SWAP3 POP SWAP3 POP POP JUMPDEST SWAP5 POP SWAP5 SWAP3 POP POP POP JUMP JUMPDEST PUSH1 0x0 PUSH1 0x4 DUP2 GT ISZERO PUSH2 0x31FA JUMPI PUSH2 0x31F9 PUSH2 0x4167 JUMP JUMPDEST JUMPDEST DUP2 PUSH1 0x4 DUP2 GT ISZERO PUSH2 0x320D JUMPI PUSH2 0x320C PUSH2 0x4167 JUMP JUMPDEST JUMPDEST SUB ISZERO PUSH2 0x3349 JUMPI PUSH1 0x1 PUSH1 0x4 DUP2 GT ISZERO PUSH2 0x3227 JUMPI PUSH2 0x3226 PUSH2 0x4167 JUMP JUMPDEST JUMPDEST DUP2 PUSH1 0x4 DUP2 GT ISZERO PUSH2 0x323A JUMPI PUSH2 0x3239 PUSH2 0x4167 JUMP JUMPDEST JUMPDEST SUB PUSH2 0x327A JUMPI PUSH1 0x40 MLOAD PUSH32 0x8C379A000000000000000000000000000000000000000000000000000000000 DUP2 MSTORE PUSH1 0x4 ADD PUSH2 0x3271 SWAP1 PUSH2 0x5BCD JUMP JUMPDEST PUSH1 0x40 MLOAD DUP1 SWAP2 SUB SWAP1 REVERT JUMPDEST PUSH1 0x2 PUSH1 0x4 DUP2 GT ISZERO PUSH2 0x328E JUMPI PUSH2 0x328D PUSH2 0x4167 JUMP JUMPDEST JUMPDEST DUP2 PUSH1 0x4 DUP2 GT ISZERO PUSH2 0x32A1 JUMPI PUSH2 0x32A0 PUSH2 0x4167 JUMP JUMPDEST JUMPDEST SUB PUSH2 0x32E1 JUMPI PUSH1 0x40 MLOAD PUSH32 0x8C379A000000000000000000000000000000000000000000000000000000000 DUP2 MSTORE PUSH1 0x4 ADD PUSH2 0x32D8 SWAP1 PUSH2 0x5C39 JUMP JUMPDEST PUSH1 0x40 MLOAD DUP1 SWAP2 SUB SWAP1 REVERT JUMPDEST PUSH1 0x3 PUSH1 0x4 DUP2 GT ISZERO PUSH2 0x32F5 JUMPI PUSH2 0x32F4 PUSH2 0x4167 JUMP JUMPDEST JUMPDEST DUP2 PUSH1 0x4 DUP2 GT ISZERO PUSH2 0x3308 JUMPI PUSH2 0x3307 PUSH2 0x4167 JUMP JUMPDEST JUMPDEST SUB PUSH2 0x3348 JUMPI PUSH1 0x40 MLOAD PUSH32 0x8C379A000000000000000000000000000000000000000000000000000000000 DUP2 MSTORE PUSH1 0x4 ADD PUSH2 0x333F SWAP1 PUSH2 0x5CCB JUMP JUMPDEST PUSH1 0x40 MLOAD DUP1 SWAP2 SUB SWAP1 REVERT JUMPDEST JUMPDEST POP JUMP JUMPDEST PUSH1 0x0 PUSH1 0x7 PUSH1 0x0 DUP8 DUP2 MSTORE PUSH1 0x20 ADD SWAP1 DUP2 MSTORE PUSH1 0x20 ADD PUSH1 0x0 KECCAK256 SWAP1 POP DUP1 PUSH1 0x3 ADD PUSH1 0x0 DUP7 PUSH20 0xFFFFFFFFFFFFFFFFFFFFFFFFFFFFFFFFFFFFFFFF AND PUSH20 0xFFFFFFFFFFFFFFFFFFFFFFFFFFFFFFFFFFFFFFFF AND DUP2 MSTORE PUSH1 0x20 ADD SWAP1 DUP2 MSTORE PUSH1 0x20 ADD PUSH1 0x0 KECCAK256 PUSH1 0x0 SWAP1 SLOAD SWAP1 PUSH2 0x100 EXP SWAP1 DIV PUSH1 0xFF AND ISZERO PUSH2 0x33F2 JUMPI PUSH1 0x40 MLOAD PUSH32 0x8C379A000000000000000000000000000000000000000000000000000000000 DUP2 MSTORE PUSH1 0x4 ADD PUSH2 0x33E9 SWAP1 PUSH2 0x5D5D JUMP JUMPDEST PUSH1 0x40 MLOAD DUP1 SWAP2 SUB SWAP1 REVERT JUMPDEST PUSH1 0x1 DUP2 PUSH1 0x3 ADD PUSH1 0x0 DUP8 PUSH20 0xFFFFFFFFFFFFFFFFFFFFFFFFFFFFFFFFFFFFFFFF AND PUSH20 0xFFFFFFFFFFFFFFFFFFFFFFFFFFFFFFFFFFFFFFFF AND DUP2 MSTORE PUSH1 0x20 ADD SWAP1 DUP2 MSTORE PUSH1 0x20 ADD PUSH1 0x0 KECCAK256 PUSH1 0x0 PUSH2 0x100 EXP DUP2 SLOAD DUP2 PUSH1 0xFF MUL NOT AND SWAP1 DUP4 ISZERO ISZERO MUL OR SWAP1 SSTORE POP PUSH1 0x0 PUSH1 0x2 DUP2 GT ISZERO PUSH2 0x3460 JUMPI PUSH2 0x345F PUSH2 0x4167 JUMP JUMPDEST JUMPDEST PUSH1 0xFF AND DUP5 PUSH1 0xFF AND SUB PUSH2 0x348C JUMPI DUP3 DUP2 PUSH1 0x0 ADD PUSH1 0x0 DUP3 DUP3 SLOAD PUSH2 0x3480 SWAP2 SWAP1 PUSH2 0x5750 JUMP JUMPDEST SWAP3 POP POP DUP2 SWAP1 SSTORE POP PUSH2 0x3548 JUMP JUMPDEST PUSH1 0x1 PUSH1 0x2 DUP2 GT ISZERO PUSH2 0x34A0 JUMPI PUSH2 0x349F PUSH2 0x4167 JUMP JUMPDEST JUMPDEST PUSH1 0xFF AND DUP5 PUSH1 0xFF AND SUB PUSH2 0x34CC JUMPI DUP3 DUP2 PUSH1 0x1 ADD PUSH1 0x0 DUP3 DUP3 SLOAD PUSH2 0x34C0 SWAP2 SWAP1 PUSH2 0x5750 JUMP JUMPDEST SWAP3 POP POP DUP2 SWAP1 SSTORE POP PUSH2 0x3547 JUMP JUMPDEST PUSH1 0x2 DUP1 DUP2 GT ISZERO PUSH2 0x34DF JUMPI PUSH2 0x34DE PUSH2 0x4167 JUMP JUMPDEST JUMPDEST PUSH1 0xFF AND DUP5 PUSH1 0xFF AND SUB PUSH2 0x350B JUMPI DUP3 DUP2 PUSH1 0x2 ADD PUSH1 0x0 DUP3 DUP3 SLOAD PUSH2 0x34FF SWAP2 SWAP1 PUSH2 0x5750 JUMP JUMPDEST SWAP3 POP POP DUP2 SWAP1 SSTORE POP PUSH2 0x3546 JUMP JUMPDEST PUSH1 0x40 MLOAD PUSH32 0x8C379A000000000000000000000000000000000000000000000000000000000 DUP2 MSTORE PUSH1 0x4 ADD PUSH2 0x353D SWAP1 PUSH2 0x5DEF JUMP JUMPDEST PUSH1 0x40 MLOAD DUP1 SWAP2 SUB SWAP1 REVERT JUMPDEST JUMPDEST JUMPDEST POP POP POP POP POP POP JUMP JUMPDEST PUSH1 0x0 DUP2 PUSH1 0x0 ADD PUSH1 0x0 SWAP1 SLOAD SWAP1 PUSH2 0x100 EXP SWAP1 DIV PUSH1 0xF SIGNEXTEND PUSH1 0xF SIGNEXTEND DUP3 PUSH1 0x0 ADD PUSH1 0x10 SWAP1 SLOAD SWAP1 PUSH2 0x100 EXP SWAP1 DIV PUSH1 0xF SIGNEXTEND PUSH1 0xF SIGNEXTEND SGT ISZERO SWAP1 POP SWAP2 SWAP1 POP JUMP JUMPDEST PUSH1 0x0 DUP3 PUSH1 0x0 ADD PUSH1 0x10 SWAP1 SLOAD SWAP1 PUSH2 0x100 EXP SWAP1 DIV PUSH1 0xF SIGNEXTEND SWAP1 POP DUP2 DUP4 PUSH1 0x1 ADD PUSH1 0x0 DUP4 PUSH1 0xF SIGNEXTEND PUSH1 0xF SIGNEXTEND DUP2 MSTORE PUSH1 0x20 ADD SWAP1 DUP2 MSTORE PUSH1 0x20 ADD PUSH1 0x0 KECCAK256 DUP2 SWAP1 SSTORE POP PUSH1 0x1 DUP2 ADD DUP4 PUSH1 0x0 ADD PUSH1 0x10 PUSH2 0x100 EXP DUP2 SLOAD DUP2 PUSH16 0xFFFFFFFFFFFFFFFFFFFFFFFFFFFFFFFF MUL NOT AND SWAP1 DUP4 PUSH1 0xF SIGNEXTEND PUSH16 0xFFFFFFFFFFFFFFFFFFFFFFFFFFFFFFFF AND MUL OR SWAP1 SSTORE POP POP POP POP JUMP JUMPDEST PUSH1 0x0 DUP2 PUSH1 0x0 ADD PUSH1 0x0 PUSH2 0x100 EXP DUP2 SLOAD DUP2 PUSH16 0xFFFFFFFFFFFFFFFFFFFFFFFFFFFFFFFF MUL NOT AND SWAP1 DUP4 PUSH1 0xF SIGNEXTEND PUSH16 0xFFFFFFFFFFFFFFFFFFFFFFFFFFFFFFFF AND MUL OR SWAP1 SSTORE POP PUSH1 0x0 DUP2 PUSH1 0x0 ADD PUSH1 0x10 PUSH2 0x100 EXP DUP2 SLOAD DUP2 PUSH16 0xFFFFFFFFFFFFFFFFFFFFFFFFFFFFFFFF MUL NOT AND SWAP1 DUP4 PUSH1 0xF SIGNEXTEND PUSH16 0xFFFFFFFFFFFFFFFFFFFFFFFFFFFFFFFF AND MUL OR SWAP1 SSTORE POP POP JUMP JUMPDEST PUSH1 0x0 JUMPDEST DUP2 DUP4 LT ISZERO PUSH2 0x36EA JUMPI PUSH1 0x0 PUSH2 0x3699 DUP5 DUP5 PUSH2 0x377F JUMP JUMPDEST SWAP1 POP DUP5 PUSH4 0xFFFFFFFF AND PUSH2 0x36AC DUP8 DUP4 PUSH2 0x2FA2 JUMP JUMPDEST PUSH1 0x0 ADD PUSH1 0x0 SWAP1 SLOAD SWAP1 PUSH2 0x100 EXP SWAP1 DIV PUSH4 0xFFFFFFFF AND PUSH4 0xFFFFFFFF AND GT ISZERO PUSH2 0x36D4 JUMPI DUP1 SWAP3 POP PUSH2 0x36E4 JUMP JUMPDEST PUSH1 0x1 DUP2 PUSH2 0x36E1 SWAP2 SWAP1 PUSH2 0x5750 JUMP JUMPDEST SWAP4 POP JUMPDEST POP PUSH2 0x3685 JUMP JUMPDEST DUP2 SWAP1 POP SWAP5 SWAP4 POP POP POP POP JUMP JUMPDEST PUSH1 0x0 DUP3 MLOAD GT ISZERO PUSH2 0x3708 JUMPI DUP2 MLOAD DUP1 DUP4 PUSH1 0x20 ADD REVERT JUMPDEST DUP1 PUSH1 0x40 MLOAD PUSH32 0x8C379A000000000000000000000000000000000000000000000000000000000 DUP2 MSTORE PUSH1 0x4 ADD PUSH2 0x373C SWAP2 SWAP1 PUSH2 0x3C73 JUMP JUMPDEST PUSH1 0x40 MLOAD DUP1 SWAP2 SUB SWAP1 REVERT JUMPDEST PUSH1 0x0 DUP4 DUP4 DUP4 CHAINID ADDRESS PUSH1 0x40 MLOAD PUSH1 0x20 ADD PUSH2 0x3760 SWAP6 SWAP5 SWAP4 SWAP3 SWAP2 SWAP1 PUSH2 0x5E0F JUMP JUMPDEST PUSH1 0x40 MLOAD PUSH1 0x20 DUP2 DUP4 SUB SUB DUP2 MSTORE SWAP1 PUSH1 0x40 MSTORE DUP1 MLOAD SWAP1 PUSH1 0x20 ADD KECCAK256 SWAP1 POP SWAP4 SWAP3 POP POP POP JUMP JUMPDEST PUSH1 0x0 PUSH1 0x2 DUP3 DUP5 XOR PUSH2 0x3790 SWAP2 SWAP1 PUSH2 0x59F0 JUMP JUMPDEST DUP3 DUP5 AND PUSH2 0x379D SWAP2 SWAP1 PUSH2 0x5750 JUMP JUMPDEST SWAP1 POP SWAP3 SWAP2 POP POP JUMP JUMPDEST PUSH1 0x0 PUSH1 0x40 MLOAD SWAP1 POP SWAP1 JUMP JUMPDEST PUSH1 0x0 DUP1 REVERT JUMPDEST PUSH1 0x0 DUP1 REVERT JUMPDEST PUSH1 0x0 PUSH32 0xFFFFFFFF00000000000000000000000000000000000000000000000000000000 DUP3 AND SWAP1 POP SWAP2 SWAP1 POP JUMP JUMPDEST PUSH2 0x37EE DUP2 PUSH2 0x37B9 JUMP JUMPDEST DUP2 EQ PUSH2 0x37F9 JUMPI PUSH1 0x0 DUP1 REVERT JUMPDEST POP JUMP JUMPDEST PUSH1 0x0 DUP2 CALLDATALOAD SWAP1 POP PUSH2 0x380B DUP2 PUSH2 0x37E5 JUMP JUMPDEST SWAP3 SWAP2 POP POP JUMP JUMPDEST PUSH1 0x0 PUSH1 0x20 DUP3 DUP5 SUB SLT ISZERO PUSH2 0x3827 JUMPI PUSH2 0x3826 PUSH2 0x37AF JUMP JUMPDEST JUMPDEST PUSH1 0x0 PUSH2 0x3835 DUP5 DUP3 DUP6 ADD PUSH2 0x37FC JUMP JUMPDEST SWAP2 POP POP SWAP3 SWAP2 POP POP JUMP JUMPDEST PUSH1 0x0 DUP2 ISZERO ISZERO SWAP1 POP SWAP2 SWAP1 POP JUMP JUMPDEST PUSH2 0x3853 DUP2 PUSH2 0x383E JUMP JUMPDEST DUP3 MSTORE POP POP JUMP JUMPDEST PUSH1 0x0 PUSH1 0x20 DUP3 ADD SWAP1 POP PUSH2 0x386E PUSH1 0x0 DUP4 ADD DUP5 PUSH2 0x384A JUMP JUMPDEST SWAP3 SWAP2 POP POP JUMP JUMPDEST PUSH1 0x0 DUP2 SWAP1 POP SWAP2 SWAP1 POP JUMP JUMPDEST PUSH2 0x3887 DUP2 PUSH2 0x3874 JUMP JUMPDEST DUP3 MSTORE POP POP JUMP JUMPDEST PUSH1 0x0 PUSH1 0x20 DUP3 ADD SWAP1 POP PUSH2 0x38A2 PUSH1 0x0 DUP4 ADD DUP5 PUSH2 0x387E JUMP JUMPDEST SWAP3 SWAP2 POP POP JUMP JUMPDEST PUSH2 0x38B1 DUP2 PUSH2 0x3874 JUMP JUMPDEST DUP2 EQ PUSH2 0x38BC JUMPI PUSH1 0x0 DUP1 REVERT JUMPDEST POP JUMP JUMPDEST PUSH1 0x0 DUP2 CALLDATALOAD SWAP1 POP PUSH2 0x38CE DUP2 PUSH2 0x38A8 JUMP JUMPDEST SWAP3 SWAP2 POP POP JUMP JUMPDEST PUSH1 0x0 PUSH1 0xFF DUP3 AND SWAP1 POP SWAP2 SWAP1 POP JUMP JUMPDEST PUSH2 0x38EA DUP2 PUSH2 0x38D4 JUMP JUMPDEST DUP2 EQ PUSH2 0x38F5 JUMPI PUSH1 0x0 DUP1 REVERT JUMPDEST POP JUMP JUMPDEST PUSH1 0x0 DUP2 CALLDATALOAD SWAP1 POP PUSH2 0x3907 DUP2 PUSH2 0x38E1 JUMP JUMPDEST SWAP3 SWAP2 POP POP JUMP JUMPDEST PUSH1 0x0 DUP1 REVERT JUMPDEST PUSH1 0x0 DUP1 REVERT JUMPDEST PUSH1 0x0 DUP1 REVERT JUMPDEST PUSH1 0x0 DUP1 DUP4 PUSH1 0x1F DUP5 ADD SLT PUSH2 0x3932 JUMPI PUSH2 0x3931 PUSH2 0x390D JUMP JUMPDEST JUMPDEST DUP3 CALLDATALOAD SWAP1 POP PUSH8 0xFFFFFFFFFFFFFFFF DUP2 GT ISZERO PUSH2 0x394F JUMPI PUSH2 0x394E PUSH2 0x3912 JUMP JUMPDEST JUMPDEST PUSH1 0x20 DUP4 ADD SWAP2 POP DUP4 PUSH1 0x1 DUP3 MUL DUP4 ADD GT ISZERO PUSH2 0x396B JUMPI PUSH2 0x396A PUSH2 0x3917 JUMP JUMPDEST JUMPDEST SWAP3 POP SWAP3 SWAP1 POP JUMP JUMPDEST PUSH1 0x0 DUP1 REVERT JUMPDEST PUSH1 0x0 PUSH1 0x1F NOT PUSH1 0x1F DUP4 ADD AND SWAP1 POP SWAP2 SWAP1 POP JUMP JUMPDEST PUSH32 0x4E487B7100000000000000000000000000000000000000000000000000000000 PUSH1 0x0 MSTORE PUSH1 0x41 PUSH1 0x4 MSTORE PUSH1 0x24 PUSH1 0x0 REVERT JUMPDEST PUSH2 0x39C0 DUP3 PUSH2 0x3977 JUMP JUMPDEST DUP2 ADD DUP2 DUP2 LT PUSH8 0xFFFFFFFFFFFFFFFF DUP3 GT OR ISZERO PUSH2 0x39DF JUMPI PUSH2 0x39DE PUSH2 0x3988 JUMP JUMPDEST JUMPDEST DUP1 PUSH1 0x40 MSTORE POP POP POP JUMP JUMPDEST PUSH1 0x0 PUSH2 0x39F2 PUSH2 0x37A5 JUMP JUMPDEST SWAP1 POP PUSH2 0x39FE DUP3 DUP3 PUSH2 0x39B7 JUMP JUMPDEST SWAP2 SWAP1 POP JUMP JUMPDEST PUSH1 0x0 PUSH8 0xFFFFFFFFFFFFFFFF DUP3 GT ISZERO PUSH2 0x3A1E JUMPI PUSH2 0x3A1D PUSH2 0x3988 JUMP JUMPDEST JUMPDEST PUSH2 0x3A27 DUP3 PUSH2 0x3977 JUMP JUMPDEST SWAP1 POP PUSH1 0x20 DUP2 ADD SWAP1 POP SWAP2 SWAP1 POP JUMP JUMPDEST DUP3 DUP2 DUP4 CALLDATACOPY PUSH1 0x0 DUP4 DUP4 ADD MSTORE POP POP POP JUMP JUMPDEST PUSH1 0x0 PUSH2 0x3A56 PUSH2 0x3A51 DUP5 PUSH2 0x3A03 JUMP JUMPDEST PUSH2 0x39E8 JUMP JUMPDEST SWAP1 POP DUP3 DUP2 MSTORE PUSH1 0x20 DUP2 ADD DUP5 DUP5 DUP5 ADD GT ISZERO PUSH2 0x3A72 JUMPI PUSH2 0x3A71 PUSH2 0x3972 JUMP JUMPDEST JUMPDEST PUSH2 0x3A7D DUP5 DUP3 DUP6 PUSH2 0x3A34 JUMP JUMPDEST POP SWAP4 SWAP3 POP POP POP JUMP JUMPDEST PUSH1 0x0 DUP3 PUSH1 0x1F DUP4 ADD SLT PUSH2 0x3A9A JUMPI PUSH2 0x3A99 PUSH2 0x390D JUMP JUMPDEST JUMPDEST DUP2 CALLDATALOAD PUSH2 0x3AAA DUP5 DUP3 PUSH1 0x20 DUP7 ADD PUSH2 0x3A43 JUMP JUMPDEST SWAP2 POP POP SWAP3 SWAP2 POP POP JUMP JUMPDEST PUSH1 0x0 DUP2 SWAP1 POP SWAP2 SWAP1 POP JUMP JUMPDEST PUSH2 0x3AC6 DUP2 PUSH2 0x3AB3 JUMP JUMPDEST DUP2 EQ PUSH2 0x3AD1 JUMPI PUSH1 0x0 DUP1 REVERT JUMPDEST POP JUMP JUMPDEST PUSH1 0x0 DUP2 CALLDATALOAD SWAP1 POP PUSH2 0x3AE3 DUP2 PUSH2 0x3ABD JUMP JUMPDEST SWAP3 SWAP2 POP POP JUMP JUMPDEST PUSH1 0x0 DUP1 PUSH1 0x0 DUP1 PUSH1 0x0 DUP1 PUSH1 0x0 DUP1 PUSH1 0xE0 DUP10 DUP12 SUB SLT ISZERO PUSH2 0x3B09 JUMPI PUSH2 0x3B08 PUSH2 0x37AF JUMP JUMPDEST JUMPDEST PUSH1 0x0 PUSH2 0x3B17 DUP12 DUP3 DUP13 ADD PUSH2 0x38BF JUMP JUMPDEST SWAP9 POP POP PUSH1 0x20 PUSH2 0x3B28 DUP12 DUP3 DUP13 ADD PUSH2 0x38F8 JUMP JUMPDEST SWAP8 POP POP PUSH1 0x40 DUP10 ADD CALLDATALOAD PUSH8 0xFFFFFFFFFFFFFFFF DUP2 GT ISZERO PUSH2 0x3B49 JUMPI PUSH2 0x3B48 PUSH2 0x37B4 JUMP JUMPDEST JUMPDEST PUSH2 0x3B55 DUP12 DUP3 DUP13 ADD PUSH2 0x391C JUMP JUMPDEST SWAP7 POP SWAP7 POP POP PUSH1 0x60 DUP10 ADD CALLDATALOAD PUSH8 0xFFFFFFFFFFFFFFFF DUP2 GT ISZERO PUSH2 0x3B78 JUMPI PUSH2 0x3B77 PUSH2 0x37B4 JUMP JUMPDEST JUMPDEST PUSH2 0x3B84 DUP12 DUP3 DUP13 ADD PUSH2 0x3A85 JUMP JUMPDEST SWAP5 POP POP PUSH1 0x80 PUSH2 0x3B95 DUP12 DUP3 DUP13 ADD PUSH2 0x38F8 JUMP JUMPDEST SWAP4 POP POP PUSH1 0xA0 PUSH2 0x3BA6 DUP12 DUP3 DUP13 ADD PUSH2 0x3AD4 JUMP JUMPDEST SWAP3 POP POP PUSH1 0xC0 PUSH2 0x3BB7 DUP12 DUP3 DUP13 ADD PUSH2 0x3AD4 JUMP JUMPDEST SWAP2 POP POP SWAP3 SWAP6 SWAP9 POP SWAP3 SWAP6 SWAP9 SWAP1 SWAP4 SWAP7 POP JUMP JUMPDEST PUSH1 0x0 PUSH1 0x20 DUP3 DUP5 SUB SLT ISZERO PUSH2 0x3BDD JUMPI PUSH2 0x3BDC PUSH2 0x37AF JUMP JUMPDEST JUMPDEST PUSH1 0x0 PUSH2 0x3BEB DUP5 DUP3 DUP6 ADD PUSH2 0x38BF JUMP JUMPDEST SWAP2 POP POP SWAP3 SWAP2 POP POP JUMP JUMPDEST PUSH1 0x0 DUP2 MLOAD SWAP1 POP SWAP2 SWAP1 POP JUMP JUMPDEST PUSH1 0x0 DUP3 DUP3 MSTORE PUSH1 0x20 DUP3 ADD SWAP1 POP SWAP3 SWAP2 POP POP JUMP JUMPDEST PUSH1 0x0 JUMPDEST DUP4 DUP2 LT ISZERO PUSH2 0x3C2E JUMPI DUP1 DUP3 ADD MLOAD DUP2 DUP5 ADD MSTORE PUSH1 0x20 DUP2 ADD SWAP1 POP PUSH2 0x3C13 JUMP JUMPDEST PUSH1 0x0 DUP5 DUP5 ADD MSTORE POP POP POP POP JUMP JUMPDEST PUSH1 0x0 PUSH2 0x3C45 DUP3 PUSH2 0x3BF4 JUMP JUMPDEST PUSH2 0x3C4F DUP2 DUP6 PUSH2 0x3BFF JUMP JUMPDEST SWAP4 POP PUSH2 0x3C5F DUP2 DUP6 PUSH1 0x20 DUP7 ADD PUSH2 0x3C10 JUMP JUMPDEST PUSH2 0x3C68 DUP2 PUSH2 0x3977 JUMP JUMPDEST DUP5 ADD SWAP2 POP POP SWAP3 SWAP2 POP POP JUMP JUMPDEST PUSH1 0x0 PUSH1 0x20 DUP3 ADD SWAP1 POP DUP2 DUP2 SUB PUSH1 0x0 DUP4 ADD MSTORE PUSH2 0x3C8D DUP2 DUP5 PUSH2 0x3C3A JUMP JUMPDEST SWAP1 POP SWAP3 SWAP2 POP POP JUMP JUMPDEST PUSH1 0x0 PUSH20 0xFFFFFFFFFFFFFFFFFFFFFFFFFFFFFFFFFFFFFFFF DUP3 AND SWAP1 POP SWAP2 SWAP1 POP JUMP JUMPDEST PUSH1 0x0 PUSH2 0x3CC0 DUP3 PUSH2 0x3C95 JUMP JUMPDEST SWAP1 POP SWAP2 SWAP1 POP JUMP JUMPDEST PUSH2 0x3CD0 DUP2 PUSH2 0x3CB5 JUMP JUMPDEST DUP2 EQ PUSH2 0x3CDB JUMPI PUSH1 0x0 DUP1 REVERT JUMPDEST POP JUMP JUMPDEST PUSH1 0x0 DUP2 CALLDATALOAD SWAP1 POP PUSH2 0x3CED DUP2 PUSH2 0x3CC7 JUMP JUMPDEST SWAP3 SWAP2 POP POP JUMP JUMPDEST PUSH1 0x0 DUP1 PUSH1 0x0 DUP1 PUSH1 0x80 DUP6 DUP8 SUB SLT ISZERO PUSH2 0x3D0D JUMPI PUSH2 0x3D0C PUSH2 0x37AF JUMP JUMPDEST JUMPDEST PUSH1 0x0 PUSH2 0x3D1B DUP8 DUP3 DUP9 ADD PUSH2 0x3CDE JUMP JUMPDEST SWAP5 POP POP PUSH1 0x20 PUSH2 0x3D2C DUP8 DUP3 DUP9 ADD PUSH2 0x3CDE JUMP JUMPDEST SWAP4 POP POP PUSH1 0x40 PUSH2 0x3D3D DUP8 DUP3 DUP9 ADD PUSH2 0x38BF JUMP JUMPDEST SWAP3 POP POP PUSH1 0x60 DUP6 ADD CALLDATALOAD PUSH8 0xFFFFFFFFFFFFFFFF DUP2 GT ISZERO PUSH2 0x3D5E JUMPI PUSH2 0x3D5D PUSH2 0x37B4 JUMP JUMPDEST JUMPDEST PUSH2 0x3D6A DUP8 DUP3 DUP9 ADD PUSH2 0x3A85 JUMP JUMPDEST SWAP2 POP POP SWAP3 SWAP6 SWAP2 SWAP5 POP SWAP3 POP JUMP JUMPDEST PUSH2 0x3D7F DUP2 PUSH2 0x37B9 JUMP JUMPDEST DUP3 MSTORE POP POP JUMP JUMPDEST PUSH1 0x0 PUSH1 0x20 DUP3 ADD SWAP1 POP PUSH2 0x3D9A PUSH1 0x0 DUP4 ADD DUP5 PUSH2 0x3D76 JUMP JUMPDEST SWAP3 SWAP2 POP POP JUMP JUMPDEST PUSH1 0x0 PUSH8 0xFFFFFFFFFFFFFFFF DUP3 GT ISZERO PUSH2 0x3DBB JUMPI PUSH2 0x3DBA PUSH2 0x3988 JUMP JUMPDEST JUMPDEST PUSH1 0x20 DUP3 MUL SWAP1 POP PUSH1 0x20 DUP2 ADD SWAP1 POP SWAP2 SWAP1 POP JUMP JUMPDEST PUSH1 0x0 PUSH2 0x3DDF PUSH2 0x3DDA DUP5 PUSH2 0x3DA0 JUMP JUMPDEST PUSH2 0x39E8 JUMP JUMPDEST SWAP1 POP DUP1 DUP4 DUP3 MSTORE PUSH1 0x20 DUP3 ADD SWAP1 POP PUSH1 0x20 DUP5 MUL DUP4 ADD DUP6 DUP2 GT ISZERO PUSH2 0x3E02 JUMPI PUSH2 0x3E01 PUSH2 0x3917 JUMP JUMPDEST JUMPDEST DUP4 JUMPDEST DUP2 DUP2 LT ISZERO PUSH2 0x3E2B JUMPI DUP1 PUSH2 0x3E17 DUP9 DUP3 PUSH2 0x3CDE JUMP JUMPDEST DUP5 MSTORE PUSH1 0x20 DUP5 ADD SWAP4 POP POP PUSH1 0x20 DUP2 ADD SWAP1 POP PUSH2 0x3E04 JUMP JUMPDEST POP POP POP SWAP4 SWAP3 POP POP POP JUMP JUMPDEST PUSH1 0x0 DUP3 PUSH1 0x1F DUP4 ADD SLT PUSH2 0x3E4A JUMPI PUSH2 0x3E49 PUSH2 0x390D JUMP JUMPDEST JUMPDEST DUP2 CALLDATALOAD PUSH2 0x3E5A DUP5 DUP3 PUSH1 0x20 DUP7 ADD PUSH2 0x3DCC JUMP JUMPDEST SWAP2 POP POP SWAP3 SWAP2 POP POP JUMP JUMPDEST PUSH1 0x0 PUSH8 0xFFFFFFFFFFFFFFFF DUP3 GT ISZERO PUSH2 0x3E7E JUMPI PUSH2 0x3E7D PUSH2 0x3988 JUMP JUMPDEST JUMPDEST PUSH1 0x20 DUP3 MUL SWAP1 POP PUSH1 0x20 DUP2 ADD SWAP1 POP SWAP2 SWAP1 POP JUMP JUMPDEST PUSH1 0x0 PUSH2 0x3EA2 PUSH2 0x3E9D DUP5 PUSH2 0x3E63 JUMP JUMPDEST PUSH2 0x39E8 JUMP JUMPDEST SWAP1 POP DUP1 DUP4 DUP3 MSTORE PUSH1 0x20 DUP3 ADD SWAP1 POP PUSH1 0x20 DUP5 MUL DUP4 ADD DUP6 DUP2 GT ISZERO PUSH2 0x3EC5 JUMPI PUSH2 0x3EC4 PUSH2 0x3917 JUMP JUMPDEST JUMPDEST DUP4 JUMPDEST DUP2 DUP2 LT ISZERO PUSH2 0x3EEE JUMPI DUP1 PUSH2 0x3EDA DUP9 DUP3 PUSH2 0x38BF JUMP JUMPDEST DUP5 MSTORE PUSH1 0x20 DUP5 ADD SWAP4 POP POP PUSH1 0x20 DUP2 ADD SWAP1 POP PUSH2 0x3EC7 JUMP JUMPDEST POP POP POP SWAP4 SWAP3 POP POP POP JUMP JUMPDEST PUSH1 0x0 DUP3 PUSH1 0x1F DUP4 ADD SLT PUSH2 0x3F0D JUMPI PUSH2 0x3F0C PUSH2 0x390D JUMP JUMPDEST JUMPDEST DUP2 CALLDATALOAD PUSH2 0x3F1D DUP5 DUP3 PUSH1 0x20 DUP7 ADD PUSH2 0x3E8F JUMP JUMPDEST SWAP2 POP POP SWAP3 SWAP2 POP POP JUMP JUMPDEST PUSH1 0x0 PUSH8 0xFFFFFFFFFFFFFFFF DUP3 GT ISZERO PUSH2 0x3F41 JUMPI PUSH2 0x3F40 PUSH2 0x3988 JUMP JUMPDEST JUMPDEST PUSH1 0x20 DUP3 MUL SWAP1 POP PUSH1 0x20 DUP2 ADD SWAP1 POP SWAP2 SWAP1 POP JUMP JUMPDEST PUSH1 0x0 PUSH2 0x3F65 PUSH2 0x3F60 DUP5 PUSH2 0x3F26 JUMP JUMPDEST PUSH2 0x39E8 JUMP JUMPDEST SWAP1 POP DUP1 DUP4 DUP3 MSTORE PUSH1 0x20 DUP3 ADD SWAP1 POP PUSH1 0x20 DUP5 MUL DUP4 ADD DUP6 DUP2 GT ISZERO PUSH2 0x3F88 JUMPI PUSH2 0x3F87 PUSH2 0x3917 JUMP JUMPDEST JUMPDEST DUP4 JUMPDEST DUP2 DUP2 LT ISZERO PUSH2 0x3FCF JUMPI DUP1 CALLDATALOAD PUSH8 0xFFFFFFFFFFFFFFFF DUP2 GT ISZERO PUSH2 0x3FAD JUMPI PUSH2 0x3FAC PUSH2 0x390D JUMP JUMPDEST JUMPDEST DUP1 DUP7 ADD PUSH2 0x3FBA DUP10 DUP3 PUSH2 0x3A85 JUMP JUMPDEST DUP6 MSTORE PUSH1 0x20 DUP6 ADD SWAP5 POP POP POP PUSH1 0x20 DUP2 ADD SWAP1 POP PUSH2 0x3F8A JUMP JUMPDEST POP POP POP SWAP4 SWAP3 POP POP POP JUMP JUMPDEST PUSH1 0x0 DUP3 PUSH1 0x1F DUP4 ADD SLT PUSH2 0x3FEE JUMPI PUSH2 0x3FED PUSH2 0x390D JUMP JUMPDEST JUMPDEST DUP2 CALLDATALOAD PUSH2 0x3FFE DUP5 DUP3 PUSH1 0x20 DUP7 ADD PUSH2 0x3F52 JUMP JUMPDEST SWAP2 POP POP SWAP3 SWAP2 POP POP JUMP JUMPDEST PUSH1 0x0 DUP1 PUSH1 0x0 DUP1 PUSH1 0x80 DUP6 DUP8 SUB SLT ISZERO PUSH2 0x4021 JUMPI PUSH2 0x4020 PUSH2 0x37AF JUMP JUMPDEST JUMPDEST PUSH1 0x0 DUP6 ADD CALLDATALOAD PUSH8 0xFFFFFFFFFFFFFFFF DUP2 GT ISZERO PUSH2 0x403F JUMPI PUSH2 0x403E PUSH2 0x37B4 JUMP JUMPDEST JUMPDEST PUSH2 0x404B DUP8 DUP3 DUP9 ADD PUSH2 0x3E35 JUMP JUMPDEST SWAP5 POP POP PUSH1 0x20 DUP6 ADD CALLDATALOAD PUSH8 0xFFFFFFFFFFFFFFFF DUP2 GT ISZERO PUSH2 0x406C JUMPI PUSH2 0x406B PUSH2 0x37B4 JUMP JUMPDEST JUMPDEST PUSH2 0x4078 DUP8 DUP3 DUP9 ADD PUSH2 0x3EF8 JUMP JUMPDEST SWAP4 POP POP PUSH1 0x40 DUP6 ADD CALLDATALOAD PUSH8 0xFFFFFFFFFFFFFFFF DUP2 GT ISZERO PUSH2 0x4099 JUMPI PUSH2 0x4098 PUSH2 0x37B4 JUMP JUMPDEST JUMPDEST PUSH2 0x40A5 DUP8 DUP3 DUP9 ADD PUSH2 0x3FD9 JUMP JUMPDEST SWAP3 POP POP PUSH1 0x60 PUSH2 0x40B6 DUP8 DUP3 DUP9 ADD PUSH2 0x3AD4 JUMP JUMPDEST SWAP2 POP POP SWAP3 SWAP6 SWAP2 SWAP5 POP SWAP3 POP JUMP JUMPDEST PUSH2 0x40CB DUP2 PUSH2 0x3AB3 JUMP JUMPDEST DUP3 MSTORE POP POP JUMP JUMPDEST PUSH1 0x0 PUSH1 0x20 DUP3 ADD SWAP1 POP PUSH2 0x40E6 PUSH1 0x0 DUP4 ADD DUP5 PUSH2 0x40C2 JUMP JUMPDEST SWAP3 SWAP2 POP POP JUMP JUMPDEST PUSH1 0x0 DUP1 PUSH1 0x0 DUP1 PUSH1 0x0 PUSH1 0xA0 DUP7 DUP9 SUB SLT ISZERO PUSH2 0x4108 JUMPI PUSH2 0x4107 PUSH2 0x37AF JUMP JUMPDEST JUMPDEST PUSH1 0x0 PUSH2 0x4116 DUP9 DUP3 DUP10 ADD PUSH2 0x38BF JUMP JUMPDEST SWAP6 POP POP PUSH1 0x20 PUSH2 0x4127 DUP9 DUP3 DUP10 ADD PUSH2 0x38F8 JUMP JUMPDEST SWAP5 POP POP PUSH1 0x40 PUSH2 0x4138 DUP9 DUP3 DUP10 ADD PUSH2 0x38F8 JUMP JUMPDEST SWAP4 POP POP PUSH1 0x60 PUSH2 0x4149 DUP9 DUP3 DUP10 ADD PUSH2 0x3AD4 JUMP JUMPDEST SWAP3 POP POP PUSH1 0x80 PUSH2 0x415A DUP9 DUP3 DUP10 ADD PUSH2 0x3AD4 JUMP JUMPDEST SWAP2 POP POP SWAP3 SWAP6 POP SWAP3 SWAP6 SWAP1 SWAP4 POP JUMP JUMPDEST PUSH32 0x4E487B7100000000000000000000000000000000000000000000000000000000 PUSH1 0x0 MSTORE PUSH1 0x21 PUSH1 0x4 MSTORE PUSH1 0x24 PUSH1 0x0 REVERT JUMPDEST PUSH1 0x8 DUP2 LT PUSH2 0x41A7 JUMPI PUSH2 0x41A6 PUSH2 0x4167 JUMP JUMPDEST JUMPDEST POP JUMP JUMPDEST PUSH1 0x0 DUP2 SWAP1 POP PUSH2 0x41B8 DUP3 PUSH2 0x4196 JUMP JUMPDEST SWAP2 SWAP1 POP JUMP JUMPDEST PUSH1 0x0 PUSH2 0x41C8 DUP3 PUSH2 0x41AA JUMP JUMPDEST SWAP1 POP SWAP2 SWAP1 POP JUMP JUMPDEST PUSH2 0x41D8 DUP2 PUSH2 0x41BD JUMP JUMPDEST DUP3 MSTORE POP POP JUMP JUMPDEST PUSH1 0x0 PUSH1 0x20 DUP3 ADD SWAP1 POP PUSH2 0x41F3 PUSH1 0x0 DUP4 ADD DUP5 PUSH2 0x41CF JUMP JUMPDEST SWAP3 SWAP2 POP POP JUMP JUMPDEST PUSH1 0x0 DUP1 PUSH1 0x40 DUP4 DUP6 SUB SLT ISZERO PUSH2 0x4210 JUMPI PUSH2 0x420F PUSH2 0x37AF JUMP JUMPDEST JUMPDEST PUSH1 0x0 PUSH2 0x421E DUP6 DUP3 DUP7 ADD PUSH2 0x38BF JUMP JUMPDEST SWAP3 POP POP PUSH1 0x20 PUSH2 0x422F DUP6 DUP3 DUP7 ADD PUSH2 0x3CDE JUMP JUMPDEST SWAP2 POP POP SWAP3 POP SWAP3 SWAP1 POP JUMP JUMPDEST PUSH1 0x0 PUSH1 0x60 DUP3 ADD SWAP1 POP PUSH2 0x424E PUSH1 0x0 DUP4 ADD DUP7 PUSH2 0x387E JUMP JUMPDEST PUSH2 0x425B PUSH1 0x20 DUP4 ADD DUP6 PUSH2 0x387E JUMP JUMPDEST PUSH2 0x4268 PUSH1 0x40 DUP4 ADD DUP5 PUSH2 0x387E JUMP JUMPDEST SWAP5 SWAP4 POP POP POP POP JUMP JUMPDEST PUSH1 0x0 DUP1 PUSH1 0x40 DUP4 DUP6 SUB SLT ISZERO PUSH2 0x4287 JUMPI PUSH2 0x4286 PUSH2 0x37AF JUMP JUMPDEST JUMPDEST PUSH1 0x0 PUSH2 0x4295 DUP6 DUP3 DUP7 ADD PUSH2 0x38BF JUMP JUMPDEST SWAP3 POP POP PUSH1 0x20 PUSH2 0x42A6 DUP6 DUP3 DUP7 ADD PUSH2 0x38F8 JUMP JUMPDEST SWAP2 POP POP SWAP3 POP SWAP3 SWAP1 POP JUMP JUMPDEST PUSH1 0x0 DUP1 PUSH1 0x0 DUP1 PUSH1 0x0 PUSH1 0x80 DUP7 DUP9 SUB SLT ISZERO PUSH2 0x42CC JUMPI PUSH2 0x42CB PUSH2 0x37AF JUMP JUMPDEST JUMPDEST PUSH1 0x0 PUSH2 0x42DA DUP9 DUP3 DUP10 ADD PUSH2 0x38BF JUMP JUMPDEST SWAP6 POP POP PUSH1 0x20 PUSH2 0x42EB DUP9 DUP3 DUP10 ADD PUSH2 0x38F8 JUMP JUMPDEST SWAP5 POP POP PUSH1 0x40 DUP7 ADD CALLDATALOAD PUSH8 0xFFFFFFFFFFFFFFFF DUP2 GT ISZERO PUSH2 0x430C JUMPI PUSH2 0x430B PUSH2 0x37B4 JUMP JUMPDEST JUMPDEST PUSH2 0x4318 DUP9 DUP3 DUP10 ADD PUSH2 0x391C JUMP JUMPDEST SWAP4 POP SWAP4 POP POP PUSH1 0x60 DUP7 ADD CALLDATALOAD PUSH8 0xFFFFFFFFFFFFFFFF DUP2 GT ISZERO PUSH2 0x433B JUMPI PUSH2 0x433A PUSH2 0x37B4 JUMP JUMPDEST JUMPDEST PUSH2 0x4347 DUP9 DUP3 DUP10 ADD PUSH2 0x3A85 JUMP JUMPDEST SWAP2 POP POP SWAP3 SWAP6 POP SWAP3 SWAP6 SWAP1 SWAP4 POP JUMP JUMPDEST PUSH1 0x0 DUP1 PUSH1 0x0 DUP1 PUSH1 0x60 DUP6 DUP8 SUB SLT ISZERO PUSH2 0x436E JUMPI PUSH2 0x436D PUSH2 0x37AF JUMP JUMPDEST JUMPDEST PUSH1 0x0 PUSH2 0x437C DUP8 DUP3 DUP9 ADD PUSH2 0x38BF JUMP JUMPDEST SWAP5 POP POP PUSH1 0x20 PUSH2 0x438D DUP8 DUP3 DUP9 ADD PUSH2 0x38F8 JUMP JUMPDEST SWAP4 POP POP PUSH1 0x40 DUP6 ADD CALLDATALOAD PUSH8 0xFFFFFFFFFFFFFFFF DUP2 GT ISZERO PUSH2 0x43AE JUMPI PUSH2 0x43AD PUSH2 0x37B4 JUMP JUMPDEST JUMPDEST PUSH2 0x43BA DUP8 DUP3 DUP9 ADD PUSH2 0x391C JUMP JUMPDEST SWAP3 POP SWAP3 POP POP SWAP3 SWAP6 SWAP2 SWAP5 POP SWAP3 POP JUMP JUMPDEST PUSH1 0x0 PUSH8 0xFFFFFFFFFFFFFFFF DUP3 GT ISZERO PUSH2 0x43E3 JUMPI PUSH2 0x43E2 PUSH2 0x3988 JUMP JUMPDEST JUMPDEST PUSH2 0x43EC DUP3 PUSH2 0x3977 JUMP JUMPDEST SWAP1 POP PUSH1 0x20 DUP2 ADD SWAP1 POP SWAP2 SWAP1 POP JUMP JUMPDEST PUSH1 0x0 PUSH2 0x440C PUSH2 0x4407 DUP5 PUSH2 0x43C8 JUMP JUMPDEST PUSH2 0x39E8 JUMP JUMPDEST SWAP1 POP DUP3 DUP2 MSTORE PUSH1 0x20 DUP2 ADD DUP5 DUP5 DUP5 ADD GT ISZERO PUSH2 0x4428 JUMPI PUSH2 0x4427 PUSH2 0x3972 JUMP JUMPDEST JUMPDEST PUSH2 0x4433 DUP5 DUP3 DUP6 PUSH2 0x3A34 JUMP JUMPDEST POP SWAP4 SWAP3 POP POP POP JUMP JUMPDEST PUSH1 0x0 DUP3 PUSH1 0x1F DUP4 ADD SLT PUSH2 0x4450 JUMPI PUSH2 0x444F PUSH2 0x390D JUMP JUMPDEST JUMPDEST DUP2 CALLDATALOAD PUSH2 0x4460 DUP5 DUP3 PUSH1 0x20 DUP7 ADD PUSH2 0x43F9 JUMP JUMPDEST SWAP2 POP POP SWAP3 SWAP2 POP POP JUMP JUMPDEST PUSH1 0x0 DUP1 PUSH1 0x0 DUP1 PUSH1 0x80 DUP6 DUP8 SUB SLT ISZERO PUSH2 0x4483 JUMPI PUSH2 0x4482 PUSH2 0x37AF JUMP JUMPDEST JUMPDEST PUSH1 0x0 DUP6 ADD CALLDATALOAD PUSH8 0xFFFFFFFFFFFFFFFF DUP2 GT ISZERO PUSH2 0x44A1 JUMPI PUSH2 0x44A0 PUSH2 0x37B4 JUMP JUMPDEST JUMPDEST PUSH2 0x44AD DUP8 DUP3 DUP9 ADD PUSH2 0x3E35 JUMP JUMPDEST SWAP5 POP POP PUSH1 0x20 DUP6 ADD CALLDATALOAD PUSH8 0xFFFFFFFFFFFFFFFF DUP2 GT ISZERO PUSH2 0x44CE JUMPI PUSH2 0x44CD PUSH2 0x37B4 JUMP JUMPDEST JUMPDEST PUSH2 0x44DA DUP8 DUP3 DUP9 ADD PUSH2 0x3EF8 JUMP JUMPDEST SWAP4 POP POP PUSH1 0x40 DUP6 ADD CALLDATALOAD PUSH8 0xFFFFFFFFFFFFFFFF DUP2 GT ISZERO PUSH2 0x44FB JUMPI PUSH2 0x44FA PUSH2 0x37B4 JUMP JUMPDEST JUMPDEST PUSH2 0x4507 DUP8 DUP3 DUP9 ADD PUSH2 0x3FD9 JUMP JUMPDEST SWAP3 POP POP PUSH1 0x60 DUP6 ADD CALLDATALOAD PUSH8 0xFFFFFFFFFFFFFFFF DUP2 GT ISZERO PUSH2 0x4528 JUMPI PUSH2 0x4527 PUSH2 0x37B4 JUMP JUMPDEST JUMPDEST PUSH2 0x4534 DUP8 DUP3 DUP9 ADD PUSH2 0x443B JUMP JUMPDEST SWAP2 POP POP SWAP3 SWAP6 SWAP2 SWAP5 POP SWAP3 POP JUMP JUMPDEST PUSH1 0x0 DUP1 PUSH1 0x0 PUSH1 0x60 DUP5 DUP7 SUB SLT ISZERO PUSH2 0x4559 JUMPI PUSH2 0x4558 PUSH2 0x37AF JUMP JUMPDEST JUMPDEST PUSH1 0x0 PUSH2 0x4567 DUP7 DUP3 DUP8 ADD PUSH2 0x3CDE JUMP JUMPDEST SWAP4 POP POP PUSH1 0x20 PUSH2 0x4578 DUP7 DUP3 DUP8 ADD PUSH2 0x38BF JUMP JUMPDEST SWAP3 POP POP PUSH1 0x40 DUP5 ADD CALLDATALOAD PUSH8 0xFFFFFFFFFFFFFFFF DUP2 GT ISZERO PUSH2 0x4599 JUMPI PUSH2 0x4598 PUSH2 0x37B4 JUMP JUMPDEST JUMPDEST PUSH2 0x45A5 DUP7 DUP3 DUP8 ADD PUSH2 0x3A85 JUMP JUMPDEST SWAP2 POP POP SWAP3 POP SWAP3 POP SWAP3 JUMP JUMPDEST PUSH1 0x0 DUP1 PUSH1 0x0 DUP1 PUSH1 0x0 PUSH1 0xA0 DUP7 DUP9 SUB SLT ISZERO PUSH2 0x45CB JUMPI PUSH2 0x45CA PUSH2 0x37AF JUMP JUMPDEST JUMPDEST PUSH1 0x0 PUSH2 0x45D9 DUP9 DUP3 DUP10 ADD PUSH2 0x3CDE JUMP JUMPDEST SWAP6 POP POP PUSH1 0x20 PUSH2 0x45EA DUP9 DUP3 DUP10 ADD PUSH2 0x3CDE JUMP JUMPDEST SWAP5 POP POP PUSH1 0x40 DUP7 ADD CALLDATALOAD PUSH8 0xFFFFFFFFFFFFFFFF DUP2 GT ISZERO PUSH2 0x460B JUMPI PUSH2 0x460A PUSH2 0x37B4 JUMP JUMPDEST JUMPDEST PUSH2 0x4617 DUP9 DUP3 DUP10 ADD PUSH2 0x3EF8 JUMP JUMPDEST SWAP4 POP POP PUSH1 0x60 DUP7 ADD CALLDATALOAD PUSH8 0xFFFFFFFFFFFFFFFF DUP2 GT ISZERO PUSH2 0x4638 JUMPI PUSH2 0x4637 PUSH2 0x37B4 JUMP JUMPDEST JUMPDEST PUSH2 0x4644 DUP9 DUP3 DUP10 ADD PUSH2 0x3EF8 JUMP JUMPDEST SWAP3 POP POP PUSH1 0x80 DUP7 ADD CALLDATALOAD PUSH8 0xFFFFFFFFFFFFFFFF DUP2 GT ISZERO PUSH2 0x4665 JUMPI PUSH2 0x4664 PUSH2 0x37B4 JUMP JUMPDEST JUMPDEST PUSH2 0x4671 DUP9 DUP3 DUP10 ADD PUSH2 0x3A85 JUMP JUMPDEST SWAP2 POP POP SWAP3 SWAP6 POP SWAP3 SWAP6 SWAP1 SWAP4 POP JUMP JUMPDEST PUSH1 0x0 DUP1 DUP4 PUSH1 0x1F DUP5 ADD SLT PUSH2 0x4694 JUMPI PUSH2 0x4693 PUSH2 0x390D JUMP JUMPDEST JUMPDEST DUP3 CALLDATALOAD SWAP1 POP PUSH8 0xFFFFFFFFFFFFFFFF DUP2 GT ISZERO PUSH2 0x46B1 JUMPI PUSH2 0x46B0 PUSH2 0x3912 JUMP JUMPDEST JUMPDEST PUSH1 0x20 DUP4 ADD SWAP2 POP DUP4 PUSH1 0x1 DUP3 MUL DUP4 ADD GT ISZERO PUSH2 0x46CD JUMPI PUSH2 0x46CC PUSH2 0x3917 JUMP JUMPDEST JUMPDEST SWAP3 POP SWAP3 SWAP1 POP JUMP JUMPDEST PUSH1 0x0 DUP1 PUSH1 0x0 DUP1 PUSH1 0x60 DUP6 DUP8 SUB SLT ISZERO PUSH2 0x46EE JUMPI PUSH2 0x46ED PUSH2 0x37AF JUMP JUMPDEST JUMPDEST PUSH1 0x0 PUSH2 0x46FC DUP8 DUP3 DUP9 ADD PUSH2 0x3CDE JUMP JUMPDEST SWAP5 POP POP PUSH1 0x20 PUSH2 0x470D DUP8 DUP3 DUP9 ADD PUSH2 0x38BF JUMP JUMPDEST SWAP4 POP POP PUSH1 0x40 DUP6 ADD CALLDATALOAD PUSH8 0xFFFFFFFFFFFFFFFF DUP2 GT ISZERO PUSH2 0x472E JUMPI PUSH2 0x472D PUSH2 0x37B4 JUMP JUMPDEST JUMPDEST PUSH2 0x473A DUP8 DUP3 DUP9 ADD PUSH2 0x467E JUMP JUMPDEST SWAP3 POP SWAP3 POP POP SWAP3 SWAP6 SWAP2 SWAP5 POP SWAP3 POP JUMP JUMPDEST PUSH1 0x0 DUP1 PUSH1 0x40 DUP4 DUP6 SUB SLT ISZERO PUSH2 0x475F JUMPI PUSH2 0x475E PUSH2 0x37AF JUMP JUMPDEST JUMPDEST PUSH1 0x0 PUSH2 0x476D DUP6 DUP3 DUP7 ADD PUSH2 0x3CDE JUMP JUMPDEST SWAP3 POP POP PUSH1 0x20 PUSH2 0x477E DUP6 DUP3 DUP7 ADD PUSH2 0x38BF JUMP JUMPDEST SWAP2 POP POP SWAP3 POP SWAP3 SWAP1 POP JUMP JUMPDEST PUSH1 0x0 DUP1 PUSH1 0x0 DUP1 PUSH1 0x0 PUSH1 0xA0 DUP7 DUP9 SUB SLT ISZERO PUSH2 0x47A4 JUMPI PUSH2 0x47A3 PUSH2 0x37AF JUMP JUMPDEST JUMPDEST PUSH1 0x0 PUSH2 0x47B2 DUP9 DUP3 DUP10 ADD PUSH2 0x3CDE JUMP JUMPDEST SWAP6 POP POP PUSH1 0x20 PUSH2 0x47C3 DUP9 DUP3 DUP10 ADD PUSH2 0x3CDE JUMP JUMPDEST SWAP5 POP POP PUSH1 0x40 PUSH2 0x47D4 DUP9 DUP3 DUP10 ADD PUSH2 0x38BF JUMP JUMPDEST SWAP4 POP POP PUSH1 0x60 PUSH2 0x47E5 DUP9 DUP3 DUP10 ADD PUSH2 0x38BF JUMP JUMPDEST SWAP3 POP POP PUSH1 0x80 DUP7 ADD CALLDATALOAD PUSH8 0xFFFFFFFFFFFFFFFF DUP2 GT ISZERO PUSH2 0x4806 JUMPI PUSH2 0x4805 PUSH2 0x37B4 JUMP JUMPDEST JUMPDEST PUSH2 0x4812 DUP9 DUP3 DUP10 ADD PUSH2 0x3A85 JUMP JUMPDEST SWAP2 POP POP SWAP3 SWAP6 POP SWAP3 SWAP6 SWAP1 SWAP4 POP JUMP JUMPDEST PUSH1 0x0 DUP2 SWAP1 POP SWAP2 SWAP1 POP JUMP JUMPDEST PUSH1 0x0 PUSH2 0x4844 PUSH2 0x483F PUSH2 0x483A DUP5 PUSH2 0x3C95 JUMP JUMPDEST PUSH2 0x481F JUMP JUMPDEST PUSH2 0x3C95 JUMP JUMPDEST SWAP1 POP SWAP2 SWAP1 POP JUMP JUMPDEST PUSH1 0x0 PUSH2 0x4856 DUP3 PUSH2 0x4829 JUMP JUMPDEST SWAP1 POP SWAP2 SWAP1 POP JUMP JUMPDEST PUSH1 0x0 PUSH2 0x4868 DUP3 PUSH2 0x484B JUMP JUMPDEST SWAP1 POP SWAP2 SWAP1 POP JUMP JUMPDEST PUSH2 0x4878 DUP2 PUSH2 0x485D JUMP JUMPDEST DUP3 MSTORE POP POP JUMP JUMPDEST PUSH1 0x0 PUSH1 0x20 DUP3 ADD SWAP1 POP PUSH2 0x4893 PUSH1 0x0 DUP4 ADD DUP5 PUSH2 0x486F JUMP JUMPDEST SWAP3 SWAP2 POP POP JUMP JUMPDEST PUSH1 0x0 DUP2 SWAP1 POP SWAP3 SWAP2 POP POP JUMP JUMPDEST PUSH1 0x0 PUSH2 0x48B0 DUP4 DUP6 PUSH2 0x4899 JUMP JUMPDEST SWAP4 POP PUSH2 0x48BD DUP4 DUP6 DUP5 PUSH2 0x3A34 JUMP JUMPDEST DUP3 DUP5 ADD SWAP1 POP SWAP4 SWAP3 POP POP POP JUMP JUMPDEST PUSH1 0x0 PUSH2 0x48D6 DUP3 DUP5 DUP7 PUSH2 0x48A4 JUMP JUMPDEST SWAP2 POP DUP2 SWAP1 POP SWAP4 SWAP3 POP POP POP JUMP JUMPDEST PUSH2 0x48EB DUP2 PUSH2 0x38D4 JUMP JUMPDEST DUP3 MSTORE POP POP JUMP JUMPDEST PUSH1 0x0 PUSH1 0xA0 DUP3 ADD SWAP1 POP PUSH2 0x4906 PUSH1 0x0 DUP4 ADD DUP9 PUSH2 0x40C2 JUMP JUMPDEST PUSH2 0x4913 PUSH1 0x20 DUP4 ADD DUP8 PUSH2 0x387E JUMP JUMPDEST PUSH2 0x4920 PUSH1 0x40 DUP4 ADD DUP7 PUSH2 0x48E2 JUMP JUMPDEST PUSH2 0x492D PUSH1 0x60 DUP4 ADD DUP6 PUSH2 0x40C2 JUMP JUMPDEST PUSH2 0x493A PUSH1 0x80 DUP4 ADD DUP5 PUSH2 0x40C2 JUMP JUMPDEST SWAP7 SWAP6 POP POP POP POP POP POP JUMP JUMPDEST PUSH32 0x476F7665726E6F723A206F6E6C79476F7665726E616E63650000000000000000 PUSH1 0x0 DUP3 ADD MSTORE POP JUMP JUMPDEST PUSH1 0x0 PUSH2 0x497A PUSH1 0x18 DUP4 PUSH2 0x3BFF JUMP JUMPDEST SWAP2 POP PUSH2 0x4985 DUP3 PUSH2 0x4944 JUMP JUMPDEST PUSH1 0x20 DUP3 ADD SWAP1 POP SWAP2 SWAP1 POP JUMP JUMPDEST PUSH1 0x0 PUSH1 0x20 DUP3 ADD SWAP1 POP DUP2 DUP2 SUB PUSH1 0x0 DUP4 ADD MSTORE PUSH2 0x49A9 DUP2 PUSH2 0x496D JUMP JUMPDEST SWAP1 POP SWAP2 SWAP1 POP JUMP JUMPDEST PUSH32 0x4E487B7100000000000000000000000000000000000000000000000000000000 PUSH1 0x0 MSTORE PUSH1 0x22 PUSH1 0x4 MSTORE PUSH1 0x24 PUSH1 0x0 REVERT JUMPDEST PUSH1 0x0 PUSH1 0x2 DUP3 DIV SWAP1 POP PUSH1 0x1 DUP3 AND DUP1 PUSH2 0x49F7 JUMPI PUSH1 0x7F DUP3 AND SWAP2 POP JUMPDEST PUSH1 0x20 DUP3 LT DUP2 SUB PUSH2 0x4A0A JUMPI PUSH2 0x4A09 PUSH2 0x49B0 JUMP JUMPDEST JUMPDEST POP SWAP2 SWAP1 POP JUMP JUMPDEST PUSH32 0x476F7665726E6F723A2070726F706F73616C206E6F7420737563636573736675 PUSH1 0x0 DUP3 ADD MSTORE PUSH32 0x6C00000000000000000000000000000000000000000000000000000000000000 PUSH1 0x20 DUP3 ADD MSTORE POP JUMP JUMPDEST PUSH1 0x0 PUSH2 0x4A6C PUSH1 0x21 DUP4 PUSH2 0x3BFF JUMP JUMPDEST SWAP2 POP PUSH2 0x4A77 DUP3 PUSH2 0x4A10 JUMP JUMPDEST PUSH1 0x40 DUP3 ADD SWAP1 POP SWAP2 SWAP1 POP JUMP JUMPDEST PUSH1 0x0 PUSH1 0x20 DUP3 ADD SWAP1 POP DUP2 DUP2 SUB PUSH1 0x0 DUP4 ADD MSTORE PUSH2 0x4A9B DUP2 PUSH2 0x4A5F JUMP JUMPDEST SWAP1 POP SWAP2 SWAP1 POP JUMP JUMPDEST PUSH1 0x0 PUSH1 0x60 DUP3 ADD SWAP1 POP PUSH2 0x4AB7 PUSH1 0x0 DUP4 ADD DUP7 PUSH2 0x40C2 JUMP JUMPDEST PUSH2 0x4AC4 PUSH1 0x20 DUP4 ADD DUP6 PUSH2 0x387E JUMP JUMPDEST PUSH2 0x4AD1 PUSH1 0x40 DUP4 ADD DUP5 PUSH2 0x48E2 JUMP JUMPDEST SWAP5 SWAP4 POP POP POP POP JUMP JUMPDEST PUSH32 0x476F7665726E6F723A20756E6B6E6F776E2070726F706F73616C206964000000 PUSH1 0x0 DUP3 ADD MSTORE POP JUMP JUMPDEST PUSH1 0x0 PUSH2 0x4B0F PUSH1 0x1D DUP4 PUSH2 0x3BFF JUMP JUMPDEST SWAP2 POP PUSH2 0x4B1A DUP3 PUSH2 0x4AD9 JUMP JUMPDEST PUSH1 0x20 DUP3 ADD SWAP1 POP SWAP2 SWAP1 POP JUMP JUMPDEST PUSH1 0x0 PUSH1 0x20 DUP3 ADD SWAP1 POP DUP2 DUP2 SUB PUSH1 0x0 DUP4 ADD MSTORE PUSH2 0x4B3E DUP2 PUSH2 0x4B02 JUMP JUMPDEST SWAP1 POP SWAP2 SWAP1 POP JUMP JUMPDEST PUSH32 0x4E487B7100000000000000000000000000000000000000000000000000000000 PUSH1 0x0 MSTORE PUSH1 0x11 PUSH1 0x4 MSTORE PUSH1 0x24 PUSH1 0x0 REVERT JUMPDEST PUSH1 0x0 PUSH2 0x4B7F DUP3 PUSH2 0x3874 JUMP JUMPDEST SWAP2 POP PUSH2 0x4B8A DUP4 PUSH2 0x3874 JUMP JUMPDEST SWAP3 POP DUP3 DUP3 SUB SWAP1 POP DUP2 DUP2 GT ISZERO PUSH2 0x4BA2 JUMPI PUSH2 0x4BA1 PUSH2 0x4B45 JUMP JUMPDEST JUMPDEST SWAP3 SWAP2 POP POP JUMP JUMPDEST PUSH32 0x4E487B7100000000000000000000000000000000000000000000000000000000 PUSH1 0x0 MSTORE PUSH1 0x32 PUSH1 0x4 MSTORE PUSH1 0x24 PUSH1 0x0 REVERT JUMPDEST PUSH32 0x476F7665726E6F723A2070726F706F73657220766F7465732062656C6F772070 PUSH1 0x0 DUP3 ADD MSTORE PUSH32 0x726F706F73616C207468726573686F6C64000000000000000000000000000000 PUSH1 0x20 DUP3 ADD MSTORE POP JUMP JUMPDEST PUSH1 0x0 PUSH2 0x4C33 PUSH1 0x31 DUP4 PUSH2 0x3BFF JUMP JUMPDEST SWAP2 POP PUSH2 0x4C3E DUP3 PUSH2 0x4BD7 JUMP JUMPDEST PUSH1 0x40 DUP3 ADD SWAP1 POP SWAP2 SWAP1 POP JUMP JUMPDEST PUSH1 0x0 PUSH1 0x20 DUP3 ADD SWAP1 POP DUP2 DUP2 SUB PUSH1 0x0 DUP4 ADD MSTORE PUSH2 0x4C62 DUP2 PUSH2 0x4C26 JUMP JUMPDEST SWAP1 POP SWAP2 SWAP1 POP JUMP JUMPDEST PUSH32 0x476F7665726E6F723A20696E76616C69642070726F706F73616C206C656E6774 PUSH1 0x0 DUP3 ADD MSTORE PUSH32 0x6800000000000000000000000000000000000000000000000000000000000000 PUSH1 0x20 DUP3 ADD MSTORE POP JUMP JUMPDEST PUSH1 0x0 PUSH2 0x4CC5 PUSH1 0x21 DUP4 PUSH2 0x3BFF JUMP JUMPDEST SWAP2 POP PUSH2 0x4CD0 DUP3 PUSH2 0x4C69 JUMP JUMPDEST PUSH1 0x40 DUP3 ADD SWAP1 POP SWAP2 SWAP1 POP JUMP JUMPDEST PUSH1 0x0 PUSH1 0x20 DUP3 ADD SWAP1 POP DUP2 DUP2 SUB PUSH1 0x0 DUP4 ADD MSTORE PUSH2 0x4CF4 DUP2 PUSH2 0x4CB8 JUMP JUMPDEST SWAP1 POP SWAP2 SWAP1 POP JUMP JUMPDEST PUSH32 0x476F7665726E6F723A20656D7074792070726F706F73616C0000000000000000 PUSH1 0x0 DUP3 ADD MSTORE POP JUMP JUMPDEST PUSH1 0x0 PUSH2 0x4D31 PUSH1 0x18 DUP4 PUSH2 0x3BFF JUMP JUMPDEST SWAP2 POP PUSH2 0x4D3C DUP3 PUSH2 0x4CFB JUMP JUMPDEST PUSH1 0x20 DUP3 ADD SWAP1 POP SWAP2 SWAP1 POP JUMP JUMPDEST PUSH1 0x0 PUSH1 0x20 DUP3 ADD SWAP1 POP DUP2 DUP2 SUB PUSH1 0x0 DUP4 ADD MSTORE PUSH2 0x4D60 DUP2 PUSH2 0x4D24 JUMP JUMPDEST SWAP1 POP SWAP2 SWAP1 POP JUMP JUMPDEST PUSH32 0x476F7665726E6F723A2070726F706F73616C20616C7265616479206578697374 PUSH1 0x0 DUP3 ADD MSTORE PUSH32 0x7300000000000000000000000000000000000000000000000000000000000000 PUSH1 0x20 DUP3 ADD MSTORE POP JUMP JUMPDEST PUSH1 0x0 PUSH2 0x4DC3 PUSH1 0x21 DUP4 PUSH2 0x3BFF JUMP JUMPDEST SWAP2 POP PUSH2 0x4DCE DUP3 PUSH2 0x4D67 JUMP JUMPDEST PUSH1 0x40 DUP3 ADD SWAP1 POP SWAP2 SWAP1 POP JUMP JUMPDEST PUSH1 0x0 PUSH1 0x20 DUP3 ADD SWAP1 POP DUP2 DUP2 SUB PUSH1 0x0 DUP4 ADD MSTORE PUSH2 0x4DF2 DUP2 PUSH2 0x4DB6 JUMP JUMPDEST SWAP1 POP SWAP2 SWAP1 POP JUMP JUMPDEST PUSH1 0x0 PUSH8 0xFFFFFFFFFFFFFFFF DUP3 AND SWAP1 POP SWAP2 SWAP1 POP JUMP JUMPDEST PUSH1 0x0 PUSH2 0x4E18 DUP3 PUSH2 0x4DF9 JUMP JUMPDEST SWAP2 POP PUSH2 0x4E23 DUP4 PUSH2 0x4DF9 JUMP JUMPDEST SWAP3 POP DUP3 DUP3 ADD SWAP1 POP PUSH8 0xFFFFFFFFFFFFFFFF DUP2 GT ISZERO PUSH2 0x4E43 JUMPI PUSH2 0x4E42 PUSH2 0x4B45 JUMP JUMPDEST JUMPDEST SWAP3 SWAP2 POP POP JUMP JUMPDEST PUSH2 0x4E52 DUP2 PUSH2 0x3CB5 JUMP JUMPDEST DUP3 MSTORE POP POP JUMP JUMPDEST PUSH1 0x0 DUP2 MLOAD SWAP1 POP SWAP2 SWAP1 POP JUMP JUMPDEST PUSH1 0x0 DUP3 DUP3 MSTORE PUSH1 0x20 DUP3 ADD SWAP1 POP SWAP3 SWAP2 POP POP JUMP JUMPDEST PUSH1 0x0 DUP2 SWAP1 POP PUSH1 0x20 DUP3 ADD SWAP1 POP SWAP2 SWAP1 POP JUMP JUMPDEST PUSH2 0x4E8D DUP2 PUSH2 0x3CB5 JUMP JUMPDEST DUP3 MSTORE POP POP JUMP JUMPDEST PUSH1 0x0 PUSH2 0x4E9F DUP4 DUP4 PUSH2 0x4E84 JUMP JUMPDEST PUSH1 0x20 DUP4 ADD SWAP1 POP SWAP3 SWAP2 POP POP JUMP JUMPDEST PUSH1 0x0 PUSH1 0x20 DUP3 ADD SWAP1 POP SWAP2 SWAP1 POP JUMP JUMPDEST PUSH1 0x0 PUSH2 0x4EC3 DUP3 PUSH2 0x4E58 JUMP JUMPDEST PUSH2 0x4ECD DUP2 DUP6 PUSH2 0x4E63 JUMP JUMPDEST SWAP4 POP PUSH2 0x4ED8 DUP4 PUSH2 0x4E74 JUMP JUMPDEST DUP1 PUSH1 0x0 JUMPDEST DUP4 DUP2 LT ISZERO PUSH2 0x4F09 JUMPI DUP2 MLOAD PUSH2 0x4EF0 DUP9 DUP3 PUSH2 0x4E93 JUMP JUMPDEST SWAP8 POP PUSH2 0x4EFB DUP4 PUSH2 0x4EAB JUMP JUMPDEST SWAP3 POP POP PUSH1 0x1 DUP2 ADD SWAP1 POP PUSH2 0x4EDC JUMP JUMPDEST POP DUP6 SWAP4 POP POP POP POP SWAP3 SWAP2 POP POP JUMP JUMPDEST PUSH1 0x0 DUP2 MLOAD SWAP1 POP SWAP2 SWAP1 POP JUMP JUMPDEST PUSH1 0x0 DUP3 DUP3 MSTORE PUSH1 0x20 DUP3 ADD SWAP1 POP SWAP3 SWAP2 POP POP JUMP JUMPDEST PUSH1 0x0 DUP2 SWAP1 POP PUSH1 0x20 DUP3 ADD SWAP1 POP SWAP2 SWAP1 POP JUMP JUMPDEST PUSH2 0x4F4B DUP2 PUSH2 0x3874 JUMP JUMPDEST DUP3 MSTORE POP POP JUMP JUMPDEST PUSH1 0x0 PUSH2 0x4F5D DUP4 DUP4 PUSH2 0x4F42 JUMP JUMPDEST PUSH1 0x20 DUP4 ADD SWAP1 POP SWAP3 SWAP2 POP POP JUMP JUMPDEST PUSH1 0x0 PUSH1 0x20 DUP3 ADD SWAP1 POP SWAP2 SWAP1 POP JUMP JUMPDEST PUSH1 0x0 PUSH2 0x4F81 DUP3 PUSH2 0x4F16 JUMP JUMPDEST PUSH2 0x4F8B DUP2 DUP6 PUSH2 0x4F21 JUMP JUMPDEST SWAP4 POP PUSH2 0x4F96 DUP4 PUSH2 0x4F32 JUMP JUMPDEST DUP1 PUSH1 0x0 JUMPDEST DUP4 DUP2 LT ISZERO PUSH2 0x4FC7 JUMPI DUP2 MLOAD PUSH2 0x4FAE DUP9 DUP3 PUSH2 0x4F51 JUMP JUMPDEST SWAP8 POP PUSH2 0x4FB9 DUP4 PUSH2 0x4F69 JUMP JUMPDEST SWAP3 POP POP PUSH1 0x1 DUP2 ADD SWAP1 POP PUSH2 0x4F9A JUMP JUMPDEST POP DUP6 SWAP4 POP POP POP POP SWAP3 SWAP2 POP POP JUMP JUMPDEST PUSH1 0x0 DUP2 MLOAD SWAP1 POP SWAP2 SWAP1 POP JUMP JUMPDEST PUSH1 0x0 DUP3 DUP3 MSTORE PUSH1 0x20 DUP3 ADD SWAP1 POP SWAP3 SWAP2 POP POP JUMP JUMPDEST PUSH1 0x0 DUP2 SWAP1 POP PUSH1 0x20 DUP3 ADD SWAP1 POP SWAP2 SWAP1 POP JUMP JUMPDEST PUSH1 0x0 DUP3 DUP3 MSTORE PUSH1 0x20 DUP3 ADD SWAP1 POP SWAP3 SWAP2 POP POP JUMP JUMPDEST PUSH1 0x0 PUSH2 0x501C DUP3 PUSH2 0x3BF4 JUMP JUMPDEST PUSH2 0x5026 DUP2 DUP6 PUSH2 0x5000 JUMP JUMPDEST SWAP4 POP PUSH2 0x5036 DUP2 DUP6 PUSH1 0x20 DUP7 ADD PUSH2 0x3C10 JUMP JUMPDEST PUSH2 0x503F DUP2 PUSH2 0x3977 JUMP JUMPDEST DUP5 ADD SWAP2 POP POP SWAP3 SWAP2 POP POP JUMP JUMPDEST PUSH1 0x0 PUSH2 0x5056 DUP4 DUP4 PUSH2 0x5011 JUMP JUMPDEST SWAP1 POP SWAP3 SWAP2 POP POP JUMP JUMPDEST PUSH1 0x0 PUSH1 0x20 DUP3 ADD SWAP1 POP SWAP2 SWAP1 POP JUMP JUMPDEST PUSH1 0x0 PUSH2 0x5076 DUP3 PUSH2 0x4FD4 JUMP JUMPDEST PUSH2 0x5080 DUP2 DUP6 PUSH2 0x4FDF JUMP JUMPDEST SWAP4 POP DUP4 PUSH1 0x20 DUP3 MUL DUP6 ADD PUSH2 0x5092 DUP6 PUSH2 0x4FF0 JUMP JUMPDEST DUP1 PUSH1 0x0 JUMPDEST DUP6 DUP2 LT ISZERO PUSH2 0x50CE JUMPI DUP5 DUP5 SUB DUP10 MSTORE DUP2 MLOAD PUSH2 0x50AF DUP6 DUP3 PUSH2 0x504A JUMP JUMPDEST SWAP5 POP PUSH2 0x50BA DUP4 PUSH2 0x505E JUMP JUMPDEST SWAP3 POP PUSH1 0x20 DUP11 ADD SWAP10 POP POP PUSH1 0x1 DUP2 ADD SWAP1 POP PUSH2 0x5096 JUMP JUMPDEST POP DUP3 SWAP8 POP DUP8 SWAP6 POP POP POP POP POP POP SWAP3 SWAP2 POP POP JUMP JUMPDEST PUSH1 0x0 DUP2 MLOAD SWAP1 POP SWAP2 SWAP1 POP JUMP JUMPDEST PUSH1 0x0 DUP3 DUP3 MSTORE PUSH1 0x20 DUP3 ADD SWAP1 POP SWAP3 SWAP2 POP POP JUMP JUMPDEST PUSH1 0x0 DUP2 SWAP1 POP PUSH1 0x20 DUP3 ADD SWAP1 POP SWAP2 SWAP1 POP JUMP JUMPDEST PUSH1 0x0 DUP2 MLOAD SWAP1 POP SWAP2 SWAP1 POP JUMP JUMPDEST PUSH1 0x0 DUP3 DUP3 MSTORE PUSH1 0x20 DUP3 ADD SWAP1 POP SWAP3 SWAP2 POP POP JUMP JUMPDEST PUSH1 0x0 PUSH2 0x5133 DUP3 PUSH2 0x510C JUMP JUMPDEST PUSH2 0x513D DUP2 DUP6 PUSH2 0x5117 JUMP JUMPDEST SWAP4 POP PUSH2 0x514D DUP2 DUP6 PUSH1 0x20 DUP7 ADD PUSH2 0x3C10 JUMP JUMPDEST PUSH2 0x5156 DUP2 PUSH2 0x3977 JUMP JUMPDEST DUP5 ADD SWAP2 POP POP SWAP3 SWAP2 POP POP JUMP JUMPDEST PUSH1 0x0 PUSH2 0x516D DUP4 DUP4 PUSH2 0x5128 JUMP JUMPDEST SWAP1 POP SWAP3 SWAP2 POP POP JUMP JUMPDEST PUSH1 0x0 PUSH1 0x20 DUP3 ADD SWAP1 POP SWAP2 SWAP1 POP JUMP JUMPDEST PUSH1 0x0 PUSH2 0x518D DUP3 PUSH2 0x50E0 JUMP JUMPDEST PUSH2 0x5197 DUP2 DUP6 PUSH2 0x50EB JUMP JUMPDEST SWAP4 POP DUP4 PUSH1 0x20 DUP3 MUL DUP6 ADD PUSH2 0x51A9 DUP6 PUSH2 0x50FC JUMP JUMPDEST DUP1 PUSH1 0x0 JUMPDEST DUP6 DUP2 LT ISZERO PUSH2 0x51E5 JUMPI DUP5 DUP5 SUB DUP10 MSTORE DUP2 MLOAD PUSH2 0x51C6 DUP6 DUP3 PUSH2 0x5161 JUMP JUMPDEST SWAP5 POP PUSH2 0x51D1 DUP4 PUSH2 0x5175 JUMP JUMPDEST SWAP3 POP PUSH1 0x20 DUP11 ADD SWAP10 POP POP PUSH1 0x1 DUP2 ADD SWAP1 POP PUSH2 0x51AD JUMP JUMPDEST POP DUP3 SWAP8 POP DUP8 SWAP6 POP POP POP POP POP POP SWAP3 SWAP2 POP POP JUMP JUMPDEST PUSH1 0x0 PUSH2 0x5212 PUSH2 0x520D PUSH2 0x5208 DUP5 PUSH2 0x4DF9 JUMP JUMPDEST PUSH2 0x481F JUMP JUMPDEST PUSH2 0x3874 JUMP JUMPDEST SWAP1 POP SWAP2 SWAP1 POP JUMP JUMPDEST PUSH2 0x5222 DUP2 PUSH2 0x51F7 JUMP JUMPDEST DUP3 MSTORE POP POP JUMP JUMPDEST PUSH1 0x0 PUSH2 0x120 DUP3 ADD SWAP1 POP PUSH2 0x523E PUSH1 0x0 DUP4 ADD DUP13 PUSH2 0x387E JUMP JUMPDEST PUSH2 0x524B PUSH1 0x20 DUP4 ADD DUP12 PUSH2 0x4E49 JUMP JUMPDEST DUP2 DUP2 SUB PUSH1 0x40 DUP4 ADD MSTORE PUSH2 0x525D DUP2 DUP11 PUSH2 0x4EB8 JUMP JUMPDEST SWAP1 POP DUP2 DUP2 SUB PUSH1 0x60 DUP4 ADD MSTORE PUSH2 0x5271 DUP2 DUP10 PUSH2 0x4F76 JUMP JUMPDEST SWAP1 POP DUP2 DUP2 SUB PUSH1 0x80 DUP4 ADD MSTORE PUSH2 0x5285 DUP2 DUP9 PUSH2 0x506B JUMP JUMPDEST SWAP1 POP DUP2 DUP2 SUB PUSH1 0xA0 DUP4 ADD MSTORE PUSH2 0x5299 DUP2 DUP8 PUSH2 0x5182 JUMP JUMPDEST SWAP1 POP PUSH2 0x52A8 PUSH1 0xC0 DUP4 ADD DUP7 PUSH2 0x5219 JUMP JUMPDEST PUSH2 0x52B5 PUSH1 0xE0 DUP4 ADD DUP6 PUSH2 0x5219 JUMP JUMPDEST DUP2 DUP2 SUB PUSH2 0x100 DUP4 ADD MSTORE PUSH2 0x52C8 DUP2 DUP5 PUSH2 0x3C3A JUMP JUMPDEST SWAP1 POP SWAP11 SWAP10 POP POP POP POP POP POP POP POP POP POP JUMP JUMPDEST PUSH1 0x0 PUSH1 0x80 DUP3 ADD SWAP1 POP DUP2 DUP2 SUB PUSH1 0x0 DUP4 ADD MSTORE PUSH2 0x52F2 DUP2 DUP8 PUSH2 0x4EB8 JUMP JUMPDEST SWAP1 POP DUP2 DUP2 SUB PUSH1 0x20 DUP4 ADD MSTORE PUSH2 0x5306 DUP2 DUP7 PUSH2 0x4F76 JUMP JUMPDEST SWAP1 POP DUP2 DUP2 SUB PUSH1 0x40 DUP4 ADD MSTORE PUSH2 0x531A DUP2 DUP6 PUSH2 0x5182 JUMP JUMPDEST SWAP1 POP PUSH2 0x5329 PUSH1 0x60 DUP4 ADD DUP5 PUSH2 0x40C2 JUMP JUMPDEST SWAP6 SWAP5 POP POP POP POP POP JUMP JUMPDEST PUSH32 0x53616665436173743A2076616C756520646F65736E27742066697420696E2032 PUSH1 0x0 DUP3 ADD MSTORE PUSH32 0x3234206269747300000000000000000000000000000000000000000000000000 PUSH1 0x20 DUP3 ADD MSTORE POP JUMP JUMPDEST PUSH1 0x0 PUSH2 0x538E PUSH1 0x27 DUP4 PUSH2 0x3BFF JUMP JUMPDEST SWAP2 POP PUSH2 0x5399 DUP3 PUSH2 0x5332 JUMP JUMPDEST PUSH1 0x40 DUP3 ADD SWAP1 POP SWAP2 SWAP1 POP JUMP JUMPDEST PUSH1 0x0 PUSH1 0x20 DUP3 ADD SWAP1 POP DUP2 DUP2 SUB PUSH1 0x0 DUP4 ADD MSTORE PUSH2 0x53BD DUP2 PUSH2 0x5381 JUMP JUMPDEST SWAP1 POP SWAP2 SWAP1 POP JUMP JUMPDEST PUSH32 0x53616665436173743A2076616C756520646F65736E27742066697420696E2033 PUSH1 0x0 DUP3 ADD MSTORE PUSH32 0x3220626974730000000000000000000000000000000000000000000000000000 PUSH1 0x20 DUP3 ADD MSTORE POP JUMP JUMPDEST PUSH1 0x0 PUSH2 0x5420 PUSH1 0x26 DUP4 PUSH2 0x3BFF JUMP JUMPDEST SWAP2 POP PUSH2 0x542B DUP3 PUSH2 0x53C4 JUMP JUMPDEST PUSH1 0x40 DUP3 ADD SWAP1 POP SWAP2 SWAP1 POP JUMP JUMPDEST PUSH1 0x0 PUSH1 0x20 DUP3 ADD SWAP1 POP DUP2 DUP2 SUB PUSH1 0x0 DUP4 ADD MSTORE PUSH2 0x544F DUP2 PUSH2 0x5413 JUMP JUMPDEST SWAP1 POP SWAP2 SWAP1 POP JUMP JUMPDEST PUSH32 0x476F7665726E6F723A20766F7465206E6F742063757272656E746C7920616374 PUSH1 0x0 DUP3 ADD MSTORE PUSH32 0x6976650000000000000000000000000000000000000000000000000000000000 PUSH1 0x20 DUP3 ADD MSTORE POP JUMP JUMPDEST PUSH1 0x0 PUSH2 0x54B2 PUSH1 0x23 DUP4 PUSH2 0x3BFF JUMP JUMPDEST SWAP2 POP PUSH2 0x54BD DUP3 PUSH2 0x5456 JUMP JUMPDEST PUSH1 0x40 DUP3 ADD SWAP1 POP SWAP2 SWAP1 POP JUMP JUMPDEST PUSH1 0x0 PUSH1 0x20 DUP3 ADD SWAP1 POP DUP2 DUP2 SUB PUSH1 0x0 DUP4 ADD MSTORE PUSH2 0x54E1 DUP2 PUSH2 0x54A5 JUMP JUMPDEST SWAP1 POP SWAP2 SWAP1 POP JUMP JUMPDEST PUSH1 0x0 PUSH1 0x80 DUP3 ADD SWAP1 POP PUSH2 0x54FD PUSH1 0x0 DUP4 ADD DUP8 PUSH2 0x387E JUMP JUMPDEST PUSH2 0x550A PUSH1 0x20 DUP4 ADD DUP7 PUSH2 0x48E2 JUMP JUMPDEST PUSH2 0x5517 PUSH1 0x40 DUP4 ADD DUP6 PUSH2 0x387E JUMP JUMPDEST DUP2 DUP2 SUB PUSH1 0x60 DUP4 ADD MSTORE PUSH2 0x5529 DUP2 DUP5 PUSH2 0x3C3A JUMP JUMPDEST SWAP1 POP SWAP6 SWAP5 POP POP POP POP POP JUMP JUMPDEST PUSH1 0x0 DUP3 DUP3 MSTORE PUSH1 0x20 DUP3 ADD SWAP1 POP SWAP3 SWAP2 POP POP JUMP JUMPDEST PUSH1 0x0 PUSH2 0x5550 DUP3 PUSH2 0x510C JUMP JUMPDEST PUSH2 0x555A DUP2 DUP6 PUSH2 0x5534 JUMP JUMPDEST SWAP4 POP PUSH2 0x556A DUP2 DUP6 PUSH1 0x20 DUP7 ADD PUSH2 0x3C10 JUMP JUMPDEST PUSH2 0x5573 DUP2 PUSH2 0x3977 JUMP JUMPDEST DUP5 ADD SWAP2 POP POP SWAP3 SWAP2 POP POP JUMP JUMPDEST PUSH1 0x0 PUSH1 0xA0 DUP3 ADD SWAP1 POP PUSH2 0x5593 PUSH1 0x0 DUP4 ADD DUP9 PUSH2 0x387E JUMP JUMPDEST PUSH2 0x55A0 PUSH1 0x20 DUP4 ADD DUP8 PUSH2 0x48E2 JUMP JUMPDEST PUSH2 0x55AD PUSH1 0x40 DUP4 ADD DUP7 PUSH2 0x387E JUMP JUMPDEST DUP2 DUP2 SUB PUSH1 0x60 DUP4 ADD MSTORE PUSH2 0x55BF DUP2 DUP6 PUSH2 0x3C3A JUMP JUMPDEST SWAP1 POP DUP2 DUP2 SUB PUSH1 0x80 DUP4 ADD MSTORE PUSH2 0x55D3 DUP2 DUP5 PUSH2 0x5545 JUMP JUMPDEST SWAP1 POP SWAP7 SWAP6 POP POP POP POP POP POP JUMP JUMPDEST PUSH32 0x476F7665726E6F72566F74657351756F72756D4672616374696F6E3A2071756F PUSH1 0x0 DUP3 ADD MSTORE PUSH32 0x72756D4E756D657261746F72206F7665722071756F72756D44656E6F6D696E61 PUSH1 0x20 DUP3 ADD MSTORE PUSH32 0x746F720000000000000000000000000000000000000000000000000000000000 PUSH1 0x40 DUP3 ADD MSTORE POP JUMP JUMPDEST PUSH1 0x0 PUSH2 0x5661 PUSH1 0x43 DUP4 PUSH2 0x3BFF JUMP JUMPDEST SWAP2 POP PUSH2 0x566C DUP3 PUSH2 0x55DF JUMP JUMPDEST PUSH1 0x60 DUP3 ADD SWAP1 POP SWAP2 SWAP1 POP JUMP JUMPDEST PUSH1 0x0 PUSH1 0x20 DUP3 ADD SWAP1 POP DUP2 DUP2 SUB PUSH1 0x0 DUP4 ADD MSTORE PUSH2 0x5690 DUP2 PUSH2 0x5654 JUMP JUMPDEST SWAP1 POP SWAP2 SWAP1 POP JUMP JUMPDEST PUSH1 0x0 PUSH1 0x40 DUP3 ADD SWAP1 POP PUSH2 0x56AC PUSH1 0x0 DUP4 ADD DUP6 PUSH2 0x387E JUMP JUMPDEST PUSH2 0x56B9 PUSH1 0x20 DUP4 ADD DUP5 PUSH2 0x387E JUMP JUMPDEST SWAP4 SWAP3 POP POP POP JUMP JUMPDEST PUSH1 0x0 PUSH2 0x56CB DUP3 PUSH2 0x3874 JUMP JUMPDEST SWAP2 POP PUSH32 0xFFFFFFFFFFFFFFFFFFFFFFFFFFFFFFFFFFFFFFFFFFFFFFFFFFFFFFFFFFFFFFFF DUP3 SUB PUSH2 0x56FD JUMPI PUSH2 0x56FC PUSH2 0x4B45 JUMP JUMPDEST JUMPDEST PUSH1 0x1 DUP3 ADD SWAP1 POP SWAP2 SWAP1 POP JUMP JUMPDEST PUSH1 0x0 PUSH2 0x5713 DUP3 PUSH2 0x510C JUMP JUMPDEST PUSH2 0x571D DUP2 DUP6 PUSH2 0x4899 JUMP JUMPDEST SWAP4 POP PUSH2 0x572D DUP2 DUP6 PUSH1 0x20 DUP7 ADD PUSH2 0x3C10 JUMP JUMPDEST DUP1 DUP5 ADD SWAP2 POP POP SWAP3 SWAP2 POP POP JUMP JUMPDEST PUSH1 0x0 PUSH2 0x5745 DUP3 DUP5 PUSH2 0x5708 JUMP JUMPDEST SWAP2 POP DUP2 SWAP1 POP SWAP3 SWAP2 POP POP JUMP JUMPDEST PUSH1 0x0 PUSH2 0x575B DUP3 PUSH2 0x3874 JUMP JUMPDEST SWAP2 POP PUSH2 0x5766 DUP4 PUSH2 0x3874 JUMP JUMPDEST SWAP3 POP DUP3 DUP3 ADD SWAP1 POP DUP1 DUP3 GT ISZERO PUSH2 0x577E JUMPI PUSH2 0x577D PUSH2 0x4B45 JUMP JUMPDEST JUMPDEST SWAP3 SWAP2 POP POP JUMP JUMPDEST PUSH32 0x436865636B706F696E74733A20626C6F636B206E6F7420796574206D696E6564 PUSH1 0x0 DUP3 ADD MSTORE POP JUMP JUMPDEST PUSH1 0x0 PUSH2 0x57BA PUSH1 0x20 DUP4 PUSH2 0x3BFF JUMP JUMPDEST SWAP2 POP PUSH2 0x57C5 DUP3 PUSH2 0x5784 JUMP JUMPDEST PUSH1 0x20 DUP3 ADD SWAP1 POP SWAP2 SWAP1 POP JUMP JUMPDEST PUSH1 0x0 PUSH1 0x20 DUP3 ADD SWAP1 POP DUP2 DUP2 SUB PUSH1 0x0 DUP4 ADD MSTORE PUSH2 0x57E9 DUP2 PUSH2 0x57AD JUMP JUMPDEST SWAP1 POP SWAP2 SWAP1 POP JUMP JUMPDEST PUSH32 0x53616665436173743A2076616C756520646F65736E27742066697420696E2036 PUSH1 0x0 DUP3 ADD MSTORE PUSH32 0x3420626974730000000000000000000000000000000000000000000000000000 PUSH1 0x20 DUP3 ADD MSTORE POP JUMP JUMPDEST PUSH1 0x0 PUSH2 0x584C PUSH1 0x26 DUP4 PUSH2 0x3BFF JUMP JUMPDEST SWAP2 POP PUSH2 0x5857 DUP3 PUSH2 0x57F0 JUMP JUMPDEST PUSH1 0x40 DUP3 ADD SWAP1 POP SWAP2 SWAP1 POP JUMP JUMPDEST PUSH1 0x0 PUSH1 0x20 DUP3 ADD SWAP1 POP DUP2 DUP2 SUB PUSH1 0x0 DUP4 ADD MSTORE PUSH2 0x587B DUP2 PUSH2 0x583F JUMP JUMPDEST SWAP1 POP SWAP2 SWAP1 POP JUMP JUMPDEST PUSH1 0x0 PUSH1 0x40 DUP3 ADD SWAP1 POP PUSH2 0x5897 PUSH1 0x0 DUP4 ADD DUP6 PUSH2 0x4E49 JUMP JUMPDEST PUSH2 0x58A4 PUSH1 0x20 DUP4 ADD DUP5 PUSH2 0x387E JUMP JUMPDEST SWAP4 SWAP3 POP POP POP JUMP JUMPDEST PUSH1 0x0 DUP2 MLOAD SWAP1 POP PUSH2 0x58BA DUP2 PUSH2 0x38A8 JUMP JUMPDEST SWAP3 SWAP2 POP POP JUMP JUMPDEST PUSH1 0x0 PUSH1 0x20 DUP3 DUP5 SUB SLT ISZERO PUSH2 0x58D6 JUMPI PUSH2 0x58D5 PUSH2 0x37AF JUMP JUMPDEST JUMPDEST PUSH1 0x0 PUSH2 0x58E4 DUP5 DUP3 DUP6 ADD PUSH2 0x58AB JUMP JUMPDEST SWAP2 POP POP SWAP3 SWAP2 POP POP JUMP JUMPDEST PUSH32 0x476F7665726E6F7253657474696E67733A20766F74696E6720706572696F6420 PUSH1 0x0 DUP3 ADD MSTORE PUSH32 0x746F6F206C6F7700000000000000000000000000000000000000000000000000 PUSH1 0x20 DUP3 ADD MSTORE POP JUMP JUMPDEST PUSH1 0x0 PUSH2 0x5949 PUSH1 0x27 DUP4 PUSH2 0x3BFF JUMP JUMPDEST SWAP2 POP PUSH2 0x5954 DUP3 PUSH2 0x58ED JUMP JUMPDEST PUSH1 0x40 DUP3 ADD SWAP1 POP SWAP2 SWAP1 POP JUMP JUMPDEST PUSH1 0x0 PUSH1 0x20 DUP3 ADD SWAP1 POP DUP2 DUP2 SUB PUSH1 0x0 DUP4 ADD MSTORE PUSH2 0x5978 DUP2 PUSH2 0x593C JUMP JUMPDEST SWAP1 POP SWAP2 SWAP1 POP JUMP JUMPDEST PUSH1 0x0 PUSH2 0x598A DUP3 PUSH2 0x3874 JUMP JUMPDEST SWAP2 POP PUSH2 0x5995 DUP4 PUSH2 0x3874 JUMP JUMPDEST SWAP3 POP DUP3 DUP3 MUL PUSH2 0x59A3 DUP2 PUSH2 0x3874 JUMP JUMPDEST SWAP2 POP DUP3 DUP3 DIV DUP5 EQ DUP4 ISZERO OR PUSH2 0x59BA JUMPI PUSH2 0x59B9 PUSH2 0x4B45 JUMP JUMPDEST JUMPDEST POP SWAP3 SWAP2 POP POP JUMP JUMPDEST PUSH32 0x4E487B7100000000000000000000000000000000000000000000000000000000 PUSH1 0x0 MSTORE PUSH1 0x12 PUSH1 0x4 MSTORE PUSH1 0x24 PUSH1 0x0 REVERT JUMPDEST PUSH1 0x0 PUSH2 0x59FB DUP3 PUSH2 0x3874 JUMP JUMPDEST SWAP2 POP PUSH2 0x5A06 DUP4 PUSH2 0x3874 JUMP JUMPDEST SWAP3 POP DUP3 PUSH2 0x5A16 JUMPI PUSH2 0x5A15 PUSH2 0x59C1 JUMP JUMPDEST JUMPDEST DUP3 DUP3 DIV SWAP1 POP SWAP3 SWAP2 POP POP JUMP JUMPDEST PUSH32 0x436865636B706F696E743A20696E76616C6964206B6579000000000000000000 PUSH1 0x0 DUP3 ADD MSTORE POP JUMP JUMPDEST PUSH1 0x0 PUSH2 0x5A57 PUSH1 0x17 DUP4 PUSH2 0x3BFF JUMP JUMPDEST SWAP2 POP PUSH2 0x5A62 DUP3 PUSH2 0x5A21 JUMP JUMPDEST PUSH1 0x20 DUP3 ADD SWAP1 POP SWAP2 SWAP1 POP JUMP JUMPDEST PUSH1 0x0 PUSH1 0x20 DUP3 ADD SWAP1 POP DUP2 DUP2 SUB PUSH1 0x0 DUP4 ADD MSTORE PUSH2 0x5A86 DUP2 PUSH2 0x5A4A JUMP JUMPDEST SWAP1 POP SWAP2 SWAP1 POP JUMP JUMPDEST PUSH1 0x0 DUP2 SWAP1 POP SWAP3 SWAP2 POP POP JUMP JUMPDEST PUSH32 0x1901000000000000000000000000000000000000000000000000000000000000 PUSH1 0x0 DUP3 ADD MSTORE POP JUMP JUMPDEST PUSH1 0x0 PUSH2 0x5ACE PUSH1 0x2 DUP4 PUSH2 0x5A8D JUMP JUMPDEST SWAP2 POP PUSH2 0x5AD9 DUP3 PUSH2 0x5A98 JUMP JUMPDEST PUSH1 0x2 DUP3 ADD SWAP1 POP SWAP2 SWAP1 POP JUMP JUMPDEST PUSH1 0x0 DUP2 SWAP1 POP SWAP2 SWAP1 POP JUMP JUMPDEST PUSH2 0x5AFF PUSH2 0x5AFA DUP3 PUSH2 0x3AB3 JUMP JUMPDEST PUSH2 0x5AE4 JUMP JUMPDEST DUP3 MSTORE POP POP JUMP JUMPDEST PUSH1 0x0 PUSH2 0x5B10 DUP3 PUSH2 0x5AC1 JUMP JUMPDEST SWAP2 POP PUSH2 0x5B1C DUP3 DUP6 PUSH2 0x5AEE JUMP JUMPDEST PUSH1 0x20 DUP3 ADD SWAP2 POP PUSH2 0x5B2C DUP3 DUP5 PUSH2 0x5AEE JUMP JUMPDEST PUSH1 0x20 DUP3 ADD SWAP2 POP DUP2 SWAP1 POP SWAP4 SWAP3 POP POP POP JUMP JUMPDEST PUSH1 0x0 PUSH1 0x80 DUP3 ADD SWAP1 POP PUSH2 0x5B51 PUSH1 0x0 DUP4 ADD DUP8 PUSH2 0x40C2 JUMP JUMPDEST PUSH2 0x5B5E PUSH1 0x20 DUP4 ADD DUP7 PUSH2 0x48E2 JUMP JUMPDEST PUSH2 0x5B6B PUSH1 0x40 DUP4 ADD DUP6 PUSH2 0x40C2 JUMP JUMPDEST PUSH2 0x5B78 PUSH1 0x60 DUP4 ADD DUP5 PUSH2 0x40C2 JUMP JUMPDEST SWAP6 SWAP5 POP POP POP POP POP JUMP JUMPDEST PUSH32 0x45434453413A20696E76616C6964207369676E61747572650000000000000000 PUSH1 0x0 DUP3 ADD MSTORE POP JUMP JUMPDEST PUSH1 0x0 PUSH2 0x5BB7 PUSH1 0x18 DUP4 PUSH2 0x3BFF JUMP JUMPDEST SWAP2 POP PUSH2 0x5BC2 DUP3 PUSH2 0x5B81 JUMP JUMPDEST PUSH1 0x20 DUP3 ADD SWAP1 POP SWAP2 SWAP1 POP JUMP JUMPDEST PUSH1 0x0 PUSH1 0x20 DUP3 ADD SWAP1 POP DUP2 DUP2 SUB PUSH1 0x0 DUP4 ADD MSTORE PUSH2 0x5BE6 DUP2 PUSH2 0x5BAA JUMP JUMPDEST SWAP1 POP SWAP2 SWAP1 POP JUMP JUMPDEST PUSH32 0x45434453413A20696E76616C6964207369676E6174757265206C656E67746800 PUSH1 0x0 DUP3 ADD MSTORE POP JUMP JUMPDEST PUSH1 0x0 PUSH2 0x5C23 PUSH1 0x1F DUP4 PUSH2 0x3BFF JUMP JUMPDEST SWAP2 POP PUSH2 0x5C2E DUP3 PUSH2 0x5BED JUMP JUMPDEST PUSH1 0x20 DUP3 ADD SWAP1 POP SWAP2 SWAP1 POP JUMP JUMPDEST PUSH1 0x0 PUSH1 0x20 DUP3 ADD SWAP1 POP DUP2 DUP2 SUB PUSH1 0x0 DUP4 ADD MSTORE PUSH2 0x5C52 DUP2 PUSH2 0x5C16 JUMP JUMPDEST SWAP1 POP SWAP2 SWAP1 POP JUMP JUMPDEST PUSH32 0x45434453413A20696E76616C6964207369676E6174757265202773272076616C PUSH1 0x0 DUP3 ADD MSTORE PUSH32 0x7565000000000000000000000000000000000000000000000000000000000000 PUSH1 0x20 DUP3 ADD MSTORE POP JUMP JUMPDEST PUSH1 0x0 PUSH2 0x5CB5 PUSH1 0x22 DUP4 PUSH2 0x3BFF JUMP JUMPDEST SWAP2 POP PUSH2 0x5CC0 DUP3 PUSH2 0x5C59 JUMP JUMPDEST PUSH1 0x40 DUP3 ADD SWAP1 POP SWAP2 SWAP1 POP JUMP JUMPDEST PUSH1 0x0 PUSH1 0x20 DUP3 ADD SWAP1 POP DUP2 DUP2 SUB PUSH1 0x0 DUP4 ADD MSTORE PUSH2 0x5CE4 DUP2 PUSH2 0x5CA8 JUMP JUMPDEST SWAP1 POP SWAP2 SWAP1 POP JUMP JUMPDEST PUSH32 0x476F7665726E6F72566F74696E6753696D706C653A20766F746520616C726561 PUSH1 0x0 DUP3 ADD MSTORE PUSH32 0x6479206361737400000000000000000000000000000000000000000000000000 PUSH1 0x20 DUP3 ADD MSTORE POP JUMP JUMPDEST PUSH1 0x0 PUSH2 0x5D47 PUSH1 0x27 DUP4 PUSH2 0x3BFF JUMP JUMPDEST SWAP2 POP PUSH2 0x5D52 DUP3 PUSH2 0x5CEB JUMP JUMPDEST PUSH1 0x40 DUP3 ADD SWAP1 POP SWAP2 SWAP1 POP JUMP JUMPDEST PUSH1 0x0 PUSH1 0x20 DUP3 ADD SWAP1 POP DUP2 DUP2 SUB PUSH1 0x0 DUP4 ADD MSTORE PUSH2 0x5D76 DUP2 PUSH2 0x5D3A JUMP JUMPDEST SWAP1 POP SWAP2 SWAP1 POP JUMP JUMPDEST PUSH32 0x476F7665726E6F72566F74696E6753696D706C653A20696E76616C6964207661 PUSH1 0x0 DUP3 ADD MSTORE PUSH32 0x6C756520666F7220656E756D20566F7465547970650000000000000000000000 PUSH1 0x20 DUP3 ADD MSTORE POP JUMP JUMPDEST PUSH1 0x0 PUSH2 0x5DD9 PUSH1 0x35 DUP4 PUSH2 0x3BFF JUMP JUMPDEST SWAP2 POP PUSH2 0x5DE4 DUP3 PUSH2 0x5D7D JUMP JUMPDEST PUSH1 0x40 DUP3 ADD SWAP1 POP SWAP2 SWAP1 POP JUMP JUMPDEST PUSH1 0x0 PUSH1 0x20 DUP3 ADD SWAP1 POP DUP2 DUP2 SUB PUSH1 0x0 DUP4 ADD MSTORE PUSH2 0x5E08 DUP2 PUSH2 0x5DCC JUMP JUMPDEST SWAP1 POP SWAP2 SWAP1 POP JUMP JUMPDEST PUSH1 0x0 PUSH1 0xA0 DUP3 ADD SWAP1 POP PUSH2 0x5E24 PUSH1 0x0 DUP4 ADD DUP9 PUSH2 0x40C2 JUMP JUMPDEST PUSH2 0x5E31 PUSH1 0x20 DUP4 ADD DUP8 PUSH2 0x40C2 JUMP JUMPDEST PUSH2 0x5E3E PUSH1 0x40 DUP4 ADD DUP7 PUSH2 0x40C2 JUMP JUMPDEST PUSH2 0x5E4B PUSH1 0x60 DUP4 ADD DUP6 PUSH2 0x387E JUMP JUMPDEST PUSH2 0x5E58 PUSH1 0x80 DUP4 ADD DUP5 PUSH2 0x4E49 JUMP JUMPDEST SWAP7 SWAP6 POP POP POP POP POP POP JUMP INVALID SELFBALANCE PUSH16 0x7665726E6F723A2072656C6179207265 PUSH23 0x657274656420776974686F7574206D657373616765476F PUSH23 0x65726E6F723A2063616C6C207265766572746564207769 PUSH21 0x686F7574206D657373616765A26469706673582212 KECCAK256 ADDRESS SUB CALLDATALOAD SIGNEXTEND 0xA7 0xC7 PUSH17 0xB7F0BC1C5559C008026BA93E4D6DF749C1 0xE SWAP16 PUSH26 0x99FC4B421164736F6C6343000811003300000000000000000000 "},"methodIdentifiers":{"BALLOT_TYPEHASH()":"deaaa7cc","COUNTING_MODE()":"dd4e2ba5","EXTENDED_BALLOT_TYPEHASH()":"2fe3e261","castVote(uint256,uint8)":"56781388","castVoteBySig(uint256,uint8,uint8,bytes32,bytes32)":"3bccf4fd","castVoteWithReason(uint256,uint8,string)":"7b3c71d3","castVoteWithReasonAndParams(uint256,uint8,string,bytes)":"5f398a14","castVoteWithReasonAndParamsBySig(uint256,uint8,string,bytes,uint8,bytes32,bytes32)":"03420181","execute(address[],uint256[],bytes[],bytes32)":"2656227d","getVotes(address,uint256)":"eb9019d4","getVotesWithParams(address,uint256,bytes)":"9a802a6d","hasVoted(uint256,address)":"43859632","hashProposal(address[],uint256[],bytes[],bytes32)":"c59057e4","name()":"06fdde03","onERC1155BatchReceived(address,address,uint256[],uint256[],bytes)":"bc197c81","onERC1155Received(address,address,uint256,uint256,bytes)":"f23a6e61","onERC721Received(address,address,uint256,bytes)":"150b7a02","proposalDeadline(uint256)":"c01f9e37","proposalSnapshot(uint256)":"2d63f693","proposalThreshold()":"b58131b0","proposalVotes(uint256)":"544ffc9c","propose(address[],uint256[],bytes[],string)":"7d5e81e2","quorum(uint256)":"f8ce560a","quorumDenominator()":"97c3d334","quorumNumerator()":"a7713a70","quorumNumerator(uint256)":"60c4247f","relay(address,uint256,bytes)":"c28bc2fa","setProposalThreshold(uint256)":"ece40cc1","setVotingDelay(uint256)":"70b0f660","setVotingPeriod(uint256)":"ea0217cf","state(uint256)":"3e4f49e6","supportsInterface(bytes4)":"01ffc9a7","token()":"fc0c546a","updateQuorumNumerator(uint256)":"06f3f9e6","version()":"54fd4d50","votingDelay()":"3932abb1","votingPeriod()":"02a251a3"}}}}}