{
  "_format": "hh-sol-artifact-1",
  "contractName": "MyToken",
  "sourceName": "contracts/ERC20Votes.sol",
  "abi": [
    {
      "inputs": [
        {
          "internalType": "address",
          "name": "_governor",
          "type": "address"
        }
      ],
      "stateMutability": "nonpayable",
      "type": "constructor"
    },
    {
      "anonymous": false,
      "inputs": [
        {
          "indexed": true,
          "internalType": "address",
          "name": "owner",
          "type": "address"
        },
        {
          "indexed": true,
          "internalType": "address",
          "name": "spender",
          "type": "address"
        },
        {
          "indexed": false,
          "internalType": "uint256",
          "name": "value",
          "type": "uint256"
        }
      ],
      "name": "Approval",
      "type": "event"
    },
    {
      "anonymous": false,
      "inputs": [
        {
          "indexed": true,
          "internalType": "address",
          "name": "delegator",
          "type": "address"
        },
        {
          "indexed": true,
          "internalType": "address",
          "name": "fromDelegate",
          "type": "address"
        },
        {
          "indexed": true,
          "internalType": "address",
          "name": "toDelegate",
          "type": "address"
        }
      ],
      "name": "DelegateChanged",
      "type": "event"
    },
    {
      "anonymous": false,
      "inputs": [
        {
          "indexed": true,
          "internalType": "address",
          "name": "delegate",
          "type": "address"
        },
        {
          "indexed": false,
          "internalType": "uint256",
          "name": "previousBalance",
          "type": "uint256"
        },
        {
          "indexed": false,
          "internalType": "uint256",
          "name": "newBalance",
          "type": "uint256"
        }
      ],
      "name": "DelegateVotesChanged",
      "type": "event"
    },
    {
      "anonymous": false,
      "inputs": [
        {
          "indexed": true,
          "internalType": "address",
          "name": "from",
          "type": "address"
        },
        {
          "indexed": true,
          "internalType": "address",
          "name": "to",
          "type": "address"
        },
        {
          "indexed": false,
          "internalType": "uint256",
          "name": "value",
          "type": "uint256"
        }
      ],
      "name": "Transfer",
      "type": "event"
    },
    {
      "inputs": [],
      "name": "DOMAIN_SEPARATOR",
      "outputs": [
        {
          "internalType": "bytes32",
          "name": "",
          "type": "bytes32"
        }
      ],
      "stateMutability": "view",
      "type": "function"
    },
    {
      "inputs": [
        {
          "internalType": "address",
          "name": "owner",
          "type": "address"
        },
        {
          "internalType": "address",
          "name": "spender",
          "type": "address"
        }
      ],
      "name": "allowance",
      "outputs": [
        {
          "internalType": "uint256",
          "name": "",
          "type": "uint256"
        }
      ],
      "stateMutability": "view",
      "type": "function"
    },
    {
      "inputs": [
        {
          "internalType": "address",
          "name": "spender",
          "type": "address"
        },
        {
          "internalType": "uint256",
          "name": "amount",
          "type": "uint256"
        }
      ],
      "name": "approve",
      "outputs": [
        {
          "internalType": "bool",
          "name": "",
          "type": "bool"
        }
      ],
      "stateMutability": "nonpayable",
      "type": "function"
    },
    {
      "inputs": [
        {
          "internalType": "address",
          "name": "account",
          "type": "address"
        }
      ],
      "name": "balanceOf",
      "outputs": [
        {
          "internalType": "uint256",
          "name": "",
          "type": "uint256"
        }
      ],
      "stateMutability": "view",
      "type": "function"
    },
    {
      "inputs": [
        {
          "internalType": "address",
          "name": "account",
          "type": "address"
        },
        {
          "internalType": "uint32",
          "name": "pos",
          "type": "uint32"
        }
      ],
      "name": "checkpoints",
      "outputs": [
        {
          "components": [
            {
              "internalType": "uint32",
              "name": "fromBlock",
              "type": "uint32"
            },
            {
              "internalType": "uint224",
              "name": "votes",
              "type": "uint224"
            }
          ],
          "internalType": "struct ERC20Votes.Checkpoint",
          "name": "",
          "type": "tuple"
        }
      ],
      "stateMutability": "view",
      "type": "function"
    },
    {
      "inputs": [],
      "name": "decimals",
      "outputs": [
        {
          "internalType": "uint8",
          "name": "",
          "type": "uint8"
        }
      ],
      "stateMutability": "view",
      "type": "function"
    },
    {
      "inputs": [
        {
          "internalType": "address",
          "name": "spender",
          "type": "address"
        },
        {
          "internalType": "uint256",
          "name": "subtractedValue",
          "type": "uint256"
        }
      ],
      "name": "decreaseAllowance",
      "outputs": [
        {
          "internalType": "bool",
          "name": "",
          "type": "bool"
        }
      ],
      "stateMutability": "nonpayable",
      "type": "function"
    },
    {
      "inputs": [
        {
          "internalType": "address",
          "name": "delegatee",
          "type": "address"
        }
      ],
      "name": "delegate",
      "outputs": [],
      "stateMutability": "nonpayable",
      "type": "function"
    },
    {
      "inputs": [
        {
          "internalType": "address",
          "name": "delegatee",
          "type": "address"
        },
        {
          "internalType": "uint256",
          "name": "nonce",
          "type": "uint256"
        },
        {
          "internalType": "uint256",
          "name": "expiry",
          "type": "uint256"
        },
        {
          "internalType": "uint8",
          "name": "v",
          "type": "uint8"
        },
        {
          "internalType": "bytes32",
          "name": "r",
          "type": "bytes32"
        },
        {
          "internalType": "bytes32",
          "name": "s",
          "type": "bytes32"
        }
      ],
      "name": "delegateBySig",
      "outputs": [],
      "stateMutability": "nonpayable",
      "type": "function"
    },
    {
      "inputs": [
        {
          "internalType": "address",
          "name": "account",
          "type": "address"
        }
      ],
      "name": "delegates",
      "outputs": [
        {
          "internalType": "address",
          "name": "",
          "type": "address"
        }
      ],
      "stateMutability": "view",
      "type": "function"
    },
    {
      "inputs": [
        {
          "internalType": "uint256",
          "name": "blockNumber",
          "type": "uint256"
        }
      ],
      "name": "getPastTotalSupply",
      "outputs": [
        {
          "internalType": "uint256",
          "name": "",
          "type": "uint256"
        }
      ],
      "stateMutability": "view",
      "type": "function"
    },
    {
      "inputs": [
        {
          "internalType": "address",
          "name": "account",
          "type": "address"
        },
        {
          "internalType": "uint256",
          "name": "blockNumber",
          "type": "uint256"
        }
      ],
      "name": "getPastVotes",
      "outputs": [
        {
          "internalType": "uint256",
          "name": "",
          "type": "uint256"
        }
      ],
      "stateMutability": "view",
      "type": "function"
    },
    {
      "inputs": [
        {
          "internalType": "address",
          "name": "account",
          "type": "address"
        }
      ],
      "name": "getVotes",
      "outputs": [
        {
          "internalType": "uint256",
          "name": "",
          "type": "uint256"
        }
      ],
      "stateMutability": "view",
      "type": "function"
    },
    {
      "inputs": [],
      "name": "governor",
      "outputs": [
        {
          "internalType": "address",
          "name": "",
          "type": "address"
        }
      ],
      "stateMutability": "view",
      "type": "function"
    },
    {
      "inputs": [
        {
          "internalType": "address",
          "name": "spender",
          "type": "address"
        },
        {
          "internalType": "uint256",
          "name": "addedValue",
          "type": "uint256"
        }
      ],
      "name": "increaseAllowance",
      "outputs": [
        {
          "internalType": "bool",
          "name": "",
          "type": "bool"
        }
      ],
      "stateMutability": "nonpayable",
      "type": "function"
    },
    {
      "inputs": [
        {
          "internalType": "address",
          "name": "to",
          "type": "address"
        },
        {
          "internalType": "uint256",
          "name": "amount",
          "type": "uint256"
        }
      ],
      "name": "mint",
      "outputs": [],
      "stateMutability": "nonpayable",
      "type": "function"
    },
    {
      "inputs": [],
      "name": "name",
      "outputs": [
        {
          "internalType": "string",
          "name": "",
          "type": "string"
        }
      ],
      "stateMutability": "view",
      "type": "function"
    },
    {
      "inputs": [
        {
          "internalType": "address",
          "name": "owner",
          "type": "address"
        }
      ],
      "name": "nonces",
      "outputs": [
        {
          "internalType": "uint256",
          "name": "",
          "type": "uint256"
        }
      ],
      "stateMutability": "view",
      "type": "function"
    },
    {
      "inputs": [
        {
          "internalType": "address",
          "name": "account",
          "type": "address"
        }
      ],
      "name": "numCheckpoints",
      "outputs": [
        {
          "internalType": "uint32",
          "name": "",
          "type": "uint32"
        }
      ],
      "stateMutability": "view",
      "type": "function"
    },
    {
      "inputs": [
        {
          "internalType": "address",
          "name": "owner",
          "type": "address"
        },
        {
          "internalType": "address",
          "name": "spender",
          "type": "address"
        },
        {
          "internalType": "uint256",
          "name": "value",
          "type": "uint256"
        },
        {
          "internalType": "uint256",
          "name": "deadline",
          "type": "uint256"
        },
        {
          "internalType": "uint8",
          "name": "v",
          "type": "uint8"
        },
        {
          "internalType": "bytes32",
          "name": "r",
          "type": "bytes32"
        },
        {
          "internalType": "bytes32",
          "name": "s",
          "type": "bytes32"
        }
      ],
      "name": "permit",
      "outputs": [],
      "stateMutability": "nonpayable",
      "type": "function"
    },
    {
      "inputs": [],
      "name": "symbol",
      "outputs": [
        {
          "internalType": "string",
          "name": "",
          "type": "string"
        }
      ],
      "stateMutability": "view",
      "type": "function"
    },
    {
      "inputs": [],
      "name": "totalSupply",
      "outputs": [
        {
          "internalType": "uint256",
          "name": "",
          "type": "uint256"
        }
      ],
      "stateMutability": "view",
      "type": "function"
    },
    {
      "inputs": [
        {
          "internalType": "address",
          "name": "to",
          "type": "address"
        },
        {
          "internalType": "uint256",
          "name": "amount",
          "type": "uint256"
        }
      ],
      "name": "transfer",
      "outputs": [
        {
          "internalType": "bool",
          "name": "",
          "type": "bool"
        }
      ],
      "stateMutability": "nonpayable",
      "type": "function"
    },
    {
      "inputs": [
        {
          "internalType": "address",
          "name": "from",
          "type": "address"
        },
        {
          "internalType": "address",
          "name": "to",
          "type": "address"
        },
        {
          "internalType": "uint256",
          "name": "amount",
          "type": "uint256"
        }
      ],
      "name": "transferFrom",
      "outputs": [
        {
          "internalType": "bool",
          "name": "",
          "type": "bool"
        }
      ],
      "stateMutability": "nonpayable",
      "type": "function"
    }
  ],
  "bytecode": "0x6101406040523480156200001257600080fd5b5060405162004e4738038062004e47833981810160405281019062000038919062000c97565b6040518060400160405280600781526020017f4d79546f6b656e00000000000000000000000000000000000000000000000000815250806040518060400160405280600181526020017f31000000000000000000000000000000000000000000000000000000000000008152506040518060400160405280600781526020017f4d79546f6b656e000000000000000000000000000000000000000000000000008152506040518060400160405280600381526020017f4d544b0000000000000000000000000000000000000000000000000000000000815250816003908162000122919062000f43565b50806004908162000134919062000f43565b50505060008280519060200120905060008280519060200120905060007f8b73c3c69bb8fe3d512ecc4cf759cc79239f7b179b0ffacaa9a75d522b39400f90508260e081815250508161010081815250504660a08181525050620001a08184846200025c60201b60201c565b608081815250503073ffffffffffffffffffffffffffffffffffffffff1660c08173ffffffffffffffffffffffffffffffffffffffff168152505080610120818152505050505050505080600a60006101000a81548173ffffffffffffffffffffffffffffffffffffffff021916908373ffffffffffffffffffffffffffffffffffffffff160217905550620002556200023f6200029860201b60201c565b683635c9adc5dea00000620002a060201b60201c565b50620013fe565b600083838346306040516020016200027995949392919062001067565b6040516020818303038152906040528051906020012090509392505050565b600033905090565b620002b78282620002bb60201b62000f961760201c565b5050565b620002d282826200037960201b620010231760201c565b620002e2620004e660201b60201c565b7bffffffffffffffffffffffffffffffffffffffffffffffffffffffff16620003106200050a60201b60201c565b111562000354576040517f08c379a00000000000000000000000000000000000000000000000000000000081526004016200034b906200114b565b60405180910390fd5b6200037360096200051460201b6200117917836200052c60201b60201c565b50505050565b600073ffffffffffffffffffffffffffffffffffffffff168273ffffffffffffffffffffffffffffffffffffffff1603620003eb576040517f08c379a0000000000000000000000000000000000000000000000000000000008152600401620003e290620011bd565b60405180910390fd5b620003ff600083836200083960201b60201c565b80600260008282546200041391906200120e565b92505081905550806000808473ffffffffffffffffffffffffffffffffffffffff1673ffffffffffffffffffffffffffffffffffffffff168152602001908152602001600020600082825401925050819055508173ffffffffffffffffffffffffffffffffffffffff16600073ffffffffffffffffffffffffffffffffffffffff167fddf252ad1be2c89b69c2b068fc378daa952ba7f163c4a11628f55a4df523b3ef83604051620004c6919062001249565b60405180910390a3620004e2600083836200083e60201b60201c565b5050565b60007bffffffffffffffffffffffffffffffffffffffffffffffffffffffff905090565b6000600254905090565b600081836200052491906200120e565b905092915050565b60008060008580549050905060008082146200060757620005628760018462000556919062001266565b6200085b60201b60201c565b6040518060400160405290816000820160009054906101000a900463ffffffff1663ffffffff1663ffffffff1681526020016000820160049054906101000a90047bffffffffffffffffffffffffffffffffffffffffffffffffffffffff167bffffffffffffffffffffffffffffffffffffffffffffffffffffffff167bffffffffffffffffffffffffffffffffffffffffffffffffffffffff168152505062000643565b6040518060400160405280600063ffffffff16815260200160007bffffffffffffffffffffffffffffffffffffffffffffffffffffffff168152505b905080602001517bffffffffffffffffffffffffffffffffffffffffffffffffffffffff1693506200067684868860201c565b925060008211801562000692575043816000015163ffffffff16145b156200072557620006ae836200087060201b6200118f1760201c565b620006ce88600185620006c2919062001266565b6200085b60201b60201c565b60000160046101000a8154817bffffffffffffffffffffffffffffffffffffffffffffffffffffffff02191690837bffffffffffffffffffffffffffffffffffffffffffffffffffffffff1602179055506200082f565b8660405180604001604052806200074743620008de60201b620011fa1760201c565b63ffffffff16815260200162000768866200087060201b6200118f1760201c565b7bffffffffffffffffffffffffffffffffffffffffffffffffffffffff168152509080600181540180825580915050600190039060005260206000200160009091909190915060008201518160000160006101000a81548163ffffffff021916908363ffffffff16021790555060208201518160000160046101000a8154817bffffffffffffffffffffffffffffffffffffffffffffffffffffffff02191690837bffffffffffffffffffffffffffffffffffffffffffffffffffffffff16021790555050505b5050935093915050565b505050565b620008568383836200093460201b6200124d1760201c565b505050565b60008260005281602060002001905092915050565b60007bffffffffffffffffffffffffffffffffffffffffffffffffffffffff8016821115620008d6576040517f08c379a0000000000000000000000000000000000000000000000000000000008152600401620008cd9062001317565b60405180910390fd5b819050919050565b600063ffffffff80168211156200092c576040517f08c379a00000000000000000000000000000000000000000000000000000000081526004016200092390620013af565b60405180910390fd5b819050919050565b6200094c8383836200098460201b620012781760201c565b6200097f62000961846200098960201b60201c565b62000972846200098960201b60201c565b83620009f260201b60201c565b505050565b505050565b6000600760008373ffffffffffffffffffffffffffffffffffffffff1673ffffffffffffffffffffffffffffffffffffffff16815260200190815260200160002060009054906101000a900473ffffffffffffffffffffffffffffffffffffffff169050919050565b8173ffffffffffffffffffffffffffffffffffffffff168373ffffffffffffffffffffffffffffffffffffffff161415801562000a2f5750600081115b1562000c1057600073ffffffffffffffffffffffffffffffffffffffff168373ffffffffffffffffffffffffffffffffffffffff161462000b225760008062000ac9600860008773ffffffffffffffffffffffffffffffffffffffff1673ffffffffffffffffffffffffffffffffffffffff16815260200190815260200160002062000c1560201b6200127d17856200052c60201b60201c565b915091508473ffffffffffffffffffffffffffffffffffffffff167fdec2bacdd2f05b59de34da9b523dff8be42e5e38e818c82fdb0bae774387a724838360405162000b17929190620013d1565b60405180910390a250505b600073ffffffffffffffffffffffffffffffffffffffff168273ffffffffffffffffffffffffffffffffffffffff161462000c0f5760008062000bb6600860008673ffffffffffffffffffffffffffffffffffffffff1673ffffffffffffffffffffffffffffffffffffffff1681526020019081526020016000206200051460201b6200117917856200052c60201b60201c565b915091508373ffffffffffffffffffffffffffffffffffffffff167fdec2bacdd2f05b59de34da9b523dff8be42e5e38e818c82fdb0bae774387a724838360405162000c04929190620013d1565b60405180910390a250505b5b505050565b6000818362000c25919062001266565b905092915050565b600080fd5b600073ffffffffffffffffffffffffffffffffffffffff82169050919050565b600062000c5f8262000c32565b9050919050565b62000c718162000c52565b811462000c7d57600080fd5b50565b60008151905062000c918162000c66565b92915050565b60006020828403121562000cb05762000caf62000c2d565b5b600062000cc08482850162000c80565b91505092915050565b600081519050919050565b7f4e487b7100000000000000000000000000000000000000000000000000000000600052604160045260246000fd5b7f4e487b7100000000000000000000000000000000000000000000000000000000600052602260045260246000fd5b6000600282049050600182168062000d4b57607f821691505b60208210810362000d615762000d6062000d03565b5b50919050565b60008190508160005260206000209050919050565b60006020601f8301049050919050565b600082821b905092915050565b60006008830262000dcb7fffffffffffffffffffffffffffffffffffffffffffffffffffffffffffffffff8262000d8c565b62000dd7868362000d8c565b95508019841693508086168417925050509392505050565b6000819050919050565b6000819050919050565b600062000e2462000e1e62000e188462000def565b62000df9565b62000def565b9050919050565b6000819050919050565b62000e408362000e03565b62000e5862000e4f8262000e2b565b84845462000d99565b825550505050565b600090565b62000e6f62000e60565b62000e7c81848462000e35565b505050565b5b8181101562000ea45762000e9860008262000e65565b60018101905062000e82565b5050565b601f82111562000ef35762000ebd8162000d67565b62000ec88462000d7c565b8101602085101562000ed8578190505b62000ef062000ee78562000d7c565b83018262000e81565b50505b505050565b600082821c905092915050565b600062000f186000198460080262000ef8565b1980831691505092915050565b600062000f33838362000f05565b9150826002028217905092915050565b62000f4e8262000cc9565b67ffffffffffffffff81111562000f6a5762000f6962000cd4565b5b62000f76825462000d32565b62000f8382828562000ea8565b600060209050601f83116001811462000fbb576000841562000fa6578287015190505b62000fb2858262000f25565b86555062001022565b601f19841662000fcb8662000d67565b60005b8281101562000ff55784890151825560018201915060208501945060208101905062000fce565b8683101562001015578489015162001011601f89168262000f05565b8355505b6001600288020188555050505b505050505050565b6000819050919050565b6200103f816200102a565b82525050565b620010508162000def565b82525050565b620010618162000c52565b82525050565b600060a0820190506200107e600083018862001034565b6200108d602083018762001034565b6200109c604083018662001034565b620010ab606083018562001045565b620010ba608083018462001056565b9695505050505050565b600082825260208201905092915050565b7f4552433230566f7465733a20746f74616c20737570706c79207269736b73206f60008201527f766572666c6f77696e6720766f74657300000000000000000000000000000000602082015250565b600062001133603083620010c4565b91506200114082620010d5565b604082019050919050565b60006020820190508181036000830152620011668162001124565b9050919050565b7f45524332303a206d696e7420746f20746865207a65726f206164647265737300600082015250565b6000620011a5601f83620010c4565b9150620011b2826200116d565b602082019050919050565b60006020820190508181036000830152620011d88162001196565b9050919050565b7f4e487b7100000000000000000000000000000000000000000000000000000000600052601160045260246000fd5b60006200121b8262000def565b9150620012288362000def565b9250828201905080821115620012435762001242620011df565b5b92915050565b600060208201905062001260600083018462001045565b92915050565b6000620012738262000def565b9150620012808362000def565b92508282039050818111156200129b576200129a620011df565b5b92915050565b7f53616665436173743a2076616c756520646f65736e27742066697420696e203260008201527f3234206269747300000000000000000000000000000000000000000000000000602082015250565b6000620012ff602783620010c4565b91506200130c82620012a1565b604082019050919050565b600060208201905081810360008301526200133281620012f0565b9050919050565b7f53616665436173743a2076616c756520646f65736e27742066697420696e203360008201527f3220626974730000000000000000000000000000000000000000000000000000602082015250565b600062001397602683620010c4565b9150620013a48262001339565b604082019050919050565b60006020820190508181036000830152620013ca8162001388565b9050919050565b6000604082019050620013e8600083018562001045565b620013f7602083018462001045565b9392505050565b60805160a05160c05160e05161010051610120516139f96200144e600039600061181401526000611856015260006118350152600061176a015260006117c0015260006117e901526139f96000f3fe608060405234801561001057600080fd5b50600436106101585760003560e01c80636fcfff45116100c3578063a457c2d71161007c578063a457c2d714610429578063a9059cbb14610459578063c3cda52014610489578063d505accf146104a5578063dd62ed3e146104c1578063f1127ed8146104f157610158565b80636fcfff451461031b57806370a082311461034b5780637ecebe001461037b5780638e539e8c146103ab57806395d89b41146103db5780639ab24eb0146103f957610158565b80633644e515116101155780633644e5151461023557806339509351146102535780633a46b1a81461028357806340c10f19146102b3578063587cde1e146102cf5780635c19a95c146102ff57610158565b806306fdde031461015d578063095ea7b31461017b5780630c340a24146101ab57806318160ddd146101c957806323b872dd146101e7578063313ce56714610217575b600080fd5b610165610521565b6040516101729190612672565b60405180910390f35b6101956004803603810190610190919061272d565b6105b3565b6040516101a29190612788565b60405180910390f35b6101b36105d6565b6040516101c091906127b2565b60405180910390f35b6101d16105fc565b6040516101de91906127dc565b60405180910390f35b61020160048036038101906101fc91906127f7565b610606565b60405161020e9190612788565b60405180910390f35b61021f610635565b60405161022c9190612866565b60405180910390f35b61023d61063e565b60405161024a919061289a565b60405180910390f35b61026d6004803603810190610268919061272d565b61064d565b60405161027a9190612788565b60405180910390f35b61029d6004803603810190610298919061272d565b610684565b6040516102aa91906127dc565b60405180910390f35b6102cd60048036038101906102c8919061272d565b610718565b005b6102e960048036038101906102e491906128b5565b6107bd565b6040516102f691906127b2565b60405180910390f35b610319600480360381019061031491906128b5565b610826565b005b610335600480360381019061033091906128b5565b61083a565b6040516103429190612901565b60405180910390f35b610365600480360381019061036091906128b5565b61088e565b60405161037291906127dc565b60405180910390f35b610395600480360381019061039091906128b5565b6108d6565b6040516103a291906127dc565b60405180910390f35b6103c560048036038101906103c0919061291c565b610926565b6040516103d291906127dc565b60405180910390f35b6103e361097c565b6040516103f09190612672565b60405180910390f35b610413600480360381019061040e91906128b5565b610a0e565b60405161042091906127dc565b60405180910390f35b610443600480360381019061043e919061272d565b610b1f565b6040516104509190612788565b60405180910390f35b610473600480360381019061046e919061272d565b610b96565b6040516104809190612788565b60405180910390f35b6104a3600480360381019061049e91906129a1565b610bb9565b005b6104bf60048036038101906104ba9190612a2e565b610cbd565b005b6104db60048036038101906104d69190612ad0565b610dff565b6040516104e891906127dc565b60405180910390f35b61050b60048036038101906105069190612b3c565b610e86565b6040516105189190612bf1565b60405180910390f35b60606003805461053090612c3b565b80601f016020809104026020016040519081016040528092919081815260200182805461055c90612c3b565b80156105a95780601f1061057e576101008083540402835291602001916105a9565b820191906000526020600020905b81548152906001019060200180831161058c57829003601f168201915b5050505050905090565b6000806105be611293565b90506105cb81858561129b565b600191505092915050565b600a60009054906101000a900473ffffffffffffffffffffffffffffffffffffffff1681565b6000600254905090565b600080610611611293565b905061061e858285611464565b6106298585856114f0565b60019150509392505050565b60006012905090565b6000610648611766565b905090565b600080610658611293565b905061067981858561066a8589610dff565b6106749190612c9b565b61129b565b600191505092915050565b60004382106106c8576040517f08c379a00000000000000000000000000000000000000000000000000000000081526004016106bf90612d1b565b60405180910390fd5b610710600860008573ffffffffffffffffffffffffffffffffffffffff1673ffffffffffffffffffffffffffffffffffffffff16815260200190815260200160002083611880565b905092915050565b600a60009054906101000a900473ffffffffffffffffffffffffffffffffffffffff1673ffffffffffffffffffffffffffffffffffffffff16610759611293565b73ffffffffffffffffffffffffffffffffffffffff16146107af576040517f08c379a00000000000000000000000000000000000000000000000000000000081526004016107a690612d87565b60405180910390fd5b6107b982826119d1565b5050565b6000600760008373ffffffffffffffffffffffffffffffffffffffff1673ffffffffffffffffffffffffffffffffffffffff16815260200190815260200160002060009054906101000a900473ffffffffffffffffffffffffffffffffffffffff169050919050565b610837610831611293565b826119df565b50565b6000610887600860008473ffffffffffffffffffffffffffffffffffffffff1673ffffffffffffffffffffffffffffffffffffffff168152602001908152602001600020805490506111fa565b9050919050565b60008060008373ffffffffffffffffffffffffffffffffffffffff1673ffffffffffffffffffffffffffffffffffffffff168152602001908152602001600020549050919050565b600061091f600560008473ffffffffffffffffffffffffffffffffffffffff1673ffffffffffffffffffffffffffffffffffffffff168152602001908152602001600020611af9565b9050919050565b600043821061096a576040517f08c379a000000000000000000000000000000000000000000000000000000000815260040161096190612d1b565b60405180910390fd5b610975600983611880565b9050919050565b60606004805461098b90612c3b565b80601f01602080910402602001604051908101604052809291908181526020018280546109b790612c3b565b8015610a045780601f106109d957610100808354040283529160200191610a04565b820191906000526020600020905b8154815290600101906020018083116109e757829003601f168201915b5050505050905090565b600080600860008473ffffffffffffffffffffffffffffffffffffffff1673ffffffffffffffffffffffffffffffffffffffff16815260200190815260200160002080549050905060008114610af657600860008473ffffffffffffffffffffffffffffffffffffffff1673ffffffffffffffffffffffffffffffffffffffff168152602001908152602001600020600182610aaa9190612da7565b81548110610abb57610aba612ddb565b5b9060005260206000200160000160049054906101000a90047bffffffffffffffffffffffffffffffffffffffffffffffffffffffff16610af9565b60005b7bffffffffffffffffffffffffffffffffffffffffffffffffffffffff16915050919050565b600080610b2a611293565b90506000610b388286610dff565b905083811015610b7d576040517f08c379a0000000000000000000000000000000000000000000000000000000008152600401610b7490612e7c565b60405180910390fd5b610b8a828686840361129b565b60019250505092915050565b600080610ba1611293565b9050610bae8185856114f0565b600191505092915050565b83421115610bfc576040517f08c379a0000000000000000000000000000000000000000000000000000000008152600401610bf390612ee8565b60405180910390fd5b6000610c5e610c567fe48329057bfd03d55e49b547132e39cffd9c1820ad7b9d4c5307691425d15adf898989604051602001610c3b9493929190612f08565b60405160208183030381529060405280519060200120611b07565b858585611b21565b9050610c6981611b4c565b8614610caa576040517f08c379a0000000000000000000000000000000000000000000000000000000008152600401610ca190612f99565b60405180910390fd5b610cb481886119df565b50505050505050565b83421115610d00576040517f08c379a0000000000000000000000000000000000000000000000000000000008152600401610cf790613005565b60405180910390fd5b60007f6e71edae12b1b97f4d1f60370fef10105fa2faae0126114a169c64845d6126c9888888610d2f8c611b4c565b89604051602001610d4596959493929190613025565b6040516020818303038152906040528051906020012090506000610d6882611b07565b90506000610d7882878787611b21565b90508973ffffffffffffffffffffffffffffffffffffffff168173ffffffffffffffffffffffffffffffffffffffff1614610de8576040517f08c379a0000000000000000000000000000000000000000000000000000000008152600401610ddf906130d2565b60405180910390fd5b610df38a8a8a61129b565b50505050505050505050565b6000600160008473ffffffffffffffffffffffffffffffffffffffff1673ffffffffffffffffffffffffffffffffffffffff16815260200190815260200160002060008373ffffffffffffffffffffffffffffffffffffffff1673ffffffffffffffffffffffffffffffffffffffff16815260200190815260200160002054905092915050565b610e8e6125a4565b600860008473ffffffffffffffffffffffffffffffffffffffff1673ffffffffffffffffffffffffffffffffffffffff1681526020019081526020016000208263ffffffff1681548110610ee557610ee4612ddb565b5b906000526020600020016040518060400160405290816000820160009054906101000a900463ffffffff1663ffffffff1663ffffffff1681526020016000820160049054906101000a90047bffffffffffffffffffffffffffffffffffffffffffffffffffffffff167bffffffffffffffffffffffffffffffffffffffffffffffffffffffff167bffffffffffffffffffffffffffffffffffffffffffffffffffffffff1681525050905092915050565b610fa08282611023565b610fa8611baa565b7bffffffffffffffffffffffffffffffffffffffffffffffffffffffff16610fce6105fc565b111561100f576040517f08c379a000000000000000000000000000000000000000000000000000000000815260040161100690613164565b60405180910390fd5b61101d600961117983611bce565b50505050565b600073ffffffffffffffffffffffffffffffffffffffff168273ffffffffffffffffffffffffffffffffffffffff1603611092576040517f08c379a0000000000000000000000000000000000000000000000000000000008152600401611089906131d0565b60405180910390fd5b61109e60008383611e9d565b80600260008282546110b09190612c9b565b92505081905550806000808473ffffffffffffffffffffffffffffffffffffffff1673ffffffffffffffffffffffffffffffffffffffff168152602001908152602001600020600082825401925050819055508173ffffffffffffffffffffffffffffffffffffffff16600073ffffffffffffffffffffffffffffffffffffffff167fddf252ad1be2c89b69c2b068fc378daa952ba7f163c4a11628f55a4df523b3ef8360405161116191906127dc565b60405180910390a361117560008383611ea2565b5050565b600081836111879190612c9b565b905092915050565b60007bffffffffffffffffffffffffffffffffffffffffffffffffffffffff80168211156111f2576040517f08c379a00000000000000000000000000000000000000000000000000000000081526004016111e990613262565b60405180910390fd5b819050919050565b600063ffffffff8016821115611245576040517f08c379a000000000000000000000000000000000000000000000000000000000815260040161123c906132f4565b60405180910390fd5b819050919050565b611258838383611278565b611273611264846107bd565b61126d846107bd565b83611eb2565b505050565b505050565b6000818361128b9190612da7565b905092915050565b600033905090565b600073ffffffffffffffffffffffffffffffffffffffff168373ffffffffffffffffffffffffffffffffffffffff160361130a576040517f08c379a000000000000000000000000000000000000000000000000000000000815260040161130190613386565b60405180910390fd5b600073ffffffffffffffffffffffffffffffffffffffff168273ffffffffffffffffffffffffffffffffffffffff1603611379576040517f08c379a000000000000000000000000000000000000000000000000000000000815260040161137090613418565b60405180910390fd5b80600160008573ffffffffffffffffffffffffffffffffffffffff1673ffffffffffffffffffffffffffffffffffffffff16815260200190815260200160002060008473ffffffffffffffffffffffffffffffffffffffff1673ffffffffffffffffffffffffffffffffffffffff168152602001908152602001600020819055508173ffffffffffffffffffffffffffffffffffffffff168373ffffffffffffffffffffffffffffffffffffffff167f8c5be1e5ebec7d5bd14f71427d1e84f3dd0314c0f7b2291e5b200ac8c7c3b9258360405161145791906127dc565b60405180910390a3505050565b60006114708484610dff565b90507fffffffffffffffffffffffffffffffffffffffffffffffffffffffffffffffff81146114ea57818110156114dc576040517f08c379a00000000000000000000000000000000000000000000000000000000081526004016114d390613484565b60405180910390fd5b6114e9848484840361129b565b5b50505050565b600073ffffffffffffffffffffffffffffffffffffffff168373ffffffffffffffffffffffffffffffffffffffff160361155f576040517f08c379a000000000000000000000000000000000000000000000000000000000815260040161155690613516565b60405180910390fd5b600073ffffffffffffffffffffffffffffffffffffffff168273ffffffffffffffffffffffffffffffffffffffff16036115ce576040517f08c379a00000000000000000000000000000000000000000000000000000000081526004016115c5906135a8565b60405180910390fd5b6115d9838383611e9d565b60008060008573ffffffffffffffffffffffffffffffffffffffff1673ffffffffffffffffffffffffffffffffffffffff1681526020019081526020016000205490508181101561165f576040517f08c379a00000000000000000000000000000000000000000000000000000000081526004016116569061363a565b60405180910390fd5b8181036000808673ffffffffffffffffffffffffffffffffffffffff1673ffffffffffffffffffffffffffffffffffffffff16815260200190815260200160002081905550816000808573ffffffffffffffffffffffffffffffffffffffff1673ffffffffffffffffffffffffffffffffffffffff168152602001908152602001600020600082825401925050819055508273ffffffffffffffffffffffffffffffffffffffff168473ffffffffffffffffffffffffffffffffffffffff167fddf252ad1be2c89b69c2b068fc378daa952ba7f163c4a11628f55a4df523b3ef8460405161174d91906127dc565b60405180910390a3611760848484611ea2565b50505050565b60007f000000000000000000000000000000000000000000000000000000000000000073ffffffffffffffffffffffffffffffffffffffff163073ffffffffffffffffffffffffffffffffffffffff161480156117e257507f000000000000000000000000000000000000000000000000000000000000000046145b1561180f577f0000000000000000000000000000000000000000000000000000000000000000905061187d565b61187a7f00000000000000000000000000000000000000000000000000000000000000007f00000000000000000000000000000000000000000000000000000000000000007f00000000000000000000000000000000000000000000000000000000000000006120ab565b90505b90565b6000808380549050905060008082905060058311156118f65760006118a4846120e5565b846118af9190612da7565b9050856118bc88836121de565b60000160009054906101000a900463ffffffff1663ffffffff1611156118e4578091506118f4565b6001816118f19190612c9b565b92505b505b5b8082101561195657600061190b83836121f3565b90508561191888836121de565b60000160009054906101000a900463ffffffff1663ffffffff16111561194057809150611950565b60018161194d9190612c9b565b92505b506118f7565b600081146119a5576119748660018361196f9190612da7565b6121de565b60000160049054906101000a90047bffffffffffffffffffffffffffffffffffffffffffffffffffffffff166119a8565b60005b7bffffffffffffffffffffffffffffffffffffffffffffffffffffffff16935050505092915050565b6119db8282610f96565b5050565b60006119ea836107bd565b905060006119f78461088e565b905082600760008673ffffffffffffffffffffffffffffffffffffffff1673ffffffffffffffffffffffffffffffffffffffff16815260200190815260200160002060006101000a81548173ffffffffffffffffffffffffffffffffffffffff021916908373ffffffffffffffffffffffffffffffffffffffff1602179055508273ffffffffffffffffffffffffffffffffffffffff168273ffffffffffffffffffffffffffffffffffffffff168573ffffffffffffffffffffffffffffffffffffffff167f3134e8a2e6d97e929a7e54011ea5485d7d196dd5f0ba4d4ef95803e8e3fc257f60405160405180910390a4611af3828483611eb2565b50505050565b600081600001549050919050565b6000611b1a611b14611766565b83612219565b9050919050565b6000806000611b328787878761224c565b91509150611b3f8161232e565b8192505050949350505050565b600080600560008473ffffffffffffffffffffffffffffffffffffffff1673ffffffffffffffffffffffffffffffffffffffff1681526020019081526020016000209050611b9981611af9565b9150611ba481612494565b50919050565b60007bffffffffffffffffffffffffffffffffffffffffffffffffffffffff905090565b6000806000858054905090506000808214611c9d57611bf987600184611bf49190612da7565b6121de565b6040518060400160405290816000820160009054906101000a900463ffffffff1663ffffffff1663ffffffff1681526020016000820160049054906101000a90047bffffffffffffffffffffffffffffffffffffffffffffffffffffffff167bffffffffffffffffffffffffffffffffffffffffffffffffffffffff167bffffffffffffffffffffffffffffffffffffffffffffffffffffffff1681525050611cd9565b6040518060400160405280600063ffffffff16815260200160007bffffffffffffffffffffffffffffffffffffffffffffffffffffffff168152505b905080602001517bffffffffffffffffffffffffffffffffffffffffffffffffffffffff169350611d0e84868863ffffffff16565b9250600082118015611d29575043816000015163ffffffff16145b15611da357611d378361118f565b611d4d88600185611d489190612da7565b6121de565b60000160046101000a8154817bffffffffffffffffffffffffffffffffffffffffffffffffffffffff02191690837bffffffffffffffffffffffffffffffffffffffffffffffffffffffff160217905550611e93565b866040518060400160405280611db8436111fa565b63ffffffff168152602001611dcc8661118f565b7bffffffffffffffffffffffffffffffffffffffffffffffffffffffff168152509080600181540180825580915050600190039060005260206000200160009091909190915060008201518160000160006101000a81548163ffffffff021916908363ffffffff16021790555060208201518160000160046101000a8154817bffffffffffffffffffffffffffffffffffffffffffffffffffffffff02191690837bffffffffffffffffffffffffffffffffffffffffffffffffffffffff16021790555050505b5050935093915050565b505050565b611ead83838361124d565b505050565b8173ffffffffffffffffffffffffffffffffffffffff168373ffffffffffffffffffffffffffffffffffffffff1614158015611eee5750600081115b156120a657600073ffffffffffffffffffffffffffffffffffffffff168373ffffffffffffffffffffffffffffffffffffffff1614611fcc57600080611f75600860008773ffffffffffffffffffffffffffffffffffffffff1673ffffffffffffffffffffffffffffffffffffffff16815260200190815260200160002061127d85611bce565b915091508473ffffffffffffffffffffffffffffffffffffffff167fdec2bacdd2f05b59de34da9b523dff8be42e5e38e818c82fdb0bae774387a7248383604051611fc192919061365a565b60405180910390a250505b600073ffffffffffffffffffffffffffffffffffffffff168273ffffffffffffffffffffffffffffffffffffffff16146120a55760008061204e600860008673ffffffffffffffffffffffffffffffffffffffff1673ffffffffffffffffffffffffffffffffffffffff16815260200190815260200160002061117985611bce565b915091508373ffffffffffffffffffffffffffffffffffffffff167fdec2bacdd2f05b59de34da9b523dff8be42e5e38e818c82fdb0bae774387a724838360405161209a92919061365a565b60405180910390a250505b5b505050565b600083838346306040516020016120c6959493929190613683565b6040516020818303038152906040528051906020012090509392505050565b60008082036120f757600090506121d9565b60006001612104846124aa565b901c6001901b9050600181848161211e5761211d6136d6565b5b048201901c90506001818481612137576121366136d6565b5b048201901c905060018184816121505761214f6136d6565b5b048201901c90506001818481612169576121686136d6565b5b048201901c90506001818481612182576121816136d6565b5b048201901c9050600181848161219b5761219a6136d6565b5b048201901c905060018184816121b4576121b36136d6565b5b048201901c90506121d5818285816121cf576121ce6136d6565b5b0461258b565b9150505b919050565b60008260005281602060002001905092915050565b600060028284186122049190613705565b8284166122119190612c9b565b905092915050565b6000828260405160200161222e9291906137ae565b60405160208183030381529060405280519060200120905092915050565b6000807f7fffffffffffffffffffffffffffffff5d576e7357a4501ddfe92f46681b20a08360001c1115612287576000600391509150612325565b6000600187878787604051600081526020016040526040516122ac94939291906137e5565b6020604051602081039080840390855afa1580156122ce573d6000803e3d6000fd5b505050602060405103519050600073ffffffffffffffffffffffffffffffffffffffff168173ffffffffffffffffffffffffffffffffffffffff160361231c57600060019250925050612325565b80600092509250505b94509492505050565b600060048111156123425761234161382a565b5b8160048111156123555761235461382a565b5b0315612491576001600481111561236f5761236e61382a565b5b8160048111156123825761238161382a565b5b036123c2576040517f08c379a00000000000000000000000000000000000000000000000000000000081526004016123b9906138a5565b60405180910390fd5b600260048111156123d6576123d561382a565b5b8160048111156123e9576123e861382a565b5b03612429576040517f08c379a000000000000000000000000000000000000000000000000000000000815260040161242090613911565b60405180910390fd5b6003600481111561243d5761243c61382a565b5b8160048111156124505761244f61382a565b5b03612490576040517f08c379a0000000000000000000000000000000000000000000000000000000008152600401612487906139a3565b60405180910390fd5b5b50565b6001816000016000828254019250508190555050565b600080600090506000608084901c11156124cc57608083901c92506080810190505b6000604084901c11156124e757604083901c92506040810190505b6000602084901c111561250257602083901c92506020810190505b6000601084901c111561251d57601083901c92506010810190505b6000600884901c111561253857600883901c92506008810190505b6000600484901c111561255357600483901c92506004810190505b6000600284901c111561256e57600283901c92506002810190505b6000600184901c1115612582576001810190505b80915050919050565b600081831061259a578161259c565b825b905092915050565b6040518060400160405280600063ffffffff16815260200160007bffffffffffffffffffffffffffffffffffffffffffffffffffffffff1681525090565b600081519050919050565b600082825260208201905092915050565b60005b8381101561261c578082015181840152602081019050612601565b60008484015250505050565b6000601f19601f8301169050919050565b6000612644826125e2565b61264e81856125ed565b935061265e8185602086016125fe565b61266781612628565b840191505092915050565b6000602082019050818103600083015261268c8184612639565b905092915050565b600080fd5b600073ffffffffffffffffffffffffffffffffffffffff82169050919050565b60006126c482612699565b9050919050565b6126d4816126b9565b81146126df57600080fd5b50565b6000813590506126f1816126cb565b92915050565b6000819050919050565b61270a816126f7565b811461271557600080fd5b50565b60008135905061272781612701565b92915050565b6000806040838503121561274457612743612694565b5b6000612752858286016126e2565b925050602061276385828601612718565b9150509250929050565b60008115159050919050565b6127828161276d565b82525050565b600060208201905061279d6000830184612779565b92915050565b6127ac816126b9565b82525050565b60006020820190506127c760008301846127a3565b92915050565b6127d6816126f7565b82525050565b60006020820190506127f160008301846127cd565b92915050565b6000806000606084860312156128105761280f612694565b5b600061281e868287016126e2565b935050602061282f868287016126e2565b925050604061284086828701612718565b9150509250925092565b600060ff82169050919050565b6128608161284a565b82525050565b600060208201905061287b6000830184612857565b92915050565b6000819050919050565b61289481612881565b82525050565b60006020820190506128af600083018461288b565b92915050565b6000602082840312156128cb576128ca612694565b5b60006128d9848285016126e2565b91505092915050565b600063ffffffff82169050919050565b6128fb816128e2565b82525050565b600060208201905061291660008301846128f2565b92915050565b60006020828403121561293257612931612694565b5b600061294084828501612718565b91505092915050565b6129528161284a565b811461295d57600080fd5b50565b60008135905061296f81612949565b92915050565b61297e81612881565b811461298957600080fd5b50565b60008135905061299b81612975565b92915050565b60008060008060008060c087890312156129be576129bd612694565b5b60006129cc89828a016126e2565b96505060206129dd89828a01612718565b95505060406129ee89828a01612718565b94505060606129ff89828a01612960565b9350506080612a1089828a0161298c565b92505060a0612a2189828a0161298c565b9150509295509295509295565b600080600080600080600060e0888a031215612a4d57612a4c612694565b5b6000612a5b8a828b016126e2565b9750506020612a6c8a828b016126e2565b9650506040612a7d8a828b01612718565b9550506060612a8e8a828b01612718565b9450506080612a9f8a828b01612960565b93505060a0612ab08a828b0161298c565b92505060c0612ac18a828b0161298c565b91505092959891949750929550565b60008060408385031215612ae757612ae6612694565b5b6000612af5858286016126e2565b9250506020612b06858286016126e2565b9150509250929050565b612b19816128e2565b8114612b2457600080fd5b50565b600081359050612b3681612b10565b92915050565b60008060408385031215612b5357612b52612694565b5b6000612b61858286016126e2565b9250506020612b7285828601612b27565b9150509250929050565b612b85816128e2565b82525050565b60007bffffffffffffffffffffffffffffffffffffffffffffffffffffffff82169050919050565b612bbc81612b8b565b82525050565b604082016000820151612bd86000850182612b7c565b506020820151612beb6020850182612bb3565b50505050565b6000604082019050612c066000830184612bc2565b92915050565b7f4e487b7100000000000000000000000000000000000000000000000000000000600052602260045260246000fd5b60006002820490506001821680612c5357607f821691505b602082108103612c6657612c65612c0c565b5b50919050565b7f4e487b7100000000000000000000000000000000000000000000000000000000600052601160045260246000fd5b6000612ca6826126f7565b9150612cb1836126f7565b9250828201905080821115612cc957612cc8612c6c565b5b92915050565b7f4552433230566f7465733a20626c6f636b206e6f7420796574206d696e656400600082015250565b6000612d05601f836125ed565b9150612d1082612ccf565b602082019050919050565b60006020820190508181036000830152612d3481612cf8565b9050919050565b7f4f6e6c7920476f7665726e6f7200000000000000000000000000000000000000600082015250565b6000612d71600d836125ed565b9150612d7c82612d3b565b602082019050919050565b60006020820190508181036000830152612da081612d64565b9050919050565b6000612db2826126f7565b9150612dbd836126f7565b9250828203905081811115612dd557612dd4612c6c565b5b92915050565b7f4e487b7100000000000000000000000000000000000000000000000000000000600052603260045260246000fd5b7f45524332303a2064656372656173656420616c6c6f77616e63652062656c6f7760008201527f207a65726f000000000000000000000000000000000000000000000000000000602082015250565b6000612e666025836125ed565b9150612e7182612e0a565b604082019050919050565b60006020820190508181036000830152612e9581612e59565b9050919050565b7f4552433230566f7465733a207369676e61747572652065787069726564000000600082015250565b6000612ed2601d836125ed565b9150612edd82612e9c565b602082019050919050565b60006020820190508181036000830152612f0181612ec5565b9050919050565b6000608082019050612f1d600083018761288b565b612f2a60208301866127a3565b612f3760408301856127cd565b612f4460608301846127cd565b95945050505050565b7f4552433230566f7465733a20696e76616c6964206e6f6e636500000000000000600082015250565b6000612f836019836125ed565b9150612f8e82612f4d565b602082019050919050565b60006020820190508181036000830152612fb281612f76565b9050919050565b7f45524332305065726d69743a206578706972656420646561646c696e65000000600082015250565b6000612fef601d836125ed565b9150612ffa82612fb9565b602082019050919050565b6000602082019050818103600083015261301e81612fe2565b9050919050565b600060c08201905061303a600083018961288b565b61304760208301886127a3565b61305460408301876127a3565b61306160608301866127cd565b61306e60808301856127cd565b61307b60a08301846127cd565b979650505050505050565b7f45524332305065726d69743a20696e76616c6964207369676e61747572650000600082015250565b60006130bc601e836125ed565b91506130c782613086565b602082019050919050565b600060208201905081810360008301526130eb816130af565b9050919050565b7f4552433230566f7465733a20746f74616c20737570706c79207269736b73206f60008201527f766572666c6f77696e6720766f74657300000000000000000000000000000000602082015250565b600061314e6030836125ed565b9150613159826130f2565b604082019050919050565b6000602082019050818103600083015261317d81613141565b9050919050565b7f45524332303a206d696e7420746f20746865207a65726f206164647265737300600082015250565b60006131ba601f836125ed565b91506131c582613184565b602082019050919050565b600060208201905081810360008301526131e9816131ad565b9050919050565b7f53616665436173743a2076616c756520646f65736e27742066697420696e203260008201527f3234206269747300000000000000000000000000000000000000000000000000602082015250565b600061324c6027836125ed565b9150613257826131f0565b604082019050919050565b6000602082019050818103600083015261327b8161323f565b9050919050565b7f53616665436173743a2076616c756520646f65736e27742066697420696e203360008201527f3220626974730000000000000000000000000000000000000000000000000000602082015250565b60006132de6026836125ed565b91506132e982613282565b604082019050919050565b6000602082019050818103600083015261330d816132d1565b9050919050565b7f45524332303a20617070726f76652066726f6d20746865207a65726f2061646460008201527f7265737300000000000000000000000000000000000000000000000000000000602082015250565b60006133706024836125ed565b915061337b82613314565b604082019050919050565b6000602082019050818103600083015261339f81613363565b9050919050565b7f45524332303a20617070726f766520746f20746865207a65726f20616464726560008201527f7373000000000000000000000000000000000000000000000000000000000000602082015250565b60006134026022836125ed565b915061340d826133a6565b604082019050919050565b60006020820190508181036000830152613431816133f5565b9050919050565b7f45524332303a20696e73756666696369656e7420616c6c6f77616e6365000000600082015250565b600061346e601d836125ed565b915061347982613438565b602082019050919050565b6000602082019050818103600083015261349d81613461565b9050919050565b7f45524332303a207472616e736665722066726f6d20746865207a65726f20616460008201527f6472657373000000000000000000000000000000000000000000000000000000602082015250565b60006135006025836125ed565b915061350b826134a4565b604082019050919050565b6000602082019050818103600083015261352f816134f3565b9050919050565b7f45524332303a207472616e7366657220746f20746865207a65726f206164647260008201527f6573730000000000000000000000000000000000000000000000000000000000602082015250565b60006135926023836125ed565b915061359d82613536565b604082019050919050565b600060208201905081810360008301526135c181613585565b9050919050565b7f45524332303a207472616e7366657220616d6f756e742065786365656473206260008201527f616c616e63650000000000000000000000000000000000000000000000000000602082015250565b60006136246026836125ed565b915061362f826135c8565b604082019050919050565b6000602082019050818103600083015261365381613617565b9050919050565b600060408201905061366f60008301856127cd565b61367c60208301846127cd565b9392505050565b600060a082019050613698600083018861288b565b6136a5602083018761288b565b6136b2604083018661288b565b6136bf60608301856127cd565b6136cc60808301846127a3565b9695505050505050565b7f4e487b7100000000000000000000000000000000000000000000000000000000600052601260045260246000fd5b6000613710826126f7565b915061371b836126f7565b92508261372b5761372a6136d6565b5b828204905092915050565b600081905092915050565b7f1901000000000000000000000000000000000000000000000000000000000000600082015250565b6000613777600283613736565b915061378282613741565b600282019050919050565b6000819050919050565b6137a86137a382612881565b61378d565b82525050565b60006137b98261376a565b91506137c58285613797565b6020820191506137d58284613797565b6020820191508190509392505050565b60006080820190506137fa600083018761288b565b6138076020830186612857565b613814604083018561288b565b613821606083018461288b565b95945050505050565b7f4e487b7100000000000000000000000000000000000000000000000000000000600052602160045260246000fd5b7f45434453413a20696e76616c6964207369676e61747572650000000000000000600082015250565b600061388f6018836125ed565b915061389a82613859565b602082019050919050565b600060208201905081810360008301526138be81613882565b9050919050565b7f45434453413a20696e76616c6964207369676e6174757265206c656e67746800600082015250565b60006138fb601f836125ed565b9150613906826138c5565b602082019050919050565b6000602082019050818103600083015261392a816138ee565b9050919050565b7f45434453413a20696e76616c6964207369676e6174757265202773272076616c60008201527f7565000000000000000000000000000000000000000000000000000000000000602082015250565b600061398d6022836125ed565b915061399882613931565b604082019050919050565b600060208201905081810360008301526139bc81613980565b905091905056fea264697066735822122068015151ca0a3941127ad32a3cc822d095519b2068d012eb61b058ad2b23c63664736f6c63430008110033",
  "linkReferences": {},
  "deployedLinkReferences": {}
}